:020000040800F2
:10000000B01E0020AD010008B5010008B9020008CB
:10001000B9010008BB010008BD0100080000000094
:10002000000000000000000000000000BF01000808
:10003000C101000800000000FF01000801140008D1
:10004000C7010008C7010008C7010008C701000870
:10005000C7010008C7010008AD080008A50900088D
:10006000D1090008FD090008290A0008C701000895
:10007000C7010008C7010008C7010008C701000840
:10008000C7010008C7010008C7010008C701000830
:10009000C7010008C7010008C7010008550A000889
:1000A000C7010008C7010008C7010008C701000810
:1000B000C7010008C7010008C7010008C701000800
:1000C000C7010008C7010008C7010008C7010008F0
:1000D000C701000871150008C7010008C701000822
:1000E000D9080008C7010008C7010008C7010008B7
:1000F000C7010008C7010008C7010008C7010008C0
:10010000C7010008C7010008C7010008C7010008AF
:10011000C7010008C7010008C7010008C70100089F
:10012000C7010008C7010008C7010008C70100088F
:10013000C7010008C7010008C7010008C70100087F
:10014000C7010008C7010008C7010008C70100086F
:10015000C7010008C7010008C7010008C70100085F
:10016000C7010008C7010008C7010008C70100084F
:10017000C7010008C7010008C7010008C70100083F
:10018000C7010008C7010008C7010008C70100082F
:10019000C7010008C7010008DFF80CD000F0E0F943
:1001A00000480047F9050008B01E002006488047B7
:1001B00006480047FEE7FEE7FEE7FEE7FEE7FEE74C
:1001C000FEE7FEE7FEE7FEE71514000899010008C8
:1001D000EFF3108072B6704780F310887047444A7E
:1001E0001368012B04D04FF001031360414A1060E3
:1001F000414A116041484FF0805101607047EFF370
:10020000108272B63A48016851B34FF000010160A4
:100210003848016891B1EFF309811EF0100F08BF53
:1002200021ED108B21E9F00F4FF000041EF0100FAC
:1002300008BF012441F8044D006801602E49096897
:10024000096808C9B1E8F00F002B18BFB1EC108B9A
:1002500081F309884EF0100E002B18BF2EF0100EFF
:1002600082F310884EF0040E704723490860EFF3C4
:10027000148222F0040282F314881E494FF0000019
:1002800008601B494FF0010008601D481D49D0F867
:10029000002041EA0201016018484FF080510160DE
:1002A00019480068006880F3088861B662B6BFF339
:1002B0004F8FBFF36F8F70471EF0040F0CBFEFF32B
:1002C0000880EFF3098020E9F00F40F804ED40F8D2
:1002D00004ED1EF0040F0CBF80F3088880F309883A
:1002E00000B508F087F85DF804EB4EF0040E704797
:1002F000240A0020640800207008002004ED00E0BB
:1003000020ED00E00000FFFF08ED00E0004870472E
:1003100010D00008D2B201E000F8012B491EFBD238
:1003200070470022F6E710B513460A460446194600
:10033000FFF7F0FF204610BD10B5044604E00B782F
:1003400000F8013B03B1491C521EF8D2204610BDF3
:10035000CAB2401E10F8011F8A4202D00029F9D10A
:1003600000207047421C10F8011B0029FBD1801AA5
:10037000704710B5002200E0521C835C8C5CA342E5
:1003800001D1002BF8D1D8B2E1B2401A10BD30B57E
:1003900004460020034600E05B1C934203D2E05C6D
:1003A000CD5C401BF8D030BD30B50546002003467B
:1003B00000E05B1C934205D2EC5CC85C201A01D1C2
:1003C000002CF6D130BD2DE9F05F93460F468046F4
:1003D000044600260CF0C8FDD0F80090824614F8C0
:1003E000015B2DB1FFF792FF0068405DC007F6D1B9
:1003F0002B2D02D02D2D1AD0641E0021CAF800101A
:100400005A463946204600F024F8014627B138689C
:10041000A04201D1C7F80080DAF80000022809D014
:10042000CAF80090700505D54842BDE8F09F46F433
:100430008066E2E70846F8E770B506460CF094FDE2
:10044000046805460A220021304600F051F82C606D
:1004500070BD2DE9F05F82460078002715468B4677
:100460000AF10104B946302801D09DB113E014F817
:10047000010B0127782803D0582801D045B10AE0A4
:100480000DB1102D07D10027102514F8010B02E043
:10049000082500E00A250026B0460EE005FB08000E
:1004A00005FB06F1012701EB10461FFA80F8B6F5AF
:1004B000803F00D3B94614F8010B294600F062F8DA
:1004C0000028EBDABBF1000F05D00FB1641E00E08D
:1004D0005446CBF80040B9F1000F06D00CF044FDB3
:1004E00002210160C81EBDE8F09F48EA0640FAE715
:1004F0002DE9F04791460F4680460446002614F841
:10050000015B2DB1FFF702FF0068405DC007F6D127
:100510002B2D02D02D2D18D0641E4A463946204678
:10052000FFF797FF27B13968A14201D1C7F80080D2
:1005300071054FF002040BD54042002803DD0CF09A
:1005400013FD0460A007BDE8F08746F48066E4E789
:100550000028F8DA0CF008FD04606FF00040F2E7C4
:10056000064C074D06E0E06840F0010394E8070000
:1005700098471034AC42F6D3FFF712FED8F40008C7
:10058000F8F400083A2800D2303820F02002412A3E
:1005900001D3A2F13700884201D34FF0FF307047FA
:1005A00070B58C1810F8015B15F0070301D110F835
:1005B000013B2A1106D110F8012B03E010F8016B62
:1005C00001F8016B5B1EF9D12B0705D40023521EE5
:1005D0000DD401F8013BFAE710F8013BCB1A921C4D
:1005E00003E013F8015B01F8015B521EF9D5A1424B
:1005F000D8D3002070BD000080B50CF0F1FA0020C7
:1006000080BD00007F2222EA0101016070470000E6
:10061000B0B540F658050C46C4F2020588B1204634
:10062000012100F0B9FB002000F0ACFB286840F08D
:1006300010002860D5F8000440F01000C5F8000450
:10064000B0BD4FF48070002100F0A6FB204600F002
:1006500099FB286820F010002860D5F8000420F0ED
:100660001000C5F80004B0BD10B5122907D1D0F8AC
:100670005CC02CF0070C43EA0C03C3651CE00A299C
:1006800001EB410C0DD3D0F80CE0ACF11E0C0724AB
:1006900004FA0CF42EEA040403FA0CF32343C360B7
:1006A0000AE0D0F810E0072404FA0CF42EEA04045F
:1006B00003FA0CF323430361062A02EB820303D8F7
:1006C00034306FF0040207E00C2A87BF2C306FF043
:1006D000400230306FF022021A4403681F24944015
:1006E000A34391401943016010BD000010B540F6CE
:1006F0000001C4F20201884209D040F60041C4F270
:100700000201884218BF10BD4FF4005401E04FF4BD
:1007100080542046012100F075FB20460021BDE8F1
:10072000104000F06FBB00008268002922F0010237
:1007300018BF0132826070478268002922F4A0024B
:1007400018BF02F5A0028260704700008168426D08
:100750000020002A08BFC1F380007047C06C80B23F
:10076000704700000068084018BF01207047000073
:10077000806D084018BF01207047000080B54268B6
:100780004FF6FF63CFF6F07302EA030C0B680A79A9
:1007900043EA0C0343EA0222426082684FF2FD738F
:1007A000CFF6F17302EA030CD1E902E24B7942EA97
:1007B0000C0242EA0E0242EA43028260C26A097CEB
:1007C00022F470020139C9B242EA0151C16280BD0E
:1007D000416D002918BF7047816841F004018160B4
:1007E0007047000080B5012000F030FB0020BDE81C
:1007F000804000F02BBB000047F200420123C4F20E
:10080000000203FA00F0002911680CBF21EA000081
:10081000084310607047000010B547F2004CC4F266
:10082000000CDCF8003040F6FE72824023EA020E33
:10083000D1E90032D1E902411A432243114301FABE
:1008400000F040EA0E00CCF8000010BD81B000229C
:10085000009247F20042C4F200020092009A104453
:10086000083000900098016001B0704781B000220C
:10087000009247F20042C4F200020092009A104433
:10088000143000900098016001B0704747F20442B4
:1008900000090123C4F2000203FA00F000291168E4
:1008A0000CBF21EA000008431060704780B508F0D3
:1008B000E5FC012000F01EF950B140F2EC10C2F24C
:1008C0000000816809B1C0688847012000F00CF978
:1008D000BDE8804008F0F6BC10B508F0CFFC4FF43E
:1008E000806000F007F940F2EC14C2F2000448B155
:1008F000D4F8A81011B1D4F8AC0088474FF4806048
:1009000000F0F2F84FF4006000F0F4F848B1D4F8C9
:10091000B81011B1D4F8BC0088474FF4006000F063
:10092000E3F84FF4805000F0E5F848B1D4F8C8106F
:1009300011B1D4F8CC0088474FF4805000F0D4F8BF
:100940004FF4005000F0D6F848B1D4F8D81011B1E7
:10095000D4F8DC0088474FF4005000F0C5F84FF49D
:10096000804000F0C7F848B1D4F8E81011B1D4F8CD
:10097000EC0088474FF4804000F0B6F84FF4004098
:1009800000F0B8F848B1D4F8F81011B1D4F8FC0070
:1009900088474FF4004000F0A7F8BDE8104008F089
:1009A00091BC000080B508F069FC022000F0A2F8BC
:1009B00050B140F2EC10C2F20000816909B1C06987
:1009C0008847022000F090F8BDE8804008F07ABC2B
:1009D00080B508F053FC042000F08CF850B140F2D0
:1009E000EC10C2F20000816A09B1C06A8847042095
:1009F00000F07AF8BDE8804008F064BC80B508F0EB
:100A00003DFC082000F076F850B140F2EC10C2F244
:100A10000000816B09B1C06B8847082000F064F8C2
:100A2000BDE8804008F04EBC80B508F027FC1020DF
:100A300000F060F850B140F2EC10C2F20000816C9E
:100A400009B1C06C8847102000F04EF8BDE8804026
:100A500008F038BC10B508F011FC202000F04AF86E
:100A600040F2EC14C2F2000430B1A16D09B1E06DA6
:100A70008847202000F038F8402000F03BF830B1E3
:100A8000A16E09B1E06E8847402000F02DF880206B
:100A900000F030F830B1A16F09B1E06F88478020D5
:100AA00000F022F84FF4807000F024F848B1D4F838
:100AB000881011B1D4F88C0088474FF4807000F092
:100AC00013F84FF4007000F015F848B1D4F89810FE
:100AD00011B1D4F89C0088474FF4007000F004F87E
:100AE000BDE8104008F0EEBB40F21441C4F2010131
:100AF0000860704740F20041C4F201010A68496988
:100B00000240084018BF0120002A18BF01221040EF
:100B1000704700008179002940F20041C4F20101D0
:100B20001FD002680B6893430B604B6893434B6084
:100B3000037943EA010CDCF800301A43CCF80020BA
:100B400002688B6893438B60CB689343CB6040799A
:100B500010280ED1886810438860C8681043C860A8
:100B600070470279006811430A6822EA00000860B1
:100B700070470843016811430160704710B50C22AB
:100B8000082402EA810201F0FC01C4F201044FF0E2
:100B90000F0C51F804E00CFA02F32EEA03030B5198
:100BA0000B5990401843085110BD00002DE9F04743
:100BB000CA7802F00F0CD30644BF8B784CEA030CC2
:100BC00009880B0625D082465AF8144B00F1100E06
:100BD00000254FF001094FF00F08002706E000BF85
:100BE0001E600137082F05F1040511D009FA07F638
:100BF0000E42F6D008FA05F324EA03030CFA05F4D2
:100C00001C43282A5346EBD0482AEAD17346E7E72B
:100C10000460B1F5807F38BFBDE8F087436800F11C
:100C2000100E00F1140900254FF4807A4FF00F08E0
:100C3000002705E034600137082F05F1040512D0C4
:100C40000AFA07F404EA0106A642F4D108FA05F606
:100C5000B3430CFA05F63343282A4E46EAD0482A15
:100C6000E9D17646E6E74360BDE8F0874FF6FF71CD
:100C7000C0F20141016070478068084018BF012040
:100C8000704700001023002A08BF1423C15070478A
:100C900043F20801C4F200010860704743F200000B
:100CA000C4F200004CF6CC410160704743F20000F2
:100CB000C4F200004AF6AA210160704743F2040121
:100CC000C4F200010860704743F20001C4F2000161
:100CD0000860704710B5C17800294EF20011CEF2BD
:100CE00000011AD04EF60C52CEF200021268072311
:100CF00023EA12220F23C2F1040C23FA02F24378F2
:100D0000847890F800E003FA0CF322401A431201B1
:100D100001EB0E0383F8002300E08031007801230B
:100D200000F01F0203FA02F2C0F3421041F8202043
:100D300010BD000040F080604EF60C5140F0FD7098
:100D4000CEF20001086070474FF68072C1F6FF7264
:100D5000114008434EF60851CEF20001086070477A
:100D60002021C4F20E2108607047000041F22C02DD
:100D7000C4F202021368084323F47C431843106052
:100D80007047000041F22C01C4F202010A6822F00F
:100D90000F0210430860704741F22C02C4F20202B5
:100DA0001368002908BF20F4807023F4F871084309
:100DB0001060704741F22001C4F2020100220128B4
:100DC0000A700A7003D0042818BF70470520087005
:100DD0007047000041F22001C4F202010A6822F4C7
:100DE00040720A600A68104308607047002941F2A7
:100DF0001401C4F202010A680CBF22EA0000104389
:100E000008607047002941F22801C4F202010A6813
:100E10000CBF22EA0000104308607047002941F22D
:100E20001C01C4F202010A680CBF22EA0000104350
:100E300008607047002941F21801C4F202010A68F3
:100E40000CBF22EA000010430860704740F24041A6
:100E5000C4F242210860704740F28041C4F242214E
:100E60000860704740F23C41C4F24221086070477C
:100E700010B541F2040CC4F2020CDCF80010DCF8EE
:100E8000002041F2002340F6001EC0F27A03D20394
:100E9000C0F23D0E04D5DCF80020920358BF9E46F8
:100EA0000A016FF4F77240F20F2458BF022204EADD
:100EB0009141DCF80040114401FB0EF204F00C01FA
:100EC000082908BF13460360DCF800104DF25004F7
:100ED000C1F30311C0F60004615C23FA01F1416023
:100EE000DCF80030C3F30223E35C21FA03F38360F0
:100EF000DCF80030C3F3C223E35C0BA421FA03F354
:100F0000C360DCF8283003F00F03E35CB1FBF3F1BE
:100F100009A34161DCF82810C1F3031133F8111063
:100F2000B2FBF1F1016110BD01020406080A0C10C8
:100F300020202020202020200100020004000600A4
:100F400008000A000C001000200040008000000192
:100F50000001000100010001420941F20001012AE3
:100F6000C4F2020103D0022A14BF243120310968DF
:100F700000F01F0021FA00F000F0010070470000AF
:100F800010B583B042F60C02C4F2000252F8043CE1
:100F90005B065CBF0023CB700B7830B1487891F8CA
:100FA00002E0000240EA034C42E00A2B10D3A3F116
:100FB0000A0E5FFA8EFCCD230CFB03F34FEAD32C11
:100FC0000CEB8C031020AEEB430300EB0C1000E0A5
:100FD000002003434878DBB20A284FEA034C0FD3C2
:100FE000A0F10A045FFA84FECD230EFB03F3DB0AB3
:100FF00003EB8300A4EB4000102404EB031300E098
:10100000002303438878DBB20A284CEA032C0CD374
:101010000A38C3B2CD246343DB0A03EB8304A0EB9D
:101020004400102404EB031300E0002343EA000E05
:10103000CA20C97890615320906100200090106808
:1010400040060FD480201060136800980130009093
:101050000098B0F5005F02D013F04000F4D01068A3
:1010600040062DD55FFA8EF040EA0C0040EA0140C0
:1010700047F67F71C0F27F01084042F80C0C1068FF
:1010800020F08000106052F8040C800618D4002074
:101090000190CA20906153209061106820F02000D8
:1010A000106000BF10680199013101910199B1F5FB
:1010B000004F02D010F02000F4D01068FF209061A3
:1010C000FF20906100200290CA209061532090611F
:1010D000106820F020001060106802990131029120
:1010E0000299B1F5004F02D010F02000F4D0106842
:1010F000FF21C0F34010916103B010BD10B542F65E
:101100000402C4F20002126800284FEA1243C2F33C
:10111000042E02F03F0CC2F34234CB7081F801E0A0
:1011200081F802C00C7018BF10BDDCB2240904EBBA
:10113000840403F00F0303EB4403100ACB704FEA5F
:101140001E1343EA830300F00F0000EB43004870D6
:101150004FEA1C1040EA800002F00F0202EB400050
:10116000887010BD10B542F60002C4F20002126889
:101170004024C2F30543C2F3062E02F07F0C04EABA
:10118000124400280B7081F801E081F802C0CC7095
:1011900018BF10BD100C1B0943EA830300F00F00B9
:1011A00000EB4300140A08704FEA1E1000EB8000A9
:1011B00004F00F0303EB400048704FEA1C1000EBF3
:1011C000800002F00F0202EB4000887010BD0000AA
:1011D00081B042F60C01C4F20001CA228A61532296
:1011E0008A61002200920A68520611D480220A60A5
:1011F0000A68009B01330093009BB3F5005F02D0A7
:1012000012F04002F4D00A68520601D4002017E020
:1012100051F8042C22F0400241F8042C51F8042C1F
:10122000D0E9003C80681A4341F8042C48604868C3
:1012300040EA0C404860086820F080000860012007
:10124000FF228A6101B0704780B583B040B94A7807
:10125000D30642BF02F0EF020A324A7000286DD076
:101260004878CA7891F802E0000240EA024C42F65F
:101270000C02C4F20002CA200978906153209061E8
:10128000002000901068400610D48020106000BF3D
:101290001068009B01330093009BB3F5005F02D000
:1012A00010F04000F4D01068400629D55FFA8EF0A7
:1012B00040EA0C00490320F0C000084342F8080C43
:1012C000106820F08000106052F8040C800617D4DB
:1012D00000200190CA20906153209061106820F096
:1012E0002000106010680199013101910199B1F558
:1012F000004F02D010F02000F4D01068FF20906161
:10130000FF20906100200290CA20906153209061DC
:10131000106820F0200010601068029901310291DD
:101320000299B1F5004F02D010F02000F4D01068FF
:10133000FF21C0F34010916103B080BDC8780A2836
:101340000CD30A38C2B2CD235A43D20A02EB82032D
:10135000A0EB4300102303EB021200E00022104335
:101360004A78C0B20A2A4FEA004C0CD30A3AD3B2E8
:10137000CD205843C00A00EB8003A2EB43021023A8
:1013800003EB001300E0002343EA02008A78C0B2B6
:101390000A2A4CEA002C0DD3A2F10A00C2B2CD23D6
:1013A0005A43D30A03EB8302A0EB4202102000EB66
:1013B000031300E0002343EA020E58E781B042F62F
:1013C0000C010020C4F200010090CA208861532063
:1013D0008861086820F02000086000BF0868009A53
:1013E00001320092009AB2F5004F02D010F02000B6
:1013F000F4D00868FF22C0F340108A6101B0704742
:1014000080B507F03BFF0AF0CDFDBDE8804007F056
:1014100059BF0000B0B54EF6885CCEF2000CDCF887
:10142000000041F2040140F47000C4F20201CCF863
:10143000000051F8040C4CF2000240F0010041F8A9
:10144000040C0868CFF6FF021040086051F8040C45
:101450004FF6FF72CFF6F662104041F8040C51F8D7
:10146000040C4FF6FF7E20F4802041F8040C08683D
:10147000CFF2007E00EA0E0008604FF460508862F0
:101480004FF46150C8624FF41F004860886942F20F
:10149000000340F08050886147F20C00C4F2000065
:1014A0000268C4F2020342F001020260886900226D
:1014B00020F080508861186840F09000186051F862
:1014C000040C40F4803041F8040C47F6FF7000BF74
:1014D00051F8045C013842F10004AD0301D4002C42
:1014E000F6D151F8040C800309D440F2080041F20F
:1014F0000021C2F20000C0F27A01016033E01868F6
:101500000EF5400220F007001860186840F0040053
:10151000186008680860086840F4005008600868AF
:1015200040F4A0600860086810400860086840F057
:10153000006040F4A020086051F8040C40F0807076
:1015400041F8040C51F8040C8001FBD5086820F028
:1015500003000860086840F002000860086800F0B6
:101560000C000828FAD14FF000604CF8800CB0BD98
:1015700010B507F083FE40F63820C2F20000046C7C
:101580002CB917A01AA140F23F2205F00FFD2068E8
:1015900040F2255100F05AF858B12068202100F09F
:1015A0004FF830B140F63820C2F20000012107F0B8
:1015B00059FA206840F2277100F048F858B12068C5
:1015C000802100F03DF830B140F63820C2F2000032
:1015D000022107F047FABDE8104007F073BE00BFD4
:1015E0007561727420213D2052545F4E554C4C0061
:1015F000756172745F69737200000000C1F3421379
:1016000001F01F0C1421022B08BF1021012B4FF0F9
:10161000010308BF0C21002A03FA0CF243580CBF47
:1016200023EA02021A4342507047000082890029CF
:1016300018BF012122F4005242EA413181817047F2
:101640000088084018BF012070470000C1F3421213
:10165000022A06D0012A14BF00F1140200F10C0284
:1016600001E000F110021288008801F01F03090A4E
:10167000DA40C840104000F00100704770B586B0F5
:101680000446008A0D46C98820F440500843208251
:10169000A0894EF6F3110840A9882A896B8908436E
:1016A00010431843A081A08AA98920F44070084300
:1016B0006E46A0823046FFF7DBFB43F60000C4F223
:1016C000010084420BD045F20040C4F20100844284
:1016D00005D045F20000C4F20100844202D106F1B7
:1016E0000C0001E006F1080000682A68192148434F
:1016F0009100B0FBF1F048F21F51C5F2EB11A0FBD5
:1017000001234FF69C765A09C0F6FF7602FB0600CD
:10171000322606EB0010A0FB01016FF00F0000EA7B
:1017200051101028C1F343104FF0010608BF06EB1B
:10173000531240EA0210208106B070BD80886FF31A
:101740005F2070476FF35F2181807047002804D0CD
:1017500090FAA0F0B0FA80F0401C704710B5144623
:1017600041F601328A1A032A40D8DFE802F0021655
:101770002633426C136823B161B20122BDE81040E8
:10178000184741F60432914224D041F60332914287
:1017900013D041F60232914228D1426C136823B132
:1017A00061B20022BDE81040184741F60432914270
:1017B00010D041F60332914218D13CB1426C92688C
:1017C00022B1904790B12070002010BD41F6043244
:1017D00091420BD16FF0040134B1426CD2681AB15E
:1017E000904718B100212080084610BD6FF004001A
:1017F00010BD00002DE9F0419BB11D4690460F46FB
:1018000006460024706C08EB04024368381941B2A4
:101810003046984728B90434AC42F3D32046BDE89B
:10182000F0810020BDE8F08170B540F20036C2F2D0
:10183000000632680C4605461AB916A006F03CF9B7
:101840003060306898B1002106F03AF900281CBFDA
:101850006FF0FE0070BD30682946224606F0FEF8A3
:1018600031680446084606F0C1F8204670BD4DF2C6
:101870003270C0F6000007F037FD07A007F034FD16
:101880004DF22C70C0F6000007F02EFD6FF02C001A
:1018900070BD00BF7274630043616E6E6F7420662A
:1018A000696E6420612052544320646576696365E3
:1018B0002100000010B5144641F6024291421DD0AD
:1018C00041F6014291420DD0B1F5E05F1ED1426C6C
:1018D00052685AB941F6024291420FD041F6014294
:1018E000914213D1426C536823B112682146BDE87E
:1018F0001040104741F60242914207D1416CC9683D
:1019000021B1884710B12070002010BD6FF0040095
:1019100010BD00002DE9F04193B11D4690460F46E1
:1019200006460024706C08EB0402836839193046BF
:10193000984728B90434AC42F4D32046BDE8F0817E
:101940000020BDE8F081000070B5022803DCBDE88E
:10195000704000F099B90C4649680546A4A009F00A
:101960007FFE08B36168A3A009F07AFEA8B361689E
:10197000A2A009F075FEE0B36168A2A009F070FEB4
:101980000028E4D1032DE2DDA06804F09DF9A668EB
:1019900040F20C350028C2F2000500F09780304676
:1019A000FEF74AFD0646EAE040F20C36C2F20006B7
:1019B000706CA56850B94EF24E204EF28A21C0F6E6
:1019C0000000C0F600019D2205F0F0FA706C8169FC
:1019D000C9B128468847024617E0032DB7DDA06845
:1019E00004F072F9A56890B32846FEF725FD054678
:1019F00086E0A06804F068F9A56880B12846FEF783
:101A00001BFD054642E06FF02C02A168B2F1FF3FDA
:101A100040F3CE8099A0BDE8704007F065BC40F26D
:101A20000C36C2F20006706C50B94EF24E204EF2E7
:101A30008A21C0F60000C0F600019D2205F0B6FA2A
:101A4000706C8169E1B12846884705461AE040F28A
:101A50000C36C2F20006706C50B94EF24E204EF2B7
:101A60008A21C0F60000C0F600019D2205F09EFA12
:101A7000706C816900293ED02846884705463CE0C5
:101A80006FF02C05B5F1FF3F40F3918040F20C342C
:101A9000C2F20004606C50B94EF24E204EF2652145
:101AA000C0F60000C0F60001962205F07FFA606CD7
:101AB0002946826820469047C0B201280CBF5CA02E
:101AC00057A02946BDE8704007F00EBC686C50B9BD
:101AD0004EF24E204EF28A21C0F60000C0F6000100
:101AE0009D2205F063FA686C8169002942D0304676
:101AF0008847064640E06FF02C05B5F1FF3F56DD04
:101B0000E1684FA009F0ACFDB8B1E1684EA009F062
:101B1000A7FDA0B1E1684EA009F0A2FD88B1E1687F
:101B20004FA009F09DFD70B1E16851A009F098FD4A
:101B300000287FF40CAF042406E0002404E0012414
:101B400002E0022400E0032440F20C36C2F2000658
:101B5000706C50B94EF24E204EF27121C0F600006A
:101B6000C0F600018A2205F021FA706C294603684C
:101B7000304639E06FF02C06B6F1FF3F17DDE16823
:101B800022A009F06DFDE8B1E16822A009F068FD2E
:101B9000C0B1E16820A009F063FD30B1E1681FA089
:101BA00009F05EFD00287FF4D2AE00240BE0A168AE
:101BB0004EF2ED00C0F6000007F096FBBDE8704065
:101BC00000F062B80124686C50B94EF24E204EF21B
:101BD0007D21C0F60000C0F60001902205F0E6F974
:101BE000686C3146436828462246BDE87040184775
:101BF0006E756D006D6F6465000000007265616454
:101C00000000000077726974650000006869676809
:101C1000000000006F6E00006C6F77006F6666005A
:101C200070696E5B25645D203D206C6F770A000053
:101C300070696E5B25645D203D20686967680A00F5
:101C40006F75747075740000696E707574000000B3
:101C5000696E7075745F70756C6C75700000000053
:101C6000696E7075745F70756C6C646F776E000070
:101C70006F75747075745F6F640000002573203A8F
:101C80002025640A0000000010B54EF20610C0F6D0
:101C9000000007F029FB4EF29B10C0F6000007F091
:101CA00023FB4EF21910C0F6000007F01DFB4EF2A8
:101CB0001020C0F6000007F017FB4EF26C10C0F6C3
:101CC000000007F011FB16A007F00EFB4EF2CC103F
:101CD000C0F6000007F008FB1BA007F005FB26A0DC
:101CE00007F002FB2CA007F0FFFA40F20C34C2F21E
:101CF0000004606C50B94EF24E204EF28A21C0F6BC
:101D00000000C0F600019D2205F050F9606C816969
:101D1000002908BF10BD23A0BDE81040084700BF40
:101D2000202020202020202020202020202020656E
:101D30002E672E204D5348203E70696E20726561DB
:101D400064204750494F0A002020202020202020D6
:101D500020202020202020652E672E204D53482053
:101D60003E70696E207772697465204750494F2034
:101D7000686967680A000000202020202068656CE0
:101D8000703A2020202020746869732068656C7088
:101D9000206C6973740A00004750494F20652E6714
:101DA0002E3A000020000000B0B50446154640B1B0
:101DB0008DB1606C296803682A7920469847002015
:101DC000B0BD4EF23F20C0F6000004A1372205F05E
:101DD000EDF8002DEDD16FF0FE00B0BD5F70696EC3
:101DE0005F636F6E74726F6C0000000070B51E460A
:101DF0000546144638B94EF23F20C0F6000009A14E
:101E0000162205F0D3F84FF000004CB1082E18BF91
:101E100070BD686C21688268284690472071082050
:101E200070BD00BF5F70696E5F7265616400000025
:101E300070B51E460446154638B94EF23F20C0F62E
:101E4000000009A1262205F0B1F84FF000004DB1C5
:101E5000082E18BF70BD606C296843682A79204637
:101E60009847082070BD00BF5F70696E5F77726928
:101E7000746500002DE9F04182B0164604460191D8
:101E800005F07EFA98B14EF6D8154DF6CE30C0F674
:101E90000005C0F60000294607F026FA4EF69550D8
:101EA000C0F60000294640F2335205F07FF809F0F1
:101EB00067FF98B94EF6D8154DF6F830C0F6000514
:101EC000C0F60000294607F00FFA4EF69550C0F60E
:101ED0000000294640F2335205F068F807F0E2F9B5
:101EE00098B14EF6D8154DF64130C0F60005C0F653
:101EF0000000294607F0F8F94EF69550C0F60000AC
:101F0000294640F2335205F051F85CB94EF6A9105B
:101F10004EF6D811C0F60000C0F6000140F236526D
:101F200005F044F8204607F027FE03280BD04EF6B4
:101F300090204EF6D811C0F60000C0F6000140F225
:101F4000375205F033F809F01BFF054605F020FF76
:101F500040F60810C2F20000016809B12046884727
:101F6000206A0021A842A96210D0C8B1019898B394
:101F7000627A04F1140728463946334609F03EFFD9
:101F800088B3064605F014FF0020BDE0A07F0130B5
:101F9000C1B281421ED005F00BFF6FF02206C0E0F7
:101FA000267F40F2FF10FF2E2562A4F81D0008D006
:101FB000284608F019F8864203D2206A217F00F0F3
:101FC000CDFA55F8780F214641F8240F4160296079
:101FD0004D609AE0A07798E07520A86205F0E8FED1
:101FE0006FF074069DE06846C5F8804007F06AFF10
:101FF000284607F0F9FF617F88420AD20646206A28
:10200000667707F0F1FF864203D2206A314600F07E
:10201000A5FA009808F0AAF80198012809DB05F153
:10202000480601AA304600210AF0C4F830460AF0FA
:10203000EFF905F0BDFE08F0ADF805F0A9FEA96ABC
:10204000206AD9B1A84208D14EF6D81137A0C0F6FF
:1020500000014FF4B76204F0A9FFD5F82880684664
:1020600007F030FF206AB0B107F0BEFF06462846F1
:1020700007F0BAFF361A18BF01260DE0A84208D0B3
:102080004EF6D8112FA0C0F6000140F2B15204F074
:102090008DFF012038E001263868B84203D02C3883
:1020A00007F0A2FF00E0FF2060770EBB266A3046F3
:1020B00007F09EFF56F8781FB1420FD011F8087C48
:1020C00011F8072CC0B2BA4238BF17460968B842A7
:1020D00038BF0746B1423846F0D100E00746206AD3
:1020E00007F082FF874203D0206A394600F036FAB3
:1020F000009808F03BF805F05BFE88EAE8710020E4
:10210000C1EBE876C5F8800058B105F051FE40F605
:102110000410C2F20000016800291CBF2046884755
:102120000026304602B0BDE8F08100BF6D757465D1
:10213000782D3E6F776E657220213D207468726540
:10214000616400006D757465782D3E6F776E657201
:10215000203D3D207468726561640000F0B581B077
:1021600015460446009158B94EF685104EF6CB112F
:10217000C0F60000C0F6000140F2352204F016FF60
:10218000204607F0F9FC02280BD04EF6E7104EF679
:10219000CB11C0F60000C0F6000140F2362204F078
:1021A00005FF40F60810C2F20000016809B12046A0
:1021B000884705F0E5F898B14EF6CB164DF6CE30CF
:1021C000C0F60006C0F60000314607F08DF84EF666
:1021D0009550C0F60000314640F23B2204F0E6FE86
:1021E00009F0CEFD98B94EF6CB164DF6F830C0F694
:1021F0000006C0F60000314607F076F84EF695501E
:10220000C0F60000314640F23B2204F0CFFE07F05A
:1022100049F898B14EF6CB164DF64130C0F600069F
:10222000C0F60000314607F05FF84EF69550C0F654
:102230000000314640F23B2204F0B8FEFDF7C8FF33
:10224000A18B064689B1481EA0833046FDF7C4FF26
:1022500040F60410C2F20000016800291CBF2046AD
:1022600088470025284601B0F0BD009888B109F0E4
:1022700087FD07460B20627AB86204F114013846E4
:102280002B4609F0BBFD50B105463046FDF7A4FFD3
:10229000E8E73046FDF7A0FF6FF07405E2E700982D
:1022A000012809DB07F148056A462846002109F0A4
:1022B00081FF28460AF0ACF83046FDF78DFF07F0A5
:1022C00069FFB86A0028C3D080EAE071C1EBE0750D
:1022D000C8E70000B0B582B040F65400C2F200007A
:1022E000046805F055FD054601A807F0EBFD204602
:1022F00007F0F4FD04F1480009F0E6FF204607F07E
:102300006DFE019807F032FF204609F039FC28469F
:1023100005F070FD07F03EFF02B0B0BD2DE9F041C1
:1023200082B00028019071D040F65406C2F2000637
:1023300034685CB94EF6E2704FF2E101C0F600007D
:10234000C0F6000140F2652204F030FE204607F09E
:1023500013FC01280BD04FF274004FF2E101C0F6DC
:102360000000C0F6000140F2662204F01FFE05F0F6
:1023700007F880B14FF2E105C0F6000533A0294609
:1023800006F0B2FF4EF69550C0F60000294640F226
:10239000692204F00BFE306880B94FF2E105C0F607
:1023A000000535A0294606F09FFF4EF69550C0F671
:1023B0000000294640F2692204F0F8FD06F072FFA1
:1023C00098B14FF2E1054DF64130C0F60005C0F678
:1023D0000000294606F088FF4EF69550C0F6000032
:1023E000294640F2692204F0E1FD0020A06205F0D8
:1023F000CFFC0646204600210022002309F0FEFC07
:10240000054630B1304605F0F5FC1BE06FF00405E1
:1024100018E004F1480701AA384600214FF00008EF
:1024200009F0C8FE384609F0F3FF6FF00A00A06219
:1024300007F0B0FE304605F0DDFCA06A753008BF3D
:10244000C4F82880284602B0BDE8F08146756E6366
:1024500074696F6E5B25735D3A207363686564759C
:102460006C6572206973206E6F7420617661696C8F
:1024700061626C650A00000046756E6374696F6E78
:102480005B25735D207368616C6C206E6F742062D5
:10249000652075736564206265666F72652073637D
:1024A000686564756C65722073746172740A0000EB
:1024B00010B582B0044650B94EF6E2704FF22A11C0
:1024C000C0F60000C0F600017D2204F06FFD20463A
:1024D00007F052FB01280AD04FF274004FF22A1184
:1024E000C0F60000C0F600017E2204F05FFD01A8E6
:1024F00007F0E8FC204607F0C3FD38B94FF22A1177
:102500000CA0C0F60001862204F050FD2146206B8D
:1025100051F82C2F6FF074035060206BA36202609F
:1025200020462163096007F075FC019807F024FE3E
:1025300002B010BD72745F73636865645F74687223
:102540006561645F69735F73757370656E646564FC
:102550002874687265616429000000002DE9F04F5D
:1025600081B0824607F0F0FC10B101B0BDE8F08FF9
:102570004EF66129C0F6000904E000BF6FF0FE00CE
:102580000028F2D1504607F07BFD0028EDD0DAF8A4
:1025900080B0BBF1000FF1D0584607F0EDFA0328E8
:1025A000ECD1574657F82C0F0BF1140879684160AD
:1025B00079687F6008609BF809003F60C0B101281E
:1025C00044461FD12468444512D05046A4F12C053E
:1025D00007F00AFD0646284607F006FD8642F1D2BE
:1025E00060680760CAF830006760CAF82C4012E0E3
:1025F000DBF818000760CAF83000CBF81870CAF88A
:102600002C8008E04EF69550C0F6000049464FF485
:102610008C7204F0CBFCD8F80000404503D02C3875
:1026200007F0E2FC00E0FF20DBF820508BF81D00F3
:10263000284607F0DDFC55F8781FA94210D000BFEE
:1026400011F8086C11F8072CC0B2B24238BF164618
:102650000968B04238BF0646A9423046F0D100E0D2
:102660000646DBF8200007F0BFFC86423FF486AF49
:10267000DBF820A03146504607F066FC00283FF406
:1026800081AF72E7044638B94DF64F40C0F60000FE
:102690001DA13A2204F08AFC04F114054FF0000851
:1026A0000AE000BF09F06CFB022109F051FC304642
:1026B000FDF792FD07F06EFDFDF78AFD27680646DF
:1026C000A742EFD0D7E90001276141607968C7F8D8
:1026D00040800860388AC7E9007720F0010038821E
:1026E0003046FDF779FDD7E9022138469047C4F816
:1026F000108000BF284607F0BBFF7530DCD12846AC
:1027000007F056FFF6E700BF5F776F726B71756574
:1027100075655F7468726561645F656E7472790077
:102720002DE9F04182B002282FDB4F6806460C46A7
:10273000A1A13846FDF71DFE00283FD040F2A43885
:10274000C2F20008D8F80050002D54D09CA13846A1
:10275000FDF70FFE00285ED09BA13846FDF709FE6D
:1027600000287AD09AA13846FDF703FE002800F031
:10277000928099A13846FDF7FCFD002800F0B68054
:102780004DF6BC60C0F6000012E070A006F0ACFD93
:102790004DF6C350C0F6000006F0A6FD4DF64B60A6
:1027A000C0F6000006F0A0FD6BA006F09DFD76A02F
:1027B00006F09AFD002002B0BDE8F081032E25D17D
:1027C000A06805F079F940F2A431C2F20001086076
:1027D0004DF620720028A1684DF66B504DF6187327
:1027E000C0F60002C0F60000C0F6000308BF1A469B
:1027F00006F07AFDDEE74DF6EA60C0F6000006F06E
:1028000073FD6FF0FE0002B0BDE8F0814DF694500C
:10281000C0F60000CCE7032E38D1686C4DF6187670
:102820000768C0F600066FB1A068FDF705FE41B26B
:1028300028460122B8474DF62071C0F60001002855
:1028400008BF0E46A068D8F80050FDF7F5FD024617
:102850004DF67950C0F600003EE0032E41D1A0684D
:10286000FDF7EAFD696C01AA4B6841B2284698471A
:10287000A068019DD8F80060FDF7DEFD02464DF628
:102880002A50C0F6000031462B4627E04DF6F050A6
:10289000C0F600008CE7032E4ED1686C4DF618761A
:1028A0000768C0F600066FB1A068FDF7C5FD41B22C
:1028B00028460022B8474DF62071C0F600010028D6
:1028C00008BF0E46A068D8F80050FDF7B5FD0246D7
:1028D0004DF65050C0F600002946334606F004FD80
:1028E00068E74DF68460C0F6000061E7032E28D14A
:1028F000A068FDF7A1FD41B2284604F013FBA168D2
:10290000D8F8005004460846FDF796FD44F6D35229
:1029100021B2C1F2620251FB02F2931103EBD273B6
:102920004FF47A7203FB121702464DF60650C0F6BA
:10293000000029460097D1E74DF61D60C0F6000063
:1029400036E74DF6E640C0F6000031E755736167A3
:10295000653A200A000000006164632064697361C5
:10296000626C65203C6368616E6E656C3E20202061
:102970002D2064697361626C652061646320636803
:10298000616E6E656C0A000061646320656E616251
:102990006C65203C6368616E6E656C3E2020202073
:1029A0002D20656E61626C652061646320636861DF
:1029B0006E6E656C0A00000070726F626500000048
:1029C000656E61626C650000726561640000000004
:1029D00064697361626C6500766F6C746167650031
:1029E000F0B581B0002800F0B2800C46002900F05C
:1029F000AE800546204600211A2206F0C3FD4DF2A6
:102A00007276C0F60006304608F056FEA969B0EBB3
:102A1000810F40F3A1804DF24177C0F600073846A0
:102A200008F04AFE2969B0EB810F40F39580A86950
:102A300056F820002060286957F820006060E96897
:102A400046F26760C6F2666051FB00F2931003EB3A
:102A5000D27202F13003237202EB8203A1EB430135
:102A600030311206617204BF202121722021A1722F
:102A7000AA6852FB00F39F1007EBD37303F13007F2
:102A800003EB8303A2EB4302303222733A22E77254
:102A900062736B68227453FB00F7BE1006EBD777A6
:102AA00007F1300607EB8707A3EB47033033A67324
:102AB000E3732A68E17452FB00F39F1007EBD373B2
:102AC00003F1300703EB8303A2EB43023032677458
:102AD000A274696948F21F5201F26C71C5F2EB12DF
:102AE00051FB02F35F1107EBD37344F6D357C1F2E6
:102AF000620751FB07F18F0907EBD1713031217566
:102B000053FB00F18F0807EBD17101EB8101A3EBBF
:102B1000410130316175696901F26C7151FB02F25A
:102B2000531103EBD272642302FB131151FB00F02B
:102B3000821002EBD07000F1300200EB8000A1EBBC
:102B400040003030E0750A20A275208375E0152022
:102B500008F0ECFA002470E04DF23270C0F600008C
:102B600006F0C2FB4DF28F70C0F6000006F0BCFB11
:102B70004DF22C70C0F6000006F0B6FB47F2535041
:102B800046F24A11C2F26E00C2F26E01C4E90001BF
:102B9000E96846F26760C6F2666051FB00F2931086
:102BA00003EBD27202F13003237202EB8203A1EB3A
:102BB000430130311206617204BF202121722021AD
:102BC000A172A96851FB00F2931003EBD27202F1DB
:102BD000300302EB8202A1EB4201303121733A2132
:102BE000E37261736A68217452FB00F39F1007EB74
:102BF000D37303F1300703EB8303A2EB43023032BC
:102C0000A773E273296851FB00F0821002EBD070C9
:102C100000F1300200EB8000A1EB40003030A074E6
:102C200043F22020C3F23000C4F813004FF42360B5
:102C3000A4F81700002062746076204601B0F0BD51
:102C400080B502A006F050FB002080BD1B5B324A1D
:102C50001B5B4800B0B582B002280FD001282AD1F2
:102C600009F08EF801464EF60A30C0F6000006F074
:102C70003BFB02B0BDE8B04004F0BCB948680C466C
:102C800001A90022FDF79FFB019A61688A421BD0CF
:102C90000546B0B1284606F06FFF012811D16368E0
:102CA0000CA029462A4606F01FFB284602B0BDE8C4
:102CB000B04004F0D1B919A002B0BDE8B04006F0B0
:102CC00013BB0CA0294600E00FA002B0BDE8B04045
:102CD00006F00ABB6261636B7472616365202573E1
:102CE000283078256C78292C2066726F6D2025732A
:102CF0000A000000496E76616C6964207069643A6C
:102D000020256C640A000000496E76616C696420BD
:102D1000696E7075743A2025730A0000706C6561E5
:102D20007365207573653A206261636B74726163C9
:102D300065205B7468726561645F61646472657369
:102D4000735D0A00B0B590B002280D4647DB686895
:102D500004F0B2FE6968044600284ED032A006F0A6
:102D6000C3FA01AA2046172104F078FEDDE901121A
:102D70004DF63510C0F6000006F0B6FADDE908128F
:102D80004DF67810C0F6000006F0AEFADDE90A1242
:102D90004DF6F200C0F6000006F0A6FA039A0C9970
:102DA00028A006F0A1FA0398072805D833A151F806
:102DB00020103AA006F098FADDE904124DF6AE00B4
:102DC000C0F6000006F090FADDE9060211184DF297
:102DD000D470C0F6000006F087FA5CB915E02968E7
:102DE0000CA006F081FA29684DF61900C0F6000023
:102DF00006F07AFA002010B0B0BD4DF66B00C0F6B8
:102E0000000006F071FA002CF4D14FF0FF3010B042
:102E1000B0BD00BF20496E76616C69642043616C6F
:102E20006C2025730A00000020466F756E642063D5
:102E3000616E206465766963653A2025732E2E2EB7
:102E4000000000000A204352432E2E2E2E2E2E2E3E
:102E50006572726F722E2E636F756E743A20253014
:102E600031306C642E204572726F722E636F646510
:102E70002E5B253031306C645D3A2000A4D8000808
:102E80009AD8000886D8000886D8000890D800088C
:102E900090D8000890D8000890D8000825732E001C
:102EA00080B584B000200390CDE9010003A802A9F9
:102EB00001AA06F00BFB039909A006F015FA029986
:102EC0000BA006F011FA01990DA006F00DFADDE94C
:102ED0000210411A0EA006F007FA002004B080BDCF
:102EE000746F74616C202020203A2025640A000051
:102EF0007573656420202020203A2025640A000094
:102F00006D6178696D756D20203A2025640A000096
:102F1000617661696C61626C653A2025640A000023
:102F200080B5022814D140F24012C2F20002022001
:102F300002F07EFD013809280AD8DFE800F0051705
:102F40001B1F23272B2F333702F0BEFA002080BD32
:102F500018A006F0C9F91DA006F0C6F940F240100D
:102F6000C2F2000002F0CAFF002080BD02F0F4F9B6
:102F7000002080BD02F010F9002080BD01F056FD58
:102F8000002080BD01F010FE002080BD02F04AF854
:102F9000002080BD01F0CEFE002080BD01F076FF54
:102FA000002080BD01F09CFC002080BD02F0A4FB4D
:102FB000002080BD55736167653A206C6973742089
:102FC0005B6F7074696F6E735D0A00005B6F707485
:102FD000696F6E735D3A0A0080B502F075FA0020E1
:102FE00080BD000080B582B040F20C01C2F2000149
:102FF00000680968084440F288710190C2F200013B
:1030000001A800F0F5FE40F2F431C2F20001FFF732
:10301000E7FC02B080BD00002DE9F04182B002283B
:103020002ADB4F6806460C4691A13846FDF7A1F908
:10303000D8B340F21048C2F20008D8F80050002D72
:1030400050D08DA13846FDF794F900285AD08CA1B4
:103050003846FDF78EF9002875D04EF2E501C0F62E
:1030600000013846FDF785F9002800F094804EF203
:103070008C00C0F6000012E05EA006F035F94DF6B7
:103080004E70C0F6000006F02FF94EF24B00C0F66D
:10309000000006F029F95AA006F026F966A006F00D
:1030A00023F9002002B0BDE8F081032E25D1A068ED
:1030B00004F002FD40F21041C2F2000108604DF63A
:1030C00020720028A1684DF66B504DF61873C0F6BB
:1030D0000002C0F60000C0F6000308BF1A4606F062
:1030E00003F9DEE74EF2BA00C0F6000006F0FCF885
:1030F0006FF0FE0002B0BDE8F0814DF68270C0F6C0
:103100000000CCE7032E41D1686C4DF61876476875
:10311000C0F6000667B1A068FDF78EF901462846A3
:10312000B8474DF62071C0F60001002808BF0E46D2
:10313000A068D8F80050FDF77FF902464DF67950A7
:10314000C0F6000047E0042E4AD1A068FDF774F9EC
:10315000E16806460846FDF76FF9696C01908B68D7
:1031600001AA284631469847A068D8F80050FDF7D4
:1031700063F9E16804460846FDF75EF903464DF63B
:103180002C70C0F600002946224626E04DF6AE70AF
:10319000C0F6000083E7032E27D1686C4DF6187641
:1031A0000768C0F6000667B1A068FDF745F901465B
:1031B0002846B8474DF62071C0F60001002808BF28
:1031C0000E46A068D8F80050FDF736F902464DF6D5
:1031D0005050C0F600002946334606F085F860E7F7
:1031E0004EF20900C0F6000059E74DF6DB70C0F65C
:1031F000000054E755736167653A200A000000003B
:103200006461632064697361626C65203C6368611A
:103210006E6E656C3E202020202020202020202D56
:103220002064697361626C65206461632063686116
:103230006E6E656C0A00000064616320656E6162F9
:103240006C65203C6368616E6E656C3E20202020BA
:10325000202020202020202D20656E61626C6520BA
:10326000646163206368616E6E656C0A0000000033
:1032700070726F6265000000656E61626C650000CF
:1032800077726974650000002DE9F0438FB00C4639
:10329000002101280E9145D1CDE9021109F0AEF9C6
:1032A000044602A8002100F077FD029825460E9002
:1032B0000EA8002C48BF6542FFF794FE02464EF26E
:1032C0009B30C0F60000192106F00EF802994EF26C
:1032D0007C30C0F6000006F007F84BF2C530C9F2AA
:1032E000A210A5FB0001CA0A4FF4616002FB105056
:1032F00048F68901C8F68801A0FB01177B091E0169
:10330000A6EB5717A0EB87074EF25D302D21C0F6D4
:103310000000002CC8BF2B21009705F0E5FF0FB07F
:10332000BDE8F083072830DB02A82C21FCF7F9FF69
:10333000606800210191FDF77FF80546A0F26C71ED
:10334000A0680791FDF778F80646411EE0680691EF
:10335000FDF772F8074620690597FDF76DF880467E
:103360006069CDF81080FDF767F88146A069CDF857
:103370000C90FDF761F840F26C718D4202900DDC0B
:103380004EF29520C0F600001EE034A005F0ACFF20
:1033900041A00FB0BDE8F04305F0A6BF0D2E04DB41
:1033A0004EF2EE20C0F600000EE04FB1202F07DAFB
:1033B000B8F1180F0DDB4EF20C30C0F6000003E040
:1033C0004EF2D220C0F6000005F08EFF0FB0BDE82F
:1033D000F083B9F13C0F04DB4EF22930C0F6000057
:1033E000F2E73D2804DB4EF2B320C0F60000EBE725
:1033F00001A800F0B5FC10B1014631A00BE002A815
:1034000002F084FA0E9009F021FC48B101464EF218
:103410004830C0F6000005F067FF0FB0BDE8F0834C
:103420000EAC204600F09CFC01A8FFF7DBFD024635
:103430004EF29130C0F60000192105F055FF2046EC
:10344000FFF7D0FD02464EF2AC30C0F60000192165
:1034500005F04AFF0FB0BDE8F08300BF706C6561F6
:10346000736520696E7075743A2064617465205BC1
:1034700079656172206D6F6E74682064617920686F
:103480006F7572206D696E207365635D206F7220A9
:10349000646174650A000000652E673A20646174F7
:1034A0006520323031382030312030312032332025
:1034B0003539203539206F7220646174650A000047
:1034C0004765742063757272656E742074696D65EA
:1034D0007374616D70206661696C65642E2025646B
:1034E0000A00000070B582B040F6A026C2F20006C5
:1034F000306800218DF8071038B94EF6F500C0F697
:10350000000019A1A82203F051FD3068D0F8144240
:1035100034B30DF1070220464FF0FF31012304F0D0
:103520007BFB012803D19DF8070002B070BD0DF1AF
:10353000070508E020464FF0FF312A46012304F03A
:103540006BFB0128EFD030684FF0FF3107F08CF8AB
:103550003068D0F81402A042ECD000280446E9D12B
:103560004FF0FF3002B070BD66696E73685F6765CB
:10357000746368617200000010B540F6A024C2F2C6
:103580000004206838B94EF6F500C0F6000004A12A
:10359000C72203F00BFD206807F00AF8002010BDD9
:1035A00066696E73685F72785F696E640000000020
:1035B00070B540F6A026C2F200063168054639B95A
:1035C0004EF6F500C0F600001FA1DA2203F0EEFC73
:1035D000284604F071FA78B304463068D0F8140233
:1035E00084422FD0204640F2431104F069FA0028AB
:1035F00018BF70BD3068D0F8140238B104F0F6F985
:1036000030680021D0F8140204F05EFB306800211D
:1036100000F5DF705122002505F0B4FF326843F257
:103620007951C2F81052C0F600012046C2F8144287
:10363000BDE8704004F048BB08A02946BDE87040D2
:1036400005F052BE70BD00BF66696E73685F73653A
:10365000745F6465766963650000000066696E7377
:10366000683A2063616E206E6F742066696E642014
:103670006465766963653A2025730A00B0B582B047
:1036800040F290304FF21841C2F20000C0F6000143
:10369000016040F294304FF2D841C2F20000C0F60F
:1036A0000001016001204FF4067103F007FD40F6B0
:1036B000A025C2F20005286080B3142043F25571A2
:1036C0000A24009019A0C0F6000100224FF4805394
:1036D000019408F0EBF92A68044616A1104600226E
:1036E000002306F01DFF286850B94EF6F5004EF68F
:1036F0000911C0F60000C0F60001942203F056FC48
:10370000286890F8291041F0020180F8291014B1BE
:10371000204608F03BFB002002B0B0BD07A005F03A
:10372000E3FD4FF0FF3002B0B0BD00BF74736865B9
:103730006C6C000073687278000000006E6F206D82
:10374000656D6F727920666F72207368656C6C0AA4
:103750000000000040F20830C2F2000000680028BB
:1037600018BF804740F6A02BC2F2000BDBF8000028
:1037700090F82910D0F8142241F0010180F82910A6
:103780002AB903F0DDFD002818BFFFF711FFDBF8B1
:10379000000040F2AC4490F82900C2F20004800717
:1037A000204628D540F23050C2F20000016839B1FD
:1037B00040F2AC40C2F200008022FCF7BDFD06E002
:1037C0000020207147F26D30C2F26800206040F2A4
:1037D000AC45C2F20005284607F06EFF02307F2894
:1037E0000BD8284607F068FF3E212954284607F0E9
:1037F00063FF2844013000210170204605F074FD6C
:103800004EF6F30601274FF0000AC0F6000601E06D
:1038100088F82870FFF766FE0028FBD4DBF80080EC
:1038200081461B28F4D098F8280002280AD00128E5
:1038300040F05F80B9F15B0F40F05980022088F8BA
:103840002800E7E7B9F1440F88F828A000F290803B
:10385000DFE819F04500950095009500950095006A
:1038600095009500D50017015C00950095005C005F
:1038700095009500950095009500950095009500A0
:103880009500950095009500950095009500950090
:103890009500950095009500950095009500950080
:1038A0009500950095009500950095009500950070
:1038B0009500950095009500950095009500950060
:1038C0009500950095009500950095009500950050
:1038D0009500950095004600FA0103021B0299E746
:1038E000B8F82A00002800F02F82411E10E288F864
:1038F00028A0B9F10D0F3BD8DFE809F0074141419D
:103900004141414181C30841410883E7B8F81002B1
:10391000002800F01781B8F82C50052DC0F0E58084
:1039200008F5B77508F5DF77284639465022FCF7C9
:103930002EFD002800F006814FF6C064CFF6FF741C
:1039400008EB040101F5B77001F5DF71502205F0B5
:1039500061FD5034F4D128460021502205F012FEBA
:10396000B8F810222846394605F054FD0520E3E05A
:10397000B9F17F0F43D0B9F1FF0F3FF44BAFB8F867
:103980001002502828BFA8F810A2B8F81232B8F8D0
:1039900010229A4240F2018108EB030101F2BF10AC
:1039A00001F5DF71D21A05F073FDDBF80000B0F805
:1039B0001212084480F8BE91DBF8000090F829103C
:1039C000C90707D0B0F81212084400F5DF71E3A070
:1039D00005F08AFCDBF80000B0F81252B0F81002D3
:1039E000854280F0EB8000BF304605F07DFCDBF8BF
:1039F00000000135B0F810028542F5D3DEE0B8F8DA
:103A0000120200283FF406AFB8F81012013801394D
:103A10008AB283B29A42A8F81012A8F8120240F2B1
:103A2000DF8018FA80F101F5DF7001F2BF11D21AC0
:103A300005F02EFDDBF80000B0F81012084480F805
:103A4000BEA1DBF80000B0F81212084400F5DF71E7
:103A5000C0A005F049FCDBF80010B1F81202B1F883
:103A6000101288423FF6D6AE451E00BF304605F024
:103A70003BFCDBF800000135B0F810028542F5D3BD
:103A8000C8E6DBF80000B0F8121259B1002500BFFB
:103A9000304605F029FCDBF800000135B0F81212C1
:103AA0008D42F5D300F5DF754EF28960C0F6000057
:103AB00005F01AFC284601F033FF284602F024F9ED
:103AC000DBF8000090F829008007204640F10481CF
:103AD00040F23050C2F200000168002900F0E58099
:103AE00020468022FCF728FCE6E055B105EB850076
:103AF00008EB0010223808F5DF715022FCF747FC74
:103B000000B305EB850008F12E0404EB0010002142
:103B10005022A8F82A5005F035FDB8F82C00B8F866
:103B2000102200EB800004EB001008F5DF7105F0B7
:103B300071FCB8F82C00013040F2AC44C2F2000431
:103B4000A8F82C00B8F82C00DBF80010A8F82A0020
:103B500091F82900C00705D04EF28960C0F6000038
:103B600005F0C2FBDBF80000B0F8101200F5DF70C2
:103B700001F07AFFDBF80000012790F829008007A8
:103B800020464FD540F23050C2F20000016891B398
:103B900020468022FCF7D0FB34E008EB020080F8DE
:103BA000BE91DBF8000090F82900C00706D04EF661
:103BB0000610C0F60000494605F096FBDBF8000051
:103BC000B0F81012B0F812220131A0F8101289B228
:103BD00001325029A0F8122228BFC0F810A219E61D
:103BE0005BA005F081FBDBF80000B0F81012084480
:103BF00080F8BEA10EE647F26D30C2F2680084F88C
:103C000004A02060204607F057FD02307F280BD823
:103C1000204607F051FD3E212154204607F04CFD7F
:103C20002044013080F800A0204605F05DFBDBF861
:103C30000000002100F5DF70512205F0A3FCDBF845
:103C40000000C0F810A2E5E5B8F82C00B8F82A206A
:103C5000411E914259DD511C5AE0B8F81202B8F8E1
:103C600010128842BFF4D6AD404490F8BE114EF613
:103C70000610C0F6000005F037FBDBF80000B0F8D6
:103C800012120131A0F81212C4E5B8F8120200288D
:103C90003FF4C0AD304605F027FBDBF80000B0F87C
:103CA00012120139A0F81212B4E547F26D30C2F2D7
:103CB000680084F804A02060204607F0FDFC023074
:103CC0007F280BD8204607F0F7FC3E2121542046E0
:103CD00007F0F2FC2044013080F800A04EF61F10DF
:103CE000C0F6000021462A4605F0FEFADBF8004047
:103CF00004F5DF70FCF736FBA4F81002A4F81202FA
:103D000040F2AC44C2F2000484E500283FF482ADE6
:103D10008AB29200A8F82A1012FA81F108EB011178
:103D200008F5DF702E31502205F074FBDBF80050EF
:103D300005F5DF70FCF716FBA5F81002A5F81202D6
:103D4000284608F0A1FF65E5A8F82AA062E500BFB3
:103D500008200800082573202008000025730000B3
:103D6000B0B540F28835C2F200052968044639B979
:103D70004EF28D30C0F6000003F09EFE286038B190
:103D8000286840F201612246BDE8B04003F066BEFB
:103D90006FF0FE00B0BD0000B0B5044679B1002060
:103DA000486040F20C00C2F2000000684FF0773229
:103DB00050FB02F2101A421102EBD070086074B18D
:103DC000002540F203602146C4E90055FDF72CFDB3
:103DD00050B140F201602146FDF726FD30B10520CB
:103DE00007F0A4F94FF0FF352846B0BD0020B0BD64
:103DF0002DE9F041002800F084800C46002900F0F5
:103E000080800546204600212C22002605F0BAFBC2
:103E1000286844F2075CCCF22E2CA0FB0C231A0C71
:103E200040F2A3235A43A0EBC21048F68902C8F619
:103E30008802A0FB02377B09A3FB02214BF2C532AB
:103E4000C9F2A212A0FB022E1A01A2EB5712A0EB9C
:103E500082004A091201A2EB5111A3EB81014FEA42
:103E6000DE2284E80700286844F62512A0FB0C0136
:103E7000042000EB1140C2F29242A0FB02270B0C7F
:103E8000C11B07EB51018A08D200A2EB910148F255
:103E90001F5C401A40F2B27540F2B171C5F2EB1CE2
:103EA0004FF4C87E4FF06408A06123E0A5FB0C022C
:103EB000D00900FB0EF0A0F2B270520902FB08F22A
:103EC000801BA2F2B272B0FA80F0921B4FEA50103F
:103ED00018BF0122104300284FF4B77208BF40F208
:103EE0006D12981AB8BF1846013501310136934258
:103EF00003460CDB06F2B27010F00307D6D00020A8
:103F0000E9E7152007F012F90020BDE8F08106F17D
:103F1000450262610122E061E26017B10021B1B99E
:103F20001CE0A1FB0C12510964235943D2094FF440
:103F3000C8735A43921BA1F2B171A2F2B172891BEC
:103F4000B2FA82F218BF01215209114331B13B2864
:103F500004DBA0F1010004BF0221E1604DF21A026E
:103F60000B21C0F6000200BF32F91130984202DA8C
:103F70000139F9D10021216132F91110E268401AAA
:103F80001044E060002020622046BDE8F08100007F
:103F90002DE9F04F89B0002A04911146039200F0F8
:103FA00049828246D0F8880000240290CDF820A0F3
:103FB0000BE00025059F069CB8888542C0F23E8232
:103FC00003980134844200F03782049904EB4400E2
:103FD00001EB8007BA463AF8028F06945FEAC860A0
:103FE00000F1C7801CB1029800F01AFB0DE0029CA2
:103FF0000021D4E900029047D4E9051001304008BF
:1040000088472068A268002190477C88089814F0AF
:104010002005D0F888B00CBFD0F884600026B7F82F
:104020000090600710D4002E20D404F0010040EA74
:1040300049000795C5B20898294600F06DFB012894
:104040001CD1012039E000BF0620002E00EAD91063
:1040500001900FD460F00F000795C5B2089829466B
:1040600000F05AFB01282ED101204FE0002001284A
:1040700026D175E0002001284BD153E0EEB100BFFE
:10408000584600F00BFBDBE905108847DBE900022E
:1040900000219047DBE90510013040088847DBF834
:1040A0000000DBF80820002190470898294600F01E
:1040B00033FB0128C5D0013EE2D1079D01284FD036
:1040C000002D46D04CE005973746F6B1584600F033
:1040D000E5FADBE905108847DBE90002002190479B
:1040E000DBE90510013040088847DBF80000DBF809
:1040F0000820002190470898294600F00DFB012870
:1041000002D0013FE2D100E00120059F079D012878
:1041100008D03DB94DF6C920C0F6000005F0E4F81E
:10412000D1A00EE008985FFA89F100F0F5FA0128B5
:1041300013D095B94DF6C920C0F6000005F0D4F8AB
:10414000D0A005F0D1F84DF22C70C0F6000005F0BB
:10415000CBF86FF00B05002004E0E00740F026816B
:1041600000250120069C002808BF18F0200000F060
:104170007181BAF80000B7F804B0C00738D1DDF893
:1041800020A0BBF1000F00F000817888BE6800F02D
:104190002008B9465F4604E0013F06F1010600F041
:1041A000F780317844465046B8F1000F18BF01241B
:1041B00000F0B2FA0028EFDC0546B0FA80F04009C2
:1041C0002040E9D1069C002D00F0E8804DF6BB2090
:1041D000C0F6000005F088F8BEA0294605F084F876
:1041E0004DF22C70C0F6000005F07EF8AB46D7E02B
:1041F000DDF820A0BBF1000F05973FF4DAAE788818
:10420000D7F8089000F0400000275E46079011E0C4
:10421000D4E905100130400888472068A2680021D1
:10422000002490470025002C7FF4C4AE01375F4581
:1042300000F0B280DAF888800121D8E900029047C6
:10424000D8E9051001304008884700244FF0000AE3
:104250001EE000BFD8E9051064000130400888471F
:10426000D8F80000D8F80C108847002818BF0120A3
:10427000D8F80010D8F808200443084600219047D9
:10428000D8E905108847BAF1070F0AF1010A64D28C
:10429000D8F80000D8F8082001219047D8F810007D
:1042A0000028D7D007F078FED8F80010D8F81020F2
:1042B0000546084690470028CCD100BF07F06CFEA9
:1042C000D8F81C10401B88420CD8D8E905100130E2
:1042D00040088847D8F80000D8F810108847002810
:1042E000ECD0B7E76FF07400DDF820A0002851D4BF
:1042F00009F8010B0798013E002897D1DAF88840A9
:104300001EB1D4E9000200219047D4E90510013024
:10431000400888472068A26801219047206900284A
:104320003FF476AF07F038FE21682269054608465B
:10433000904700287FF46CAF07F02EFEE169401B28
:1043400088420CD8D4E9051001304008884720681D
:10435000216988470028EFD05AE7E0B2C4E74DF65C
:10436000BB20C0F6000004F0BFFF54A004F0BCFF67
:104370004DF22C70C0F6000004F0B6FF6FF074052B
:104380000124002C3FF452AF14E64FF0000B08E07C
:10439000069C05E03D460DE65D460BE64FF0000B42
:1043A0004F46B8888345BFF60BAE4DE0584600F047
:1043B00037F9002E0FD40199089861F00E015FFAC9
:1043C00081FB2C46D0F88850594600F0A5F9012809
:1043D00005D101201FE00020012820D1C0E6D6B180
:1043E000284600F05BF9D5E905108847D5E90002B9
:1043F00000219047D5E9051001304008884728681A
:10440000AA68002190470898594600F085F90128CC
:10441000DFD0013EE4D1254601283FF4A1AE002DB6
:104420007FF49EAE4DF6BB20C0F6000004F05CFFAA
:104430001BA086E6002513E0039D0BE0B5F1FF3FCE
:10444000C8BF6FF00B0505E0BBF1FF3FC8BF6FF0C1
:10445000FE0B5D467888000602D4029800F01EF933
:10446000284609B0BDE8F08F4E41434B3A207365B2
:104470006E64696E67206669727374206164647229
:10448000000000004E41434B3A2073656E64696E34
:1044900067207365636F6E6420616464720000005E
:1044A0004E41434B3A2073656E64696E67207265B6
:1044B00070656174656420616464720041434B20DF
:1044C0006F72204E41434B2074696D656F75742E79
:1044D0000000000073656E642062797465733A2091
:1044E0006572726F722025640000000070B5046C64
:1044F00015460E463CB94DF60930C0F6000018A12D
:10450000472202F053FD40F6041086420FD040F6D9
:104510000310864214D040F60110864215D1B4F83B
:10452000480040F00400A4F84800002070BDD5E920
:104530000012204604F066FE00280DD4002070BD55
:104540002868C4F88000002070BD204631462A4605
:10455000BDE8704004F09ABD6FF00B0070BD00BF65
:104560006932635F6275735F6465766963655F6313
:104570006F6E74726F6C0000F0B581B0066C1C46F3
:1045800015460F464EB1ADB13A0CB9B230462B4686
:10459000009404F097FD01B0F0BD4DF609304DF6E2
:1045A0001831C0F60000C0F60001202202F0FEFC27
:1045B000002DE9D14DF6F7204DF61831C0F6000078
:1045C000C0F60001212202F0F1FCDDE7F0B581B078
:1045D000066C1C4615460F464EB1ADB13A0CB9B249
:1045E00030462B46009404F0CDFD01B0F0BD4DF6F1
:1045F00009304DF62C31C0F60000C0F6000134221F
:1046000002F0D4FC002DE9D14DF6F7204DF62C3107
:10461000C0F60000C0F60001352202F0C7FCDDE75D
:10462000B0B5044600686268012190472068A2681E
:10463000012190472069B8B107F0AEFC21682269DA
:1046400005460846904778B907F0A6FCE169401B8B
:1046500088420ED8D4E90510013040088847206808
:10466000216988470028EFD0D4E9051001304008BF
:104670008847D4E90510013040088847D4E9000292
:1046800000219047D4E90510013040088847206890
:10469000A2680021BDE8B04010470000B0B5044654
:1046A0000068626800219047D4E905100130400895
:1046B00088472068A268012190472069C0B107F0AF
:1046C0006BFC2168226905460846904780B900BF07
:1046D00007F062FCE169401B88420ED8D4E905105E
:1046E0000130400888472068216988470028EFD0BA
:1046F000D4E90510013040088847D4E9051001309D
:1047000040088847D4E9000201219047D4E9051008
:10471000BDE8B04008470000F0B581B0D0F888602F
:104720000C46072709E000BFD6E905100130400814
:104730008847002FA7F1010736D03068B268002102
:10474000904724FA07F1D6E9000201F001019047F1
:10475000D6E905100130400888473068B268012169
:10476000904730690028DFD007F016FC31683269C5
:104770000546084690470028D6D100BF07F00CFC3C
:10478000F169401B88420AD8D6E90510013040087B
:1047900088473068316988470028EFD0C4E76FF058
:1047A0007404204601B0F0BD3068B2680021904723
:1047B000D6E90510013040088847D6E900020121FA
:1047C0009047D6E905100130400888473068B26844
:1047D000012190473069B8B107F0DEFB31683269DA
:1047E00004460846904778B907F0D6FBF169001BEC
:1047F000884219D8D6E9051001304008884730684A
:10480000316988470028EFD0D6E90510013040080B
:1048100088473068F1688847B0FA80F13068B2683C
:104820004C0900219047BCE74DF6C920C0F60000B6
:1048300004F05AFD05A004F057FD4DF22C70C0F6AF
:10484000000004F051FD6FF07404AAE77761697409
:104850002061636B2074696D656F757400000000E2
:1048600040F2E05840F230170024C2F20008C2F2D1
:10487000000700E0002458F82400002818BF8047F3
:104880000134042CF7D100BF3D68BD420ED0A5F124
:104890002C04FBF79DFCD5E900124A606A681160A0
:1048A000C5E90055FBF798FC1CB9E3E70024002C90
:1048B000E0D0666F204605F0E3F90546012802D1F5
:1048C000204605F0AFF80EB12046B047002DDBD1F1
:1048D000206A03F0F5FA204605F034F8D4E700002A
:1048E0002DE9F04F8BB0092005F032F94EF2EA7352
:1048F000044634A0C0F600030821082204F0F4FCAA
:104900004EF2A1656FF00706C0F60005284604F0D8
:10491000EBFC0136FAD335A004F1040A04F0E4FC00
:1049200000270DF10C0B01E0002F47D03C46002F73
:1049300008BF5746FBF74CFC54B900243F68574565
:104940000DD04BF824700134082CF7D1082407E06F
:1049500017F8041C01F07F010929EED0002400277C
:10496000FBF73AFC012CDFDB5E460EE098F80E50B8
:10497000A8F10C03009028A008210822019504F05A
:10498000B3FC013C06F10406CED0D6F80080FBF75C
:104990001FFC18F8041C01F07F09FBF71DFCB9F19E
:1049A000090FEED198F8081019A01E29DED84DF293
:1049B0006000C0F6000050F82100D7E700200BB0DF
:1049C000BDE8F08F252D2A2E2A73202020202020BC
:1049D0002020207479706520202020202020202095
:1049E00072656620636F756E740A0000202D2D2D90
:1049F0002D2D2D2D2D2D2D2D2D2D2D2D2D2D2D2DE7
:104A00002D202D2D2D2D2D2D2D2D2D2D0A0000008D
:104A1000556E6B6E6F776E00252D2A2E2A7320251A
:104A20002D32307320252D38640A00002DE9F04F17
:104A30008BB0042005F08CF84EF6DF0304463EA050
:104A4000C0F600030821082204F04EFC4EF2A165D6
:104A50006FF00706C0F60005284604F045FC013655
:104A6000FAD33EA004F1040B04F03EFC4EF2896A36
:104A700000260DF10C09C0F6000A01E0002E56D008
:104A80003446002E08BF5E46FBF7A2FB54B9002453
:104A900036685E450DD049F824600134082CF7D102
:104AA000082407E016F8041C01F07F010429EED069
:104AB00000240026FBF790FB012CDFDB4FF0000801
:104AC0000AE034A008210822CDF800C004F00CFC54
:104AD00008F10108A045D1D059F82870FBF778FB00
:104AE00017F8041C01F07F05FBF776FB042DEFD1CE
:104AF000A7F10C0357F8080FD7F808C0B842E0D068
:104B00004FF0FF35384600BF00680135B842FBD191
:104B10001AA008210822CDF800C0019504F0E4FB9A
:104B2000384606F06DFE504604F0DEFBD0E700206C
:104B30000BB0BDE8F08F00BF252D2A2E2A73202050
:104B400020202020736574202020207375737065E9
:104B50006E64207468726561640A000020202D2D47
:104B60002D2D2D2D2D2D2D2D202D2D2D2D2D2D2D82
:104B70002D2D2D2D2D2D2D0A00000000252D2A2E46
:104B80002A73202030782530387820253033643A55
:104B900000000000252D2A2E2A7320203078253091
:104BA000387820300A0000002DE9F04F8BB0052046
:104BB00004F0CEFF4EF6EB03044642A0C0F600031D
:104BC0000821082204F090FB4EF2A1656FF0070661
:104BD000C0F60005284604F087FB0136FAD342A050
:104BE00004F1040B04F080FB4EF2896A00260DF1FB
:104BF0000C09C0F6000A01E0002E5ED03446002EFB
:104C000008BF5E46FBF7E4FA54B9002436685E45F7
:104C10000DD049F824600134082CF7D1082407E0AE
:104C200016F8041C01F07F010529EED000240026AF
:104C3000FBF7D2FA012CDFDB4FF0000804E000BFE5
:104C400008F10108A045D7D059F82870FBF7C0FA41
:104C500017F8041C01F07F05FBF7BEFA052DEFD114
:104C6000A7F10C0357F8082F4FF0FF35F989B889E1
:104C7000BA4214D03A4600BF12680135BA42FBD19D
:104C8000CDE900101FA008210822029504F02CFB9A
:104C9000384606F0B5FD504604F026FBD0E73A460C
:104CA00012680135BA42FBD1CDE900101BA00821E2
:104CB0000822029504F018FBC2E700200BB0BDE803
:104CC000F08F00BF252D2A2E2A7320656E7472790D
:104CD0002073697A652073757370656E64207468DB
:104CE000726561640A000000202D2D2D2D20202DDD
:104CF0002D2D2D202D2D2D2D2D2D2D2D2D2D2D2DF1
:104D00002D2D0A00252D2A2E2A73202530346420CB
:104D100020253034642025643A000000252D2A2EF9
:104D20002A73202530346420202530346420256403
:104D30000A0000002DE9F04F8BB0072004F008FFB7
:104D40004EF60B03044632A0C0F6000308210822E9
:104D500004F0CAFA4EF2A1656FF00706C0F600052E
:104D6000284604F0C1FA0136FAD336A004F1040A49
:104D700004F0BAFA00240DF10C090FF2F40801E076
:104D8000002C40D02546002C08BF5446FBF720FAE3
:104D900055B90027246854450DD049F827400137FC
:104DA000082FF7D1082707E014F8041C01F07F0151
:104DB0000729EED000270024FBF70EFA012FDFDBD6
:104DC0004E4614E0A5F10C0BFBF706FAD5E9030CEF
:104DD00069690822CDE90001404608215B46CDF80B
:104DE00008C004F081FA013F06F10406C8D0356816
:104DF000FBF7EEF915F8041C01F07F010729E1D05B
:104E0000FBF7EAF9EFE700200BB0BDE8F08F00BF39
:104E1000252D2A2E2A732020706F6F6C2073697ADB
:104E20006520206D617820757365642073697A65EB
:104E300020617661696C61626C652073697A650ACC
:104E400000000000202D2D2D2D2D2D2D2D2D2D2060
:104E50002D2D2D2D2D2D2D2D2D2D2D2D2D202D2D8F
:104E60002D2D2D2D2D2D2D2D2D2D2D2D0A0000001C
:104E7000252D2A2E2A7320252D3031306420252D12
:104E80003031336420252D3035640A002DE9F04F90
:104E90008DB0082004F05CFE4EF2FF73044640A083
:104EA000C0F600030821082204F01EFA4EF2A165A4
:104EB0006FF00706C0F60005284604F015FA013623
:104EC000FAD341A004F1040B04F00EFA00260DF110
:104ED000140A01E0002E5ED03446002E08BF5E4664
:104EE000FBF776F954B9002436685E450DD04AF8D0
:104EF00024600134082CF7D1082407E016F8041CBC
:104F000001F07F010829EED000240026FBF764F9A8
:104F1000012CDFDB4FF000080CE0CDE9002103900D
:104F200039A008210822029504F0DEF908F10108F1
:104F3000A045CFD05AF82890FBF74AF919F8041C7D
:104F400001F07F05FBF748F9082DEFD109F12007A3
:104F5000A9F10C030120394609680138B942FBD197
:104F6000D9F81020D9E906150028C0F10000D4D0E6
:104F7000CDE9002103901DA008210822029504F02C
:104F8000B3F9384606F03CFC4EF28960C0F60000EA
:104F900004F0AAF9CAE700200DB0BDE8F08F00BF09
:104FA000252D2A2E2A7320626C6F636B20746F7418
:104FB000616C20667265652073757370656E642020
:104FC0007468726561640A00202D2D2D2D20202D1E
:104FD0002D2D2D20202D2D2D2D202D2D2D2D2D2D28
:104FE0002D2D2D2D2D2D2D2D0A000000252D2A2EA5
:104FF0002A73202530346420202530346420202575
:105000003034642025643A00252D2A2E2A73202569
:10501000303464202025303464202025303464204E
:1050200025640A002DE9F04F8BB0062004F090FDB6
:105030004EF2F673044640A0C0F600030821082291
:1050400004F052F94EF2A1656FF00706C0F60005B4
:10505000284604F049F90136FAD33FA004F1040BC5
:1050600004F042F94EF2896A00260DF10C09C0F6EF
:10507000000A01E0002E5BD03446002E08BF5E46D9
:10508000FBF7A6F854B9002436685E450DD049F800
:1050900024600134082CF7D1082407E016F8041C1A
:1050A00001F07F010629EED000240026FBF794F8DA
:1050B000012CDFDB4FF0000804E000BF08F101081D
:1050C000A045D7D059F82870FBF782F817F8041CD0
:1050D00001F07F05FBF780F8062DEFD1A7F10C0357
:1050E00057F8081F4FF0FF35388AB94212D03946B9
:1050F00009680135B942FBD100901DA008210822A2
:10510000019504F0F1F8384606F07AFB504604F0B9
:10511000EBF8D3E7394600BF09680135B942FBD146
:10512000009018A008210822019504F0DDF8C5E7D9
:1051300000200BB0BDE8F08F252D2A2E2A732065A4
:105140006E7472792073757370656E642074687202
:105150006561640A00000000202D2D2D2D20202DDA
:105160002D2D2D2D2D2D2D2D2D2D2D2D2D0A0000EC
:10517000252D2A2E2A732025303464202025643AD8
:1051800000000000252D2A2E2A73202530346420AB
:105190002025640A000000002DE9F04F8DB00320A7
:1051A00004F0D6FC4EF6E50304464DA0C0F600031D
:1051B0000821082204F098F84EF2A1656FF0070666
:1051C000C0F60005284604F08FF80136FAD350A047
:1051D00004F1040A04F088F8002605AD02E000BFDF
:1051E000002E78D03446002E08BF5646FAF7F0FF5E
:1051F00084B94FF0000800BF3668564512D045F814
:10520000286008F10108B8F1080FF5D14FF008083F
:1052100009E000BF16F8041C01F07F010329E8D063
:105220004FF000080026FAF7D7FFB8F1010FD7DBDF
:105230004FF0000904E000BF09F10109C145CFD0DA
:1052400055F829B0FAF7C4FF1BF8041C01F07F04DD
:10525000FAF7C2FF032CEFD1ABF10C035BF8082F78
:10526000DBF80C409BF809009BF80A105A451CD04B
:105270004FF0FF325F4600BF3F6801325F45FBD110
:105280000827CDE9021004922BA0082108220097DC
:10529000019404F029F8584606F0B2FA4EF28960FB
:1052A000C0F6000004F020F8C6E74FF0FF325F467A
:1052B0003F6801325F45FBD1CDE902104EF2D55077
:1052C00008270492C0F600000821082200970194E4
:1052D00004F00AF8B0E700200DB0BDE8F08F00BF81
:1052E000252D2A2E2A732020206F776E65722020AC
:1052F000686F6C64207072696F726974792073755D
:105300007370656E6420746872656164200A0000C1
:10531000202D2D2D2D2D2D2D2D202D2D2D2D202DE4
:105320002D2D2D2D2D2D2D202D2D2D2D2D2D2D2DBA
:105330002D2D2D2D2D2D0A00252D2A2E2A732025C9
:105340002D382E2A732025303464202538642020FF
:1053500025303464200000002DE9F04F8BB002208E
:1053600004F0F6FB044640A046A30821082203F0FF
:10537000BBFF4EF2A1656FF00706C0F6000500BF47
:10538000284603F0B1FF0136FAD341A004F1040B23
:1053900003F0AAFF4EF2896A00260DF10C09C0F64F
:1053A000000A01E0002E5BD03446002E08BF5E46A6
:1053B000FAF70EFF54B9002436685E450DD049F85F
:1053C00024600134082CF7D1082407E016F8041CE7
:1053D00001F07F010229EED000240026FAF7FCFE3E
:1053E000012CDFDB4FF0000804E000BF08F10108EA
:1053F000A045D7D059F82870FAF7EAFE17F8041C30
:1054000001F07F05FAF7E8FE022DEFD1A7F10C03BA
:1054100057F8081F4FF0FF353889B94212D0394686
:1054200009680135B942FBD100901FA0082108226C
:10543000019503F059FF384606F0E2F9504603F0B3
:1054400053FFD3E7394600BF09680135B942FBD1A4
:10545000009019A008210822019503F045FFC5E737
:1054600000200BB0BDE8F08F252D2A2E2A73207660
:1054700020202073757370656E6420746872656196
:10548000640A000073656D6170686F7265000000EA
:10549000202D2D2D202D2D2D2D2D2D2D2D2D2D2D56
:1054A0002D2D2D0A00000000252D2A2E2A732025DF
:1054B0003033642025643A00252D2A2E2A732025B6
:1054C0003033642025640A002DE9F04FB3B0012089
:1054D00004F03EFB04464EF21C604FF20403C0F69B
:1054E0000000C0F600030821082203F0FDFE4EF282
:1054F000A1656FF00706C0F6000500BF284603F05F
:10550000F3FE0136FAD359A003F0EEFE67A003F0D4
:10551000EBFE4EF2A1656FF00906C0F6000500BF74
:10552000284603F0E1FE0136FAD34EF28960C0F658
:105530000000251D03F0D8FE4FF000092BAE0495A6
:1055400005E000BF049DB9F1000F00F08A804C46D1
:10555000B9F1000F08BFA946FAF73AFE84B94FF037
:10556000000A00BFD9F80090A94511D046F82A904A
:105570000AF1010ABAF1080FF4D14FF0080A09E064
:1055800019F8041C01F07F010129E8D04FF0000A4E
:105590004FF00009FAF720FEBAF1010FD2DB4FF00D
:1055A000000B06E02046FAF717FE0BF1010BD3457E
:1055B000C8D056F82B50FAF70BFE15F8041C044619
:1055C00001F07F010129EDD1A5F10C0705A83946AD
:1055D000982203F01FFF2046FAF7FEFD95F834608D
:1055E00033A0082108223B46009603F07DFE95F883
:1055F000280000F00701022930A00DD0032932A0B5
:105600000AD839B1032903D0012907D137A003E013
:1056100033A001E02FA000BF03F066FE6A690021FD
:10562000505C01312328FBD0D5E906406426611A7D
:10563000AB687143D5F8308022446431B1FBF4F596
:10564000D61A06F01DF8CDE900804EF2F350C0F6F0
:105650000000314622462B46029703F045FE2BAE52
:10566000A3E7002033B0BDE8F08F00BF202D2D2D23
:1056700020202D2D2D2D2D2D2D202D2D2D2D2D2D81
:105680002D2D2D2D202D2D2D2D2D2D2D2D2D2D2064
:10569000202D2D2D2D2D2D20202D2D2D2D2D2D2D61
:1056A0002D2D2D202D2D2D2D2D2D2D0020000000F8
:1056B000252D2A2E2A73202533642000207265614F
:1056C00064792020000000002073757370656E649B
:1056D0000000000020696E69742020200000000096
:1056E0002072756E6E696E670000000020636C6F3B
:1056F00073652020000000002DE9F04F8BB00A20D8
:1057000004F026FA4EF61303044644A0C0F6000344
:105710000821082203F0E8FD4EF2A1656FF00706AC
:10572000C0F60005284603F0DFFD0136FAD348A095
:1057300004F1040803F0D8FD00240DF10C0A01E087
:10574000002C5ED02646002C08BF4446FAF740FDE8
:1057500086B94FF0000900BF2468444512D04AF8CA
:10576000294009F10109B9F1080FF5D14FF00809F5
:1057700009E000BF14F8041C01F07F010A29E8D0F9
:105780004FF000090024FAF727FDB9F1010FD7DB2C
:10579000564629E0ABF10C07FAF71EFDDBE90605DA
:1057A000082100904EF28B60C0F6000008223B46B4
:1057B000019503F099FD1BF8030C31A1C00734A03B
:1057C00008BF084603F090FD1BF8030C40075ABFC2
:1057D0004EF26C60C0F6000031A003F085FDB9F117
:1057E000010906F10406ABD0D6F800B0FAF7F0FCD8
:1057F0001BF8041C01F07F010A29CBD0FAF7ECFC5E
:10580000EDE706F0C9FB01464EF27660C0F60000F7
:1058100003F06AFD00200BB0BDE8F08F252D2A2E85
:105820002A732020706572696F6469632020207478
:10583000696D656F757420202020616374697661DD
:1058400074656420202020206D6F64650A000000CC
:10585000202D2D2D2D2D2D2D2D2D2D202D2D2D2D92
:105860002D2D2D2D2D2D202D2D2D2D2D2D2D2D2D75
:105870002D2D202D2D2D2D2D2D2D2D2D0A0000000F
:10588000646561637469766174656420000000007A
:1058900061637469766174656420202000000000F3
:1058A000706572696F6469630A000000302000212E
:1058B00004F004FA3020012104F036FA4FF4FA70B3
:1058C00006F01AFA3020002104F02EFA4FF4FA7094
:1058D00006F012FAEEE70000B0B54FF214444FF2B2
:1058E000F430C0F60004C0F60000A04209D24FF226
:1058F000F435C0F6000500BF55F8040B8047A542FB
:10590000FAD3BDE8B040FFF7D1BF000080B507F083
:105910000BFA40F20C01C2F200010968401A80BD86
:105920002DE9F04704460078002846D040F2903038
:1059300040F2943AC2F20000C2F2000A0768DAF8B4
:105940000000874265D24DF682080025C0F60008A7
:105950004FF000090EE000BFA0EB0900A842B8BF5D
:1059600005464046314603F0BFFCDAF80000103728
:10597000874251D23E682046FAF7F4FC02462046A0
:105980003146FAF711FD0028EFD125B93046FAF774
:10599000E9FC0546B14699F8001048460029DBD0DD
:1059A000484632461378002BD6D09942D4D110F80D
:1059B000011F01320029F5D1CEE74EF2AE50C0F6FC
:1059C000000003F091FC40F2903040F29435C2F2B6
:1059D0000000C2F2000500682968884211D24EF228
:1059E000C954A0F11006C0F6000400BF56F8101FFD
:1059F0002046726803F078FC286806F110018142A5
:105A0000F4D34EF28960C0F60000BDE8F04703F021
:105A10006BBC4FF000090025B9F1000F08BFBDE8CD
:105A2000F087204649462A46BDE8F04705F064BEA7
:105A3000F0B581B002284FF0000711DB14467AB1AF
:105A40000D460646276857B160686968FAF791FC09
:105A500030B1022E04F10C04F4DA002700E0002734
:105A6000384601B0F0BD00002DE9F0478AB0D1B34F
:105A70000D46044604E000BF013D04F1010430D0AE
:105A800020782028F8D00928F6D00026A05D092823
:105A900005D0202803D00136B542F7D12E46002E7E
:105AA00000F0AE8040F29030C2F20000076840F291
:105AB0009430C2F20000D0F8009000E010374F455B
:105AC00013D2D7F80080214640463246FAF76CFCE4
:105AD0000028F3D118F806000028EFD1D7F80C9071
