:020000040800F2
:1000000090240020AD010008B5010008B9020008E5
:10001000B9010008BB010008BD0100080000000094
:10002000000000000000000000000000BF01000808
:10003000C101000800000000FF010008551E000873
:10004000C7010008C7010008C7010008C701000870
:10005000C7010008C7010008D10B0008150C0008F3
:10006000290C00083D0C0008510C0008C7010008CD
:10007000C7010008C7010008C7010008C701000840
:10008000C7010008C7010008C7010008C701000830
:10009000C7010008C7010008C7010008650C000877
:1000A000C7010008C7010008C7010008C701000810
:1000B000C7010008C7010008C7010008C701000800
:1000C000C7010008C7010008C7010008C7010008F0
:1000D000C7010008C7010008C7010008391F000850
:1000E000E50B0008C7010008C7010008C7010008A8
:1000F000C7010008C7010008C7010008C7010008C0
:10010000C7010008C7010008C7010008C7010008AF
:10011000C7010008C7010008C7010008C70100089F
:10012000C7010008C7010008C7010008C70100088F
:10013000C7010008C7010008C7010008C70100087F
:10014000C7010008C7010008C7010008C70100086F
:10015000C7010008C7010008C7010008C70100085F
:10016000C7010008C7010008C7010008C70100084F
:10017000C7010008C7010008C7010008C70100083F
:10018000C7010008C7010008C7010008C70100082F
:10019000C7010008C7010008DFF80CD000F0EAF939
:1001A000004800470D0600089024002006488047BC
:1001B00006480047FEE7FEE7FEE7FEE7FEE7FEE74C
:1001C000FEE7FEE7FEE7FEE7651E0008990100086E
:1001D000EFF3108072B6704780F310887047444A7E
:1001E0001368012B04D04FF001031360414A1060E3
:1001F000414A116041484FF0805101607047EFF370
:10020000108272B63A48016851B34FF000010160A4
:100210003848016891B1EFF309811EF0100F08BF53
:1002200021ED108B21E9F00F4FF000041EF0100FAC
:1002300008BF012441F8044D006801602E49096897
:10024000096808C9B1E8F00F002B18BFB1EC108B9A
:1002500081F309884EF0100E002B18BF2EF0100EFF
:1002600082F310884EF0040E704723490860EFF3C4
:10027000148222F0040282F314881E494FF0000019
:1002800008601B494FF0010008601D481D49D0F867
:10029000002041EA0201016018484FF080510160DE
:1002A00019480068006880F3088861B662B6BFF339
:1002B0004F8FBFF36F8F70471EF0040F0CBFEFF32B
:1002C0000880EFF3098020E9F00F40F804ED40F8D2
:1002D00004ED1EF0040F0CBF80F3088880F309883A
:1002E00000B50BF011FA5DF804EB4EF0040E704708
:1002F00004100020440E0020500E002004ED00E009
:1003000020ED00E00000FFFF08ED00E0004870472E
:10031000A00D0108D2B201E000F8012B491EFBD26A
:1003200070470022F6E710B513460A460446194600
:10033000FFF7F0FF204610BD10B5044604E00B782F
:1003400000F8013B03B1491C521EF8D2204610BDF3
:10035000CAB2401E10F8011F8A4202D00029F9D10A
:1003600000207047421C10F8011B0029FBD1801AA5
:10037000704710B5002200E0521C835C8C5CA342E5
:1003800001D1002BF8D1D8B2E1B2401A10BD30B57E
:1003900004460020034600E05B1C934203D2E05C6D
:1003A000CD5C401BF8D030BD034611F8012B00F89E
:1003B000012B002AF9D11846704730B505460020B8
:1003C000034600E05B1C934205D2EC5CC85C201A3B
:1003D00001D1002CF6D130BD2DE9F05F93460F46D8
:1003E00080460446002610F087FCD0F80090824634
:1003F00014F8015B2DB1FFF789FF0068405DC0076D
:10040000F6D12B2D02D02D2D1AD0641E0021CAF852
:1004100000105A463946204600F024F8014627B11C
:100420003868A04201D1C7F80080DAF8000002283D
:1004300009D0CAF80090700505D54842BDE8F09F84
:1004400046F48066E2E70846F8E770B5064610F025
:1004500053FC046805460A220021304600F051F89A
:100460002C6070BD2DE9F05F8246007800271546AC
:100470008B460AF10104B946302801D09DB113E042
:1004800014F8010B0127782803D0582801D045B172
:100490000AE00DB1102D07D10027102514F8010B2B
:1004A00002E0082500E00A250026B0460EE005FB24
:1004B000080005FB06F1012701EB10461FFA80F842
:1004C000B6F5803F00D3B94614F8010B294600F079
:1004D00063F80028EBDABBF1000F05D00FB1641E02
:1004E00000E05446CBF80040B9F1000F06D010F000
:1004F00003FC02210160C81EBDE8F09F48EA0640E7
:10050000FAE72DE9F04791460F468046044600265B
:1005100014F8015B2DB1FFF7F9FE0068405DC007DC
:10052000F6D12B2D02D02D2D18D0641E4A46394607
:100530002046FFF797FF27B13968A14201D1C7F8DC
:10054000008071054FF002040BD54042002803DD06
:1005500010F0D2FB0460A007BDE8F08746F4806687
:10056000E4E70028F8DA10F0C7FB04606FF0004001
:10057000F2E70000064C074D06E0E06840F001039A
:1005800094E8070098471034AC42F6D3FFF708FE12
:1005900018470108384701083A2800D2303820F0BF
:1005A0002002412A01D3A2F13700884201D34FF043
:1005B000FF30704770B58C1810F8015B15F0070319
:1005C00001D110F8013B2A1106D110F8012B03E0EC
:1005D00010F8016B01F8016B5B1EF9D12B0705D4F4
:1005E0000023521E0DD401F8013BFAE710F8013B3D
:1005F000CB1A921C03E013F8015B01F8015B521E59
:10060000F9D5A142D8D3002070BD000080B50FF00D
:10061000C9FF002080BD000081B000900099886D66
:1006200020F01000886501B07047000082B0019092
:100630008DF803109DF803107F208843019908600E
:1006400002B0704780B582B08DF8070000919DF828
:100650000700A8B9FFE74FF48070002100F0F8FD13
:10066000009800F0DFFD40F60000C4F20200FFF742
:10067000D3FF40F60040C4F20200FFF7CDFF13E0C5
:100680000098012100F0E4FD002000F0CBFD40F6D1
:100690000000C4F2020000F0DFF940F60040C4F2AE
:1006A000020000F0D9F9FFE702B080BD84B00390EA
:1006B0008DF80B108DF80A208DF80930002001907C
:1006C00000909DF80B00122810D1FFE70398C06D31
:1006D0000190019820F0070001909DF80910019801
:1006E0000843019001980399C86544E09DF80B0008
:1006F0000A2821DBFFE70398C06801909DF80B00F2
:1007000000EB4000A0F11E010720884000900099F6
:100710000198884301909DF809009DF80B1001EBAA
:1007200041011E39884000900099019808430190CA
:1007300001980399C8601DE00398006901909DF835
:100740000B0000EB400107208840009000990198C1
:10075000884301909DF809009DF80B1001EB4101C1
:1007600088400090009901980843019001980399EE
:100770000861FFE7FFE79DF80A00062820DCFFE795
:100780000398406B01909DF80A0000EB8000411F28
:100790001F208840009000990198884301909DF89F
:1007A0000B009DF80A1001EB81010539884000908B
:1007B000009901980843019001980399486347E024
:1007C0009DF80A000C2821DCFFE70398006B0190DC
:1007D0009DF80A0000EB8000A0F123011F20884053
:1007E000009000990198884301909DF80B009DF8B6
:1007F0000A1001EB8101233988400090009901988B
:100800000843019001980399086320E00398C06AA7
:1008100001909DF80A0000EB8000A0F141011F202B
:100820008840009000990198884301909DF80B0042
:100830009DF80A1001EB8101413988400090009930
:1008400001980843019001980399C862FFE7FFE708
:1008500004B0704780B584B00390039840F600015F
:10086000C4F2020188420BD1FFE74FF4805002909E
:10087000012100F069FD0298002100F065FD13E000
:10088000039840F60041C4F2020188420BD1FFE711
:100890004FF400500190012100F056FD0198002115
:1008A00000F052FDFFE7FFE704B080BD82B0019089
:1008B0008DF803109DF8030030B1FFE701998868B7
:1008C00040F00100886005E00199886820F001008F
:1008D0008860FFE702B0704782B001908DF8031086
:1008E0009DF8030030B1FFE70199886840F4A0004B
:1008F000886005E00199886820F4A0008860FFE71F
:1009000002B0704782B0019000208DF8030001987A
:1009100080684007002804D5FFE701208DF8030018
:1009200003E000208DF80300FFE70198406D20B13F
:10093000FFE700208DF80300FFE79DF8030002B0F9
:100940007047000081B000900098C06C80B201B088
:100950007047000082B001908DF8031000208DF8E0
:100960000200019800689DF80310084204D0FFE7D8
:1009700001208DF8020003E000208DF80200FFE75F
:100980009DF8020002B0704782B001908DF803100C
:1009900000208DF802000198806D9DF80310084238
:1009A00004D0FFE701208DF8020003E000208DF85D
:1009B0000200FFE79DF8020002B0704784B0039088
:1009C0000291002001908DF8030003984068019087
:1009D00001984FF6FF61CFF6F0710840019002993F
:1009E0000868097940EA01210198084301900198BB
:1009F0000399486003988068019001984FF2FD7157
:100A0000CFF6F171084001900299C8688A681043D6
:100A1000497940EA410101980843019001980399FE
:100A200088600398C06A0190019820F470000190DA
:100A30000298007C411E9DF8030008438DF80300D6
:100A40009DF80310019840EA015001900198039924
:100A5000C86204B07047000081B000900099886DB2
:100A600040F01000886501B07047000081B0009030
:100A70000098406D30B9FFE70099886840F00400A5
:100A80008860FFE701B0704780B5012000F0B0FC3E
:100A9000002000F0ADFC80BD82B001908DF8031005
:100AA0009DF8030060B1FFE70199012000FA01F20F
:100AB00047F20041C4F200010868104308600BE0EF
:100AC0000199012000FA01F247F20041C4F200014D
:100AD000086890430860FFE702B0704784B0039055
:100AE000029100200190009047F20041C4F2000101
:100AF00008680190039A40F6FE7000FA02F201982D
:100B000090430190029A1068D2F804C09368D268AA
:100B100040EA0C001843104300900098039A00FA32
:100B200002F20198104301900198086004B07047E8
:100B300083B00290ADF806100020009047F200400C
:100B4000C4F2000000900298009908440830009018
:100B5000BDF806000099086003B0704783B00290AA
:100B6000ADF806100020009047F20040C4F20000EB
:100B7000009002980099084414300090BDF80600D7
:100B80000099086003B0704782B001908DF803109F
:100B90009DF8030068B1FFE701980109012000FA00
:100BA00001F247F20441C4F20001086810430860F2
:100BB0000CE001980109012000FA01F247F204411A
:100BC000C4F20001086890430860FFE702B0704774
:100BD00080B50BF04BFB002000F060FA0BF074FBCB
:100BE00080BD000080B50BF041FB0A2000F056FAF2
:100BF0000B2000F053FA0C2000F050FA0D2000F00A
:100C00004DFA0E2000F04AFA0F2000F047FA0BF0E0
:100C10005BFB80BD80B50BF029FB012000F03EFAA4
:100C20000BF052FB80BD000080B50BF01FFB0220D3
:100C300000F034FA0BF048FB80BD000080B50BF0EB
:100C400015FB032000F02AFA0BF03EFB80BD0000EC
:100C500080B50BF00BFB042000F020FA0BF034FB06
:100C600080BD000080B50BF001FB052000F016FAF6
:100C7000062000F013FA072000F010FA082000F018
:100C80000DFA092000F00AFA0BF01EFB80BD0000EF
:100C900081B00090009840F21441C4F20101086054
:100CA00001B0704783B0029000208DF807000090DB
:100CB00040F20040C4F20100006802990840009030
:100CC00040F21440C4F2010000680299084207D0C3
:100CD000FFE7009820B1FFE701208DF8070003E04F
:100CE00000208DF80700FFE79DF8070003B070476C
:100CF00082B001900020009040F20040C4F2010058
:100D0000009001988079002859D0FFE70198026887
:100D100040F20041C4F20101086890430860019864
:100D2000026840F20441C4F201010868904308607F
:100D30000198017900980844009001980268009990
:100D40000868104308600198026840F20841C4F244
:100D500001010868904308600198026840F20C4164
:100D6000C4F2010108689043086001984079102896
:100D700013D1FFE70198026840F20841C4F2010173
:100D80000868104308600198026840F20C41C4F200
:100D9000010108681043086010E040F20040C4F20E
:100DA0000100009001984179009808440090019852
:100DB00002680099086810430860FFE70BE001989B
:100DC0000179009808440090019802680099086829
:100DD00090430860FFE702B07047000082B08DF8D2
:100DE00007008DF80610002000909DF8060000F026
:100DF000030081000F2088400090009B9DF80600B2
:100E000000F0FC010822C4F201028858984388507F
:100E10009DF807109DF8060000F003039B0001FAFF
:100E200003F300F0FC0188581843885002B0704763
:100E300088B00790069100200590049003900290DE
:100E4000019000900698C07800F00F000590069879
:100E5000C078C006002806D5FFE706988178059877
:100E600008430590FFE70698007800284BD0FFE77D
:100E700007980068019000200390FFE70398072877
:100E80003DD8FFE70399012088400290069800882A
:100E90000299084004900498029988422AD1FFE7F9
:100EA00003988000029002990F20884000900099DA
:100EB0000198884301900598029900FA01F1019880
:100EC000084301900698C078282806D1FFE70399C7
:100ED00001208840079948610BE00698C0784828AF
:100EE00006D1FFE703990120884007990861FFE7D1
:100EF000FFE7FFE7FFE7039801300390BEE70198A3
:100F000007990860FFE706980088B0F5807F50DBFE
:100F1000FFE707984068019000200390FFE70398DF
:100F2000072842D8FFE7039800F108010120884014
:100F3000029006980088029908400490049802994B
:100F400088422DD1FFE703988000029002990F207C
:100F50008840009000990198884301900598029973
:100F600000FA01F10198084301900698C0782828FA
:100F700008D1FFE7039800F1080101208840079994
:100F80004861FFE70698C078482808D1FFE7039832
:100F900000F108010120884007990861FFE7FFE799
:100FA000FFE7039801300390B9E70198079948607B
:100FB000FFE708B07047000081B0009000994FF63D
:100FC000FF70088000990120887000990420C87083
:100FD00001B0704782B00190ADF8021000208DF88A
:100FE000010001988068BDF80210084204D0FFE7B4
:100FF00001208DF8010003E000208DF80100FFE7DB
:101000009DF8010002B0704782B00190ADF8021067
:101010008DF801209DF8010028B1FFE7BDF802001E
:101020000199086104E0BDF8020001994861FFE7F9
:1010300002B0704781B0ADF80200BDF8020043F283
:101040000801C4F20001086001B0704743F20001DA
:10105000C4F200014CF6CC400860704743F2000136
:10106000C4F200014AF6AA200860704781B08DF8EA
:1010700003009DF8030043F20401C4F2000108607C
:1010800001B0704781B0ADF80200BDF8020043F234
:101090000001C4F20001086001B0704780B582B061
:1010A0008DF807009DF9071001208840FFF7FAFD31
:1010B00058B1FFE79DF9070008F0FCF99DF907100A
:1010C00001208840FFF7E4FDFFE702B080BD00008B
:1010D00080B54FF00060002100F066F880BD000090
:1010E00084B003900020029001900F20009003989C
:1010F000C078C0B3FFE74EF60C50CEF20000006897
:10110000C043C0F3022002900298C0F10400019095
:1011100000980299C840009003984078019988404F
:101120000290039880780099014002980843029049
:101130000298000102900298039909784EF2004249
:10114000CEF2000288540398027802F01F010120B9
:1011500088404EF20011CEF2000141EAD20121F0A6
:10116000030108600FE00398027802F01F010120DC
:1011700088404EF28011CEF2000141EAD20121F006
:1011800003010860FFE704B07047000081B00090E1
:1011900000980021C0F2FA5108434EF60C51CEF2ED
:1011A0000001086001B0704782B001900091019881
:1011B00000994FF68072C1F6FF72114008434EF657
:1011C0000851CEF20001086002B0704781B08DF87E
:1011D00003009DF803002021C4F20E21086001B035
:1011E0007047000083B0029001910020009041F20E
:1011F0002C01C4F2020108680090009820F480607D
:101200000090009820F478400090029A00981043D3
:101210000090019A0098104300900098086003B075
:101220007047000082B001900020009041F22C0134
:10123000C4F2020108680090009820F00F000090AE
:10124000019A0098104300900098086002B070471F
:1012500083B002908DF807100020009041F22C001E
:10126000C4F2020000680090009820F4F87000902A
:101270009DF8070028B1FFE7029900980843009005
:1012800008E00299009808430090009820F48070CC
:101290000090FFE7009841F22C01C4F202010860BF
:1012A00003B0704782B08DF8070041F22001C4F20C
:1012B00002010020087008709DF8070001460091A7
:1012C000012804D0FFE70098042807D00DE041F280
:1012D0002001C4F202010120087007E041F2200160
:1012E000C4F202010520087000E0FFE702B0704779
:1012F00081B0009041F22001C4F20201086820F49C
:1013000040700860009A08681043086001B0704798
:1013100082B001908DF803109DF8030048B1FFE7FB
:10132000019A41F21401C4F20201086810430860F6
:1013300008E0019A41F21401C4F2020108689043E6
:101340000860FFE702B0704782B001908DF803108B
:101350009DF8030048B1FFE7019A41F22801C4F269
:10136000020108681043086008E0019A41F2280170
:10137000C4F20201086890430860FFE702B07047BA
:1013800082B001908DF803109DF8030048B1FFE78B
:10139000019A41F21C01C4F202010868104308607E
:1013A00008E0019A41F21C01C4F20201086890436E
:1013B0000860FFE702B0704782B001908DF803101B
:1013C0009DF8030048B1FFE7019A41F21801C4F209
:1013D000020108681043086008E0019A41F2180110
:1013E000C4F20201086890430860FFE702B070474A
:1013F00081B08DF803009DF8030040F24041C4F233
:101400004221086001B0704781B08DF803009DF85B
:10141000030040F28041C4F24221086001B07047ED
:1014200081B08DF803009DF8030040F23C41C4F206
:101430004221086001B0704787B0069000200590F7
:10144000049003900290019041F20400C4F2020063
:1014500001680022C0F63C0211400391006800F4CC
:10146000803002909DF80F000007002806D4FFE7A7
:101470000399022000EB9140039006E003996FF47A
:10148000F77000EB91400390FFE7029840B9FFE747
:10149000039840F60011C0F23D014843049019E062
:1014A00041F20400C4F2020000688003002808D55D
:1014B000FFE7039841F20021C0F27A01484304900B
:1014C00007E0039842F20041C0F2F401484304905F
:1014D000FFE7FFE741F20400C4F20200006800F0F9
:1014E0000C0005900598009040B1FFE70098042893
:1014F0000BD0FFE7009808280ED011E0069941F2C2
:101500000020C0F27A00086011E0069942F2004023
:10151000C0F2F40008600AE004980699086006E04A
:10152000069941F20020C0F27A000860FFE741F21C
:101530000401C4F20201086800F0F000059005986B
:1015400000090590059A41F29A40C0F60100825CBC
:101550000192069B1A68DDF804C022FA0CF25A6068
:101560000A6802F4E0620592059A120A0592059A49
:10157000825C0192069B5A68DDF804C022FA0CF2E4
:101580009A60096801F4605105910599C90A0591AD
:101590000599405C019006994868019AD040C8605E
:1015A00041F22C00C4F20200016801F00F01059124
:1015B000059A41F26A41C0F60101895C0191069ADF
:1015C0005168019BB1FBF3F15161006800F4F870C0
:1015D0000590059800090590059800F00F0141F26B
:1015E0007A40C0F6010030F811000190049801998A
:1015F000B0FBF1F00699086107B0704784B08DF830
:101600000F000020029001908DF803009DF80F005C
:10161000400902900298012807D1FFE741F200003B
:10162000C4F202000068019012E00298022807D17B
:10163000FFE741F22000C4F202000068019006E0DA
:1016400041F22400C4F2020000680190FFE7FFE7C6
:101650009DF80F0000F01F00029001980299C84009
:10166000C00720B1FFE701208DF8030003E0002050
:101670008DF80300FFE79DF8030004B070470000F9
:1016800081B08DF8030000208DF802009DF8030062
:10169000000900EB800040008DF802009DF8020078
:1016A0009DF8031001F00F010844C0B201B070476B
:1016B00081B08DF8030000208DF80200FFE79DF84F
:1016C00003000A280BDBFFE79DF8020001308DF8CC
:1016D00002009DF803000A388DF80300EFE79DF83B
:1016E000020000F00F019DF8030040EA011001B074
:1016F0007047000080B586B00590049100200390EB
:101700008DF80B00059878B9FFE742F60800C4F29F
:10171000000000684006002801D5FFE703E00499B7
:101720000020C870FFE713E042F60800C4F2000092
:1017300000684006002806D5FFE704980078FFF708
:101740009FFF039003E004990020C870FFE7FFE7C4
:10175000059868B1FFE7049908784B788A78C978CA
:10176000000440EA0320104440EA014003901BE0DB
:1017700004980078FFF79CFF0004009004984078DC
:10178000FFF796FF0146009840EA01200190049877
:101790008078FFF78DFF0146019808440499C978C5
:1017A00040EA01400390FFE742F62401C4F2000141
:1017B000CA2008605320086000F03CF820B9FFE719
:1017C00000208DF80B0027E0039847F67F71C0F2E8
:1017D0007F01084042F60001C4F20001086000F0F9
:1017E00077F842F60800C4F200000068800600287E
:1017F0000DD4FFE700F0DAF920B9FFE700208DF8FB
:101800000B0003E001208DF80B00FFE703E001204F
:101810008DF80B00FFE7FFE742F62401C4F2000158
:10182000FF20086000F0C2F98DF80B009DF80B0056
:1018300006B080BD84B0002003908DF80B000190AD
:1018400042F60C00C4F2000000684006002837D4BD
:10185000FFE742F60C01C4F2000180200860FFE7B8
:1018600042F60C00C4F20000006800F04000019055
:10187000039801300390FFE703990020B1F5005F62
:10188000009006D0FFE70198B0FA80F04009009080
:10189000FFE70098C0070028E2D1FFE742F60C00FE
:1018A000C4F2000000684006002804D5FFE70120CC
:1018B0008DF80B0003E000208DF80B00FFE703E03C
:1018C00001208DF80B00FFE79DF80B0004B0704776
:1018D00042F60C01C4F20001086820F080000860A4
:1018E0007047000080B584B0039002910020019001
:1018F00042F60400C4F2000000684FF63F71C0F2E7
:10190000FF0108400190BDF806000299C8700198D7
:10191000C0F3042002994870019800F03F0002993A
:101920008870BDF80400400B02990870039898B9BC
:10193000FFE70298C078FFF7A3FE0299C8700298EB
:101940004078FFF79DFE0299487002988078FFF773
:1019500097FE02998870FFE704B080BD80B584B01F
:10196000039002910020019042F60000C4F20000B2
:10197000006847F67F71C0F27F010840019001982E
:10198000C0F30540029908700198C0F3062002993F
:101990004870019800F07F0002998870019800F467
:1019A0008000000C0299C870039898B9FFE702986C
:1019B0000078FFF765FE0299087002984078FFF7FB
:1019C0005FFE0299487002988078FFF759FE0299ED
:1019D0008870FFE704B080BD80B584B0039000201C
:1019E0008DF80B00019042F62401C4F20001CA20D8
:1019F000086053200860FFF71DFF20B9FFE70020B3
:101A00008DF80B001FE042F60801C4F200010868DF
:101A100020F04000086003980268086810430860DE
:101A20000398806842F61001C4F200010860039830
:101A30004268086840EA02400860FFF749FF012059
:101A40008DF80B00FFE742F62401C4F20001FF20ED
:101A5000086000200190FFE7019840F2FE218842D3
:101A600005D8FFE7FFE7019801300190F4E79DF802
:101A70000B0004B080BD000080B586B005900491D5
:101A8000002003908DF80B00059868B9FFE70498D3
:101A90004078C006002807D5FFE70499487800F091
:101AA000EF000A304870FFE7059808B9FFE70AE041
:101AB00004984078FFF7E4FD039004988078FFF7DE
:101AC000DFFD0390FFE7059868B1FFE70498017810
:101AD00043788278C078000440EA0320104440EA4A
:101AE000413003901BE00498C078FFF7E1FD00044B
:101AF000009004984078FFF7DBFD0146009840EA2B
:101B00000120019004988078FFF7D2FD01460198EA
:101B100008440499097840EA41300390FFE742F60F
:101B20002401C4F20001CA20086053200860FFF7B6
:101B300081FE20B9FFE700208DF80B0027E0039815
:101B40004FF63F71C0F2FF01084042F60401C4F2B3
:101B500000010860FFF7BCFE42F60800C4F2000076
:101B60000068800600280DD4FFE700F01FF820B9B8
:101B7000FFE700208DF80B0003E001208DF80B003B
:101B8000FFE703E001208DF80B00FFE7FFE742F6D7
:101B90002401C4F20001FF20086000F007F88DF86E
:101BA0000B009DF80B0006B080BD000084B0002043
:101BB00003908DF80B00019042F62401C4F200015D
:101BC000CA2008605320086042F60C01C4F20001EC
:101BD000086820F020000860FFE742F60C00C4F21D
:101BE0000000006800F0200001900398013003908D
:101BF000FFE703990020B1F5004F009006D0FFE702
:101C00000198B0FA80F040090090FFE70098C00703
:101C10000028E2D1FFE742F60C00C4F200000068A1
:101C20008006002804D5FFE701208DF80B0003E0B3
:101C300000208DF80B00FFE742F62401C4F20001FA
:101C4000FF2008609DF80B0004B0704780B584B099
:101C50000290029908688A680121904702980069F9
:101C600008B9FFE71BE00DF02DFD0190FFE7029999
:101C700008680969884788B9FFE70DF023FD0199D5
:101C8000401A0299C969884204D9FFE76FF07400CD
:101C900003900AE0029804F0A5FCE8E7FFE7029849
:101CA00004F0A0FC00200390FFE7039804B080BD7F
:101CB00085B0002004908DF80F00029041F20001E1
:101CC000C4F20201086840F480300860FFE741F286
:101CD0000000C4F202000068C0F340408DF80F001D
:101CE000029801300290FFE79DF80F100020C9070D
:101CF000019039B9FFE70298B0F5004018BF012004
:101D00000190FFE70198C0070028E0D1FFE741F20A
:101D10000000C4F202000068C0F340408DF80F00DC
:101D20009DF80F00C00750B9FFE740F20801C2F26A
:101D3000000141F20020C0F27A0008605EE042F249
:101D40000001C4F20201086820F00700086008687A
:101D500040F00400086041F20401C4F20201009165
:101D600008680860086840F400500860086840F49B
:101D7000A060086008684FF6FF72CFF2C072104092
:101D8000086008680490049840F480300490049837
:101D900040F40030049004980022C0F6040210437E
:101DA00004900498086041F20001C4F2020108683E
:101DB00040F080700860FFE741F20000C4F20200CA
:101DC00000688001002801D4FFE7F5E741F2040133
:101DD000C4F20201086820F003000860086840F0BF
:101DE00002000860FFE741F20400C4F2020000684C
:101DF00000F00C00082801D0FFE7F4E705B07047B9
:101E000080B582B0009000980138B0F1807F03D394
:101E1000FFE70120019019E0009801384EF214010B
:101E2000CEF2000108604FF0FF300F2100F072FA8F
:101E30004EF21801CEF20001002008604EF21002AE
:101E4000CEF20002072111600190FFE7019802B075
:101E500080BD000080B50AF009FA0DF03BFC0AF0E5
:101E600033FA80BD80B54EF68851CEF20001086885
:101E700040F47000086041F20002C4F202021068EF
:101E800040F00100106041F20401C4F20201086850
:101E90004CF20003CFF6FF031840086010684FF6BD
:101EA000FF73CFF6F66318401060106820F48020AE
:101EB000106008684FF6FF72CFF2007210400860A1
:101EC00041F22C01C4F202014FF46050086041F26B
:101ED0003001C4F202014FF46150086041F2080180
:101EE000C4F202014FF41F00086041F21C01C4F269
:101EF0000201086840F08050086047F20C02C4F20A
:101F00000002106840F001001060086820F0805066
:101F1000086042F20001C4F20201086840F090003B
:101F20000860FFF7C5FE4EF60851CEF200014FF0F3
:101F30000060086080BD000080B50AF097F941F2AA
:101F40001800C2F200000EF019FE0AF0BDF980BDC3
:101F500086B00590ADF812108DF811200020039086
:101F6000029001900090BDF8120040F66A1188427C
:101F700001D1FFE7FFE7059800909DF812004009A6
:101F80000390BDF8120000F01F000290029901209A
:101F9000884001900398012804D1FFE700980C3095
:101FA00000900CE00398022804D1FFE7009810305D
:101FB000009003E0009814300090FFE7FFE79DF8E1
:101FC000110030B1FFE7019A0099086810430860DA
:101FD00005E0019A0099086890430860FFE706B0A1
:101FE0007047000082B001908DF803109DF8030047
:101FF00030B1FFE70199888940F40050888105E0FD
:102000000199888920F400508881FFE702B0704769
:1020100082B00190ADF8021000208DF80100BDF8EB
:102020000200B0F5007F01D1FFE7FFE701980088CB
:10203000BDF802100840000420B1FFE701208DF830
:10204000010003E000208DF80100FFE79DF801008A
:1020500002B0704786B00590ADF8121000200390D2
:10206000029001908DF80300BDF8120040F66A114D
:10207000884201D1FFE7FFE79DF812004009019077
:10208000BDF8120000F01F00029002990120884064
:1020900002900198012806D1FFE7059881890298EE
:1020A0000840029010E00198022806D1FFE7059849
:1020B000018A02980840029005E00598818A0298FA
:1020C00008400290FFE7FFE79DF813000390039993
:1020D00001208840039005980188039808400390E8
:1020E000029838B1FFE7039820B1FFE701208DF88F
:1020F000030003E000208DF80300FFE79DF80300D4
:1021000006B0704780B58EB00D900C9100200B90FA
:102110000A900990089007900C98808908B1FFE711
:10212000FFE70D9807900D98008A0B900B984CF6DE
:10213000FF7108400B900C98C1880B9808430B90D6
:102140000B980D9908820D9880890B900B984EF68C
:10215000F31108400B900C9988880A89104349892B
:1021600001430B9808430B900B980D9988810D98AB
:10217000808A0B900B984FF6FF4108400B900C980B
:1021800081890B9808430B900B980D99888201A8C0
:10219000FFF752F9079843F60001C4F201018842A3
:1021A00010D0FFE7079845F20001C4F20101884210
:1021B00008D0FFE7079845F20041C4F201018842C8
:1021C00003D1FFE704980A9002E003980A90FFE722
:1021D0000A98192148430C9909688900B0FBF1F06D
:1021E0000990099848F21F51C5F2EB11A0FB0102BA
:1021F0006FF00F0000EA52000B90099B0B9800094A
:10220000642200FB1232322000EB0210A0FB01100E
:102210004009089008990120B0EB111F0ED1FFE78B
:10222000099848F21F51C5F2EB11A0FB01016FF0B4
:102230000F0000EA510010300B90FFE7089800F003
:102240000F010B9808430B900B980D9908810EB065
:1022500080BD000081B00090009880886FF35F20FF
:1022600001B0704782B00190ADF80210BDF80200D5
:102270006FF35F200199888002B0704781B08DF8BC
:1022800003009DF90300002812D4FFE79DF9031015
:1022900001F01F02012090404A094EF28011CEF257
:1022A000000141F82200BFF34F8FBFF36F8FFFE7AC
:1022B00001B0704781B08DF803009DF9030000283C
:1022C0000ED4FFE79DF9031001F01F02012090409A
:1022D0004A094EF20011CEF2000141F82200FFE758
:1022E00001B0704781B08DF803009DF9030000280C
:1022F0000ED4FFE79DF9031001F01F02012090406A
:102300004A094EF20011CEF2000141F82200FFE727
:1023100001B0704782B08DF8070000919DF9070069
:1023200000280AD4FFE7009800019DF907104EF23B
:102330000042CEF2000288540BE0009800019DF8A4
:10234000071001F00F014EF61452CEF2000288542D
:10235000FFE702B07047000082B08DF807000091DF
:102360009DF9070000280AD4FFE7009800019DF9B5
:1023700007104EF20042CEF2000288540BE00098A3
:1023800000019DF8071001F00F014EF61452CEF235
:1023900000028854FFE702B07047000082B08DF859
:1023A000070000919DF9070000280AD4FFE7009874
:1023B00000019DF907104EF20042CEF2000288544F
:1023C0000BE0009800019DF8071001F00F014EF698
:1023D0001452CEF200028854FFE702B070470000AA
:1023E00083B002900298C11700EB917121F00301B4
:1023F000411A0020019081BBFFE7029901204BF6B2
:102400005003C0F21E5345F62942CCF28F2201FB45
:1024100002314FEAB10145F62842C0F28F229142C3
:10242000009017D8FFE702984BF65002C0F21E52F8
:1024300045F62941CCF28F2100FB01204FEA3011F3
:102440004DF20B72C0F2A3020020914238BF01206E
:102450000090FFE700980190FFE7019800F001006D
:1024600003B0704781B000900098002804D090FA23
:10247000A0F0B0FA80F0401C0090009801B07047C6
:1024800080B586B00590049103926FF0040002902D
:1024900005980190049841F6013188420ED1FFE77A
:1024A0000198406C006848B1FFE70198416C0B68E7
:1024B0009DF90C1001229847029056E0049841F6CD
:1024C000023188420ED1FFE70198406C006848B1A4
:1024D000FFE70198416C0B689DF90C1000229847AA
:1024E000029041E0049841F6033188421AD1FFE797
:1024F0000198406C8068A8B1FFE7039890B1FFE7AE
:102500000198416C896888478DF803009DF80300A5
:1025100038B1FFE79DF8030003990870002002908E
:10252000FFE720E0049841F6043188421AD1FFE722
:102530000198406CC068A8B1FFE7039890B1FFE72D
:102540000198416CC9688847ADF80000BDF90000EA
:1025500038B1FFE7BDF80000039908800020029021
:10256000FFE7FFE7FFE7FFE7FFE7029806B080BD60
:1025700080B58AB0089007910692059300200490D8
:1025800008990291069901910390FFE70398059934
:10259000884218D2FFE70298416C4B680799039A6A
:1025A0001144019A49B298470490049818B1FFE782
:1025B000002009900AE0019804300190FFE7039899
:1025C00004300390E2E703980990FFE709980AB006
:1025D00080BD000080B584B003900291002001907E
:1025E0000298007FFF2808D1FFE703980AF0F4FF64
:1025F0000299497F884210D1FFE7FF208DF8030040
:10260000039801F077FB8DF8030003989DF8031001
:102610000AF094FF01200190FFE7019804B080BD0B
:1026200080B586B00490049860B9FFE741F6F920C0
:10263000C0F6010041F63B31C0F601018E2207F0E1
:10264000EFFAFFE740F29430C2F200000CF0A8FA73
:10265000039004980078C00758B1FFE7039940F24F
:102660009430C2F200000CF0FDFA6FF016000590F5
:1026700021E00498006820F001000190019848B121
:10268000FFE701980CF0ACFE0290029808B1FFE75A
:10269000FFE703E06FF043000290FFE70499012099
:1026A0000860039940F29430C2F200000CF0DAFAAC
:1026B00002980590FFE7059806B080BD80B586B00A
:1026C000049003916FF0FE00029040F2A030C2F23D
:1026D0000000006860B9FFE741F28050C0F60100D9
:1026E00008F060FA40F2A031C2F200010860FFE792
:1026F00040F2A030C2F200000068E0B1FFE740F213
:10270000A030C2F200000068002108F055FA88B934
:10271000FFE740F2A030C2F2000001900068049987
:10272000039A08F005FA014601980291006808F042
:10273000A9F9FFE717E0FFE741F2C440C0F6010046
:1027400009F0DCFD41F22150C0F6010009F0D6FD90
:1027500041F2BE40C0F6010009F0D0FDFFE76FF086
:102760002C00059002E002980590FFE7059806B05E
:1027700080BD000080B586B00590049103926FF093
:1027800004000290059801900498B0F5E05F0CD128
:10279000FFE70198406C406838B1FFE70198416C51
:1027A0004A6803999047029030E0049841F601414D
:1027B00088420CD1FFE70198406C406838B1FFE7D0
:1027C0000198416C0A680399904702901DE00498B3
:1027D00041F60241884217D1FFE70198406CC0687A
:1027E00090B1FFE70198416CC96888478DF80300F4
:1027F0009DF8030038B1FFE79DF8030003990870C6
:1028000000200290FFE7FFE7FFE7FFE7029806B02E
:1028100080BD000080B58AB00890079106920593AC
:102820000020049008990291069901910390FFE716
:1028300003980599884217D2FFE70298416C8B688C
:102840000799039A1144019A98470490049818B183
:10285000FFE7002009900AE0019804300190FFE7AB
:10286000039804300390E3E703980990FFE7099881
:102870000AB080BD80B582B00CF000FE50B1FFE719
:1028800040F20440C2F200004FF0FF310AF09EF91E
:10289000019002E000200190FFE7019802B080BDA6
:1028A00080B540F20440C2F2000043F20831C0F6A5
:1028B000010101220AF024F880BD000080B582B039
:1028C0000190019868B1FFE743F6E710C0F60100F8
:1028D00043F67E21C0F601014FF42C7207F0A0F9F7
:1028E000FFE70CF0CBFD38B1FFE740F20440C2F245
:1028F00000000AF03DF8FFE702B080BD80B582B06D
:1029000001900198143009F033FD002002B080BD21
:1029100080B582B00190009140F29C30C2F200007C
:10292000006820B9FFE7019808F0F8FD0AE040F2DE
:102930009C30C2F200000068019A009B002108F060
:10294000C1FAFFE702B080BD80B594B0129011913A
:10295000109200200E90129868B9FFE743F2984059
:10296000C0F6010043F28E41C0F601014FF48972B6
:1029700007F056F9FFE7109868B9FFE743F29C406B
:10298000C0F6010043F28E41C0F6010140F213127D
:1029900007F046F9FFE7FFE70E99119A00209142F0
:1029A000029013D2FFE712980E99415C0020202973
:1029B000019008D0FFE712980E99405C093818BFC3
:1029C00001200190FFE701980290FFE70298C007FD
:1029D00020B1FFE70E9801300E90DDE70E9820B988
:1029E000FFE76FF0FE00139027E012980E9905F0B4
:1029F00015FA0D900D9820B9FFE76FF0FE001390C7
:102A00001BE003A800900021282209F011FF009A82
:102A10001298119905F0C2FB0F900F9820B9FFE7AB
:102A20006FF0FE00139008E00D9A0F9803A99047ED
:102A30001099086000201390FFE7139814B080BD30
:102A400080B582B001900198143009F051FD50B961
:102A5000FFE7019840692C38009000980AF0BCFD0F
:102A60000199487703E00199FF204877FFE7019833
:102A7000407F02B080BD000080B582B0019000911F
:102A80000198022803DCFFE700F0F8F841E0009825
:102A9000416842F29C40C0F601000CF03DF928B9B3
:102AA000FFE70198009900F03FF832E00098416894
:102AB00043F22F50C0F601000CF02EF928B9FFE7C1
:102AC0000198009900F05CF822E00098416844F217
:102AD000A900C0F601000CF01FF928B9FFE7019822
:102AE000009900F00FF912E00098416842F280402E
:102AF000C0F601000CF010F928B9FFE70198009921
:102B000000F04AF902E000F0B9F802E0FFE7FFE761
:102B1000FFE702B080BD000080B582B0019001984F
:102B20000AF0D6FA02B080BD80B584B0039002915D
:102B30000398022803DCFFE700F0A0F81EE00298EB
:102B40008068FFF7E9FF01900198B0F1FF3F0BDCCF
:102B5000FFE70298816842F23720C0F6010009F0D1
:102B6000CDFB00F08BF809E002988168019A42F2EF
:102B70008B20C0F6010009F0C1FBFFE704B080BD67
:102B800080B584B0039002910398032803DCFFE72B
:102B900000F074F86FE00298806805F0E3F9B0B9CE
:102BA000FFE702988068FFF7B7FF01900198B0F146
:102BB000FF3F0BDCFFE70298816842F23720C0F646
:102BC000010009F09BFB00F059F854E005E0029881
:102BD0008068FDF73AFC0190FFE70298C16842F275
:102BE000D040C0F601000CF097F818B9FFE70020BC
:102BF00000903AE00298C16842F2CA40C0F6010073
:102C00000CF08AF818B9FFE7012000902CE0029838
:102C1000C16842F2B240C0F601000CF07DF818B96C
:102C2000FFE7022000901EE00298C16842F2A34034
:102C3000C0F601000CF070F818B9FFE7032000900F
:102C400010E00298C16842F26340C0F601000CF047
:102C500063F818B9FFE70420009002E000F00EF8D6
:102C600009E0FFE7FFE7FFE7FFE701989DF80010A5
:102C70000AF05EFAFFE704B080BD000080B542F2C2
:102C80005020C0F6010009F039FB42F25430C0F682
:102C9000010009F033FB42F29420C0F6010009F074
:102CA0002DFB42F2E830C0F6010009F027FB42F2AA
:102CB0002530C0F6010009F021FB42F26320C0F686
:102CC000010009F01BFB42F28530C0F6010009F05B
:102CD00015FB42F2F720C0F6010009F00FFB42F2AB
:102CE000C930C0F6010009F009FB42F22640C0F6E7
:102CF000010009F003FB43F2CE00C0F601000AF028
:102D0000E7F980BD80B584B0039002910398022852
:102D100003DCFFE7FFF7B2FF3BE00298806805F0B5
:102D200021F9B0B9FFE702988068FFF7F5FE01903E
:102D30000198B0F1FF3F0BDCFFE70298816842F297
:102D40003720C0F6010009F0D9FAFFF797FF20E01D
:102D500005E002988068FDF778FB0190FFE7019895
:102D60000AF00AFA8DF803009DF80300012808D143
:102D7000FFE7019942F2E720C0F6010009F0BEFA30
:102D800007E0019942F21740C0F6010009F0B6FAD7
:102D9000FFE704B080BD000080B584B003900291CD
:102DA0000398032803DCFFE7FFF768FF5BE0029866
:102DB000806805F0D7F8B0B9FFE702988068FFF7A0
:102DC000ABFE01900198B0F1FF3F0BDCFFE70298EA
:102DD000816842F23720C0F6010009F08FFAFFF750
:102DE0004DFF40E005E002988068FDF72EFB019062
:102DF000FFE70298C16842F28A40C0F601000BF07A
:102E00008BFF50B1FFE70298C16842F2A040C0F6C4
:102E100001000BF081FF20B9FFE701208DF80300CE
:102E20001BE00298C16842F2D740C0F601000BF0E7
:102E300073FF50B1FFE70298C16842F28640C0F6C6
:102E400001000BF069FF20B9FFE700208DF80300B7
:102E500002E0FFF713FF06E0FFE701989DF803107B
:102E60000AF0AAF9FFE704B080BD000080B586B083
:102E700004900391029204980090009860B9FFE7D3
:102E800042F23140C0F6010042F28F41C0F601012A
:102E9000372206F0C5FEFFE702980190019820B99D
:102EA000FFE76FF0FE0005900AE00098406C0368B1
:102EB0000498019A11681279984700200590FFE75D
:102EC000059806B080BD000080B588B006900591D9
:102ED0000492039306980190019860B9FFE742F2CB
:102EE0003140C0F6010042F25941C0F601011622FC
:102EF00006F096FEFFE704980290029820B1FFE7E3
:102F00000398082803D0FFE7002007900BE0019802
:102F1000406C826806980299096890470299087186
:102F200003980790FFE7079808B080BD80B588B088
:102F3000069005910492039306980190019860B958
:102F4000FFE742F23140C0F6010042F27B41C0F699
:102F50000101262206F064FEFFE704980290029821
:102F600020B1FFE70398082803D0FFE7002007906F
:102F70000AE00198406C43680698029A1168127939
:102F8000984703980790FFE7079808B080BD0000B6
:102F900080B592B010900F910E92FFE707F06AF89B
:102FA000A8B1FFE741F69820C0F6010043F2C561E1
:102FB000C0F60101079109F0A1F9079941F2B74064
:102FC000C0F6010040F2335206F02AFEFFE7FFE7A9
:102FD0000CF054FAA8B9FFE741F6C220C0F6010090
:102FE00043F2C561C0F60101069109F087F906991F
:102FF00041F2B740C0F6010040F2335206F010FE35
:10300000FFE7FFE709F04CF9A8B1FFE741F67120AF
:10301000C0F6010043F2C561C0F60101059109F057
:103020006DF9059941F2B740C0F6010040F2335204
:1030300006F0F6FDFFE7FFE7FFE7FFE7109868B946
:10304000FFE743F26860C0F6010043F2C561C0F6D5
:10305000010140F2365206F0E3FDFFE7109809F057
:1030600081FF03280DD0FFE743F28B70C0F601000B
:1030700043F2C561C0F6010140F2375206F0D0FDBF
:10308000FFE70CF0FBF90D9010982C300BF068FD69
:10309000FFE740F6E860C2F20000006840B1FFE7D9
:1030A00040F6E860C2F20000016810988847FFE728
:1030B000FFE70D99002088621098006A0D998842F8
:1030C00013D1FFE71098807FFE2805DCFFE71099F9
:1030D000887F0130887707E010982C300BF0BAFD1C
:1030E0006FF02200119041E128E11098006A40BB86
:1030F000FFE70D98109908621099FF204877109902
:10310000012088771098007FFF2813D0FFE71098E0
:10311000017F0491006A0AF05FFA01460498884230
:1031200007DAFFE71099086A097F0E9A00F0D4FFCA
:10313000FFE7FFE70D9878301099243109F04CF93A
:10314000FBE00F9858B9FFE70D9975208862109839
:103150002C300BF07FFD6FF07400119006E10D989C
:10316000109A02F11401527A0E9B0CF0CFF90C90D8
:103170000C9838B1FFE710982C300BF06BFD0C98D1
:103180001190F3E010980D99C1F880000BA80AF097
:1031900089F90D980AF020FA8DF82B009DF82B0084
:1031A0001099497F884218DAFFE79DF82B001099A3
:1031B00048771098417F0391006A0AF00DFA0146A2
:1031C0000398884208DAFFE71098006A9DF82B10F0
:1031D000022200F081FFFFE7FFE70B980AF0F4FA04
:1031E0000F9801280BDBFFE70D98483000210FAA4C
:1031F0000CF060FB0D9848300CF0A2FCFFE7109833
:103200002C300BF027FD0AF0F9FA10982C300BF057
:10321000A7FC0D98806AA0B9FFE71098006A0D9985
:1032200088420DD0FFE743F2A160C0F6010043F2EF
:10323000C561C0F6010140F2B15206F0F1FCFFE7B2
:1032400079E0002009901098006A0D9988420DD10C
:10325000FFE743F28A60C0F6010043F2C561C0F6A1
:1032600001014FF4B76206F0DBFCFFE70D98806ABE
:103270000C900BA80AF016F91098006A80B1FFE7CD
:103280001098006A0AF0A8F902900D980AF0A4F9C3
:1032900001460298884203D1FFE701200990FFE729
:1032A0001098143009F024F950B9FFE710984069DC
:1032B0002C38089008980AF08FF91099487703E0A5
:1032C0001099FF204877FFE70998D8B1FFE71098D9
:1032D000006A00F00FFD8DF82B009DF82B00019087
:1032E0001098006A0AF078F901460198884208D0DF
:1032F000FFE71098006A9DF82B10022200F0ECFE08
:10330000FFE7FFE70B980AF05FFA10982C300BF0FC
:10331000A1FC0D990020C1F880000C98012804DB65
:10332000FFE70C984042009002E00C980090FFE705
:10333000009811901AE0FFE7FFE7FFE710982C30A4
:103340000BF088FCFFE740F6E460C2F20000006882
:1033500040B1FFE740F6E460C2F200000168109857
:103360008847FFE7FFE700201190FFE7119812B0B0
:1033700080BD000080B58CB00A90099108920A982F
:1033800068B9FFE743F24460C0F6010043F2B86158
:10339000C0F6010140F2352206F042FCFFE70A9830
:1033A00009F0E0FD02280DD0FFE743F2D460C0F63B
:1033B000010043F2B861C0F6010140F2362206F086
:1033C0002FFCFFE7FFE740F6E860C2F2000000686C
:1033D00040B1FFE740F6E860C2F2000001680A98D9
:1033E0008847FFE7FFE7FFE706F044FEA8B1FFE7E5
:1033F00041F69820C0F6010043F2B861C0F6010121
:10340000049108F07BFF049941F2B740C0F6010037
:1034100040F23B2206F004FCFFE7FFE70CF02EF839
:10342000A8B9FFE741F6C220C0F6010043F2B86137
:10343000C0F60101039108F061FF039941F2B74022
:10344000C0F6010040F23B2206F0EAFBFFE7FFE78F
:1034500008F026FFA8B1FFE741F67120C0F6010091
:1034600043F2B861C0F60101029108F047FF0299EA
:1034700041F2B740C0F6010040F23B2206F0D0FB1B
:10348000FFE7FFE7FFE7FFE70A9820300BF0C4FBF8
:1034900007900A98808B01280ADBFFE70A99888B3E
:1034A000013888830A98203007990BF017FC52E006
:1034B000099848B9FFE70A98203007990BF00EFCED
:1034C0006FF074000B905AE00BF0D8FF069006994D
:1034D0000B20886206980A9A02F11401527A089B1E
:1034E0000CF014F80590059840B1FFE70A982030D9
:1034F00007990BF0F3FB05980B9040E00998012821
:103500000BDBFFE706984830002109AA0CF0D2F93E
:10351000069848300CF014FBFFE70A982030079912
:103520000BF0DCFB0AF06AF90698806A88B1FFE7C5
:103530000698806A012805DBFFE70698806A40420A
:10354000019003E00698806A0190FFE701980B90D4
:1035500015E0FFE7FFE7FFE740F6E460C2F2000096
:10356000006840B1FFE740F6E460C2F20000016885
:103570000A988847FFE7FFE700200B90FFE70B98CA
:103580000CB080BD80B584B00390029103980730E1
:1035900020F007000190029820F0070000900098AA
:1035A000019988420DD8FFE743F68B20C0F6010051
:1035B00043F6BD21C0F6010140F20D3206F030FBAA
:1035C000FFE701990098421A43F20830C0F6010063
:1035D0000BF02EFA41F28801C2F200010860FFF7F9
:1035E0005FF904B080BD000080B584B0039040F660
:1035F000F870C2F200000068FEF734FF0138019055
:10360000019940F6F860C2F2000050F831002C3801
:103610000290019803990860029804B080BD0000F0
:1036200080B584B00390ADF80A108DF80920ADF88C
:1036300006300398FFF762F9BDF806000399C883C6
:10364000BDF80A00039988839DF809000399487220
:10365000039820300BF098FA04B080BD80B540F29A
:103660003C40C2F200000068D8B9FFE7FFE742F231
:10367000B860C0F6010008F041FE42F21670C0F6D4
:10368000010008F03BFE41F2BE40C0F6010008F028
:1036900035FEFFE740F23C41C2F200010120086024
:1036A000FFE780BD80B58AB0089007910692089820
:1036B00018B1FFE7079868B9FFE742F2C760C0F6A4
:1036C000010042F60B11C0F6010140F2FB1206F0B8
:1036D000A7FAFFE7089858300BF080FA0590089891
:1036E00090F84F10B0F84D0040EA01408008000407
:1036F00000284DD1FFE7002004900898006D03904A
:10370000039868B9FFE742F27970C0F6010042F60B
:103710000B11C0F6010140F2052206F081FAFFE725
:103720000398006801281ED0FFE703990120086074
:103730000898406C006968B9FFE742F2FB70C0F678
:10374000010042F60B11C0F6010140F20A2206F018
:1037500067FAFFE70898416CD1F810C00799069AFC
:103760000123E04703E06FF016000490FFE708989C
:10377000583005990BF094FA049818B9FFE70698A9
:10378000099078E004980AF0E7FE0020099072E0C2
:103790000898006D029000200190089807F0DEFB69
:1037A0000090029868B9FFE742F2D570C0F60100B8
:1037B00042F60B11C0F6010140F21A2206F030FA6F
:1037C000FFE706980099884203DAFFE70698019020
:1037D00002E000980190FFE70298C0880199084430
:1037E000089991F84F20B1F84D1041EA0241C1F318
:1037F0008F01884209D2FFE70798029A1168D288A0
:103800001144019A08F052FF29E00798029A1168C2
:10381000D3881944089A92F84FC0B2F84D2042EA72
:103820000C42C2F38F02D21A08F040FF07980899A1
:1038300091F84F20B1F84D1041EA02429108C2F3CD
:103840008F0310FA81F00299B1F806C0A0EB0C00CA
:103850000968019A6244D21A08F028FFFFE7089825
:10386000019907F083FB0898583005990BF018FA76
:1038700001980990FFE709980AB080BD80B588B02B
:103880000690059104920698406D019001980430CD
:103890000599049A4FF0FF3306F038FF0290029822
:1038A00020BBFFE7069858300BF098F90390019879
:1038B0000068012811D0FFE70199012008600698EF
:1038C000583003990BF0ECF90698416CD1F810C010
:1038D0000599049A0223E04705E0069858300399B9
:1038E0000BF0DEF9FFE70498079005E002980AF074
:1038F00033FE00200790FFE7079808B080BD000066
:1039000080B584B002900298006D0190019868B96A
:10391000FFE742F2D570C0F6010042F66F01C0F633
:10392000010140F28D1206F07BF9FFE701998888CA
:10393000C988884215D1FFE70198806818B9FFE768
:10394000002000900AE0029890F84F10B0F84D0067
:1039500040EA0140C0F38F000090FFE70098039019
:103960001BE001998888C988884206DDFFE7019934
:103970008888C988401A03900FE0029890F84F1089
:10398000B0F84D0040EA014081080198C288808863
:10399000801A10FA81F00390FFE7039804B080BD0D
:1039A00080B588B0079006910592079868B9FFE73F
:1039B00042F2C370C0F6010042F62A11C0F60101BE
:1039C0004FF4957206F02CF9FFE7059804900798DC
:1039D000006D0390039868B9FFE742F2D570C0F616
:1039E000010042F62A11C0F601014FF4977206F069
:1039F00017F9FFE7FFE70598002848D0FFE7079889
:103A000058300BF0EBF801900399C88889888842F8
:103A10000AD1FFE70398806830B9FFE7079858306C
:103A200001990BF03DF932E003990868C988405CC0
:103A300002900399C8880130C8800398C08807990C
:103A400091F84F20B1F84D1041EA0241C1F38F01C6
:103A5000884204DBFFE703990020C880FFE7039852
:103A60008068012804D1FFE7039900208860FFE700
:103A70000798583001990BF013F9029806990870CD
:103A8000069801300690059801380590B3E7049830
:103A90000599401A08B080BD80B586B005900491A4
:103AA0000392059868B9FFE742F2C370C0F60100BF
:103AB00042F64911C0F601014FF4AD7206F0B0F8BC
:103AC000FFE7039802900598406D0190019868B94E
:103AD000FFE742F62000C0F6010042F64911C0F6A9
:103AE00001014FF4AF7206F09BF8FFE7FFE7039880
:103AF00088B3FFE7049800780A2815D1FFE70598F6
:103B0000008B400600280FD5FFE70598416C8A68B6
:103B10000D219047013030B9FFE701984FF0FF3198
:103B200006F04AF9E3E7FFE7FFE70598416C8A688A
:103B3000049909789047013030B9FFE701984FF0B8
:103B4000FF3106F039F9F0E704980130049003984A
:103B500001380390CBE702980399401A06B080BD64
:103B600080B586B0059004910392059860B9FFE78F
:103B700042F2C370C0F6010042F61A11C0F601010C
:103B8000F42206F04DF8FFE703980190FFE7039851
:103B900000B3FFE70598416CC96888470290029816
:103BA000013008B9FFE715E00298049908700498FD
:103BB000013004900398013803900598008B40066B
:103BC000002806D5FFE702980A2801D1FFE701E0A7
:103BD000FFE7DCE701980399401A06B080BD0000BA
:103BE00080B584B0039002910192039868B9FFE711
:103BF00042F2C370C0F6010042F63911C0F601016D
:103C000040F20B1206F00CF8FFE701980090FFE776
:103C10000198F0B1FFE7029800780A280CD1FFE77D
:103C20000398008B4006002806D5FFE70398416CF7
:103C30008A680D219047FFE70398416C8A680299D2
:103C4000097890470298013002900198013801905C
:103C5000DEE700980199401A04B080BD83B002905D
:103C600001910092029848B1FFE741F28800C2F248
:103C700000000068C06902990860FFE7019848B138
:103C8000FFE741F28800C2F200000068006A019973
:103C90000860FFE7009848B1FFE741F28800C2F2F0
:103CA00000000068406A00990860FFE703B07047B1
:103CB00080B584B00BF0E2FB039007F041FA01906D
:103CC00002A809F0EFFB039809F002FC03984830C2
:103CD0000BF092FE039809F075FC029809F074FD50
:103CE00003980BF0ADFA019807F06CFA09F086FD25
:103CF00004B080BD80B586B005900020049003908C
:103D0000059809F071FC8DF80B000598806F049000
:103D1000FFE704980599783188422AD0FFE7049894
:103D2000243803900398407F8DF80A009DF80A001C
:103D30000399097F884204DAFFE79DF80A000190A1
:103D400003E00398007F0190FFE701988DF80A00D7
:103D50009DF80B009DF80A10884205DDFFE79DF8ED
:103D60000A008DF80B00FFE7FFE704980068049055
:103D7000CFE79DF80B0006B080BD000080B588B08D
:103D800084460D980C98DDF82CE0DDF828E0CDF89D
:103D90001CC00691059204938DF80F0007980D99A9
:103DA0009DF80F2009F032FC059807998861049866
:103DB0000799C8610A98079908620B9807994862A1
:103DC0000799086A4A6A232108F032FD079B98691F
:103DD000D9691A6A5B6A1A44043A43F6B143C0F6D9
:103DE000000308F003F8079948610798783008F055
:103DF000CFFA079800210291C0F880100798C0F808
:103E00008410079880F888100798816207984167A6
:103E10000798C0F89410079B03F148006A464FF0DA
:103E2000100CC2F804C0116044F24502C0F6000252
:103E300019460BF033FE07988C300AF0A9FE029861
:103E400008B080BD80B584B00390029107208DF842
:103E50000700039868B9FFE743F6DA70C0F601007F
:103E600044F2E711C0F6010140F2463205F0D8FEF7
:103E7000FFE70298009040B1FFE70098012808D0C2
:103E8000FFE70098022808D00BE004208DF8070017
:103E900014E006208DF8070010E007208DF80700D9
:103EA0000CE041F2B740C0F6010044F2E711C0F661
:103EB000010140F2533205F0B3FEFFE79DF8070021
:103EC000039991F8342002F0F802104381F834008D
:103ED00004B080BD80B58AB00890089820B9FFE78B
:103EE0006FF004000990A9E00BF0C8FA079007985A
:103EF00068B9FFE743F6DA70C0F6010044F2012129
:103F0000C0F6010140F2652205F08AFEFFE707983E
:103F100009F028F801280DD0FFE744F28310C0F61D
:103F2000010044F20121C0F6010140F2662205F0D1
:103F300077FEFFE7FFE706F09DF8A8B1FFE741F63F
:103F40009820C0F6010044F20121C0F6010104915D
:103F500008F0D4F9049941F2B740C0F6010040F2EC
:103F6000692205F05DFEFFE7FFE70BF087FAA8B9CD
:103F7000FFE741F6C220C0F6010044F20121C0F67D
:103F80000101039108F0BAF9039941F2B740C0F674
:103F9000010040F2692205F043FEFFE7FFE708F069
:103FA0007FF9A8B1FFE741F67120C0F6010044F2A5
:103FB0000121C0F60101029108F0A0F9029941F235
:103FC000B740C0F6010040F2692205F029FEFFE784
:103FD000FFE7FFE7FFE7079900200190886207F0FD
:103FE000AFF80199069007980BF02EFB0590059805
:103FF000E8B9FFE707984830002108AA0BF05AFCFF
:10400000079848300BF09CFD07996FF00A00886212
:1040100009F0F4FB069807F0D5F80798806A753028
:1040200020B9FFE7079900208862FFE703E00698C0
:1040300007F0C8F8FFE705980990FFE709980AB06C
:1040400080BD000080B584B0039003980290029870
:1040500060B9FFE743F6DA70C0F6010044F24A2186
:10406000C0F601017D2205F0DBFDFFE7029808F0B4
:1040700079FF01280CD0FFE744F28310C0F601005D
:1040800044F24A21C0F601017E2205F0C9FDFFE796
:1040900001A809F007FA029809F0FCFA60B9FFE7F5
:1040A00044F2F900C0F6010044F24A21C0F60101D1
:1040B000862205F0B5FDFFE702996FF07400886273
:1040C00002982C3008F0AAFA029809F08BF90198AE
:1040D00009F084FB04B080BD80B58AB009908DF8EA
:1040E000231007926FF0FE000690002005900998BB
:1040F0009DF8231009F022FA0690FFE706990020A8
:10410000029041B9FFE7099809F0C4FA002818BFE6
:1041100001200290FFE70298C00700284CD0FFE77B
:104120000998D0F880000590059800283FD0FFE757
:10413000059808F017FF032839D1FFE7FF208DF815
:1041400013000598039009982C3008F027FA039A79
:1041500002F114000999527A0AF0E2FE06900698DC
:1041600020BBFFE70398FEF76BFC0398006AFFF79C
:10417000C1FD8DF813009DF8130001900398006AAB
:1041800009F02AFA0146019888420AD0FFE703980D
:10419000006A099009989DF8131009F0CFF906906C
:1041A00003E06FF0FE000690FFE7FFE703E06FF02B
:1041B000FE000690FFE7A1E70AB080BD80B586B09B
:1041C00084460898CDF814C00491039202938DF8A8
:1041D00007009DF80700059948720599487A00F094
:1041E000FE00487204980599C86103980599086211
:1041F0000599002088620299059A51620090FFE7B4
:10420000009800280CDCFFE70598009900EBC1003E
:10421000143008F0C5F8FFE7009801300090EFE790
:1042200006B080BD80B582B0019000200090FFE70D
:10423000009800280CDCFFE70198009900EBC10012
:10424000143008F0FBF9FFE7009801300090EFE729
:1042500002B080BD80B588B0069005910598407A7F
:104260008007002804D5FFE76FF0FE000790A7E065
:104270000598FFF7D7FF0599487A00F0FE004872CD
:10428000FFE740F6E460C2F20000006840B1FFE7DB
:1042900040F6E460C2F20000016805988847FFE735
:1042A000FFE70BF00FFA05994A6A104488620698F6
:1042B000039000200490FFE70498002848D1FFE70E
:1042C000FFE7049A03A850F82200069901EBC20107
:1042D000496888422BD0FFE7049903A850F82100D1
:1042E0000068009000980499A0EBC1001438019078
:1042F0000198806A0599896A401A08B9FFE70EE0BB
:104300000198806A0599896A401A4FF6FE71C7F6CE
:10431000FF71884201D8FFE709E0FFE7FFE7049A51
:1043200003A951F82200006841F82200C9E7049867
:1043300048B1FFE7049A03A800EB820150F822007D
:1043400008304860FFE7FFE7049801300490B3E7C6
:1043500040F25040C2F20000016801310160006883
:10436000029003980599143108F072F80220049025
:10437000FFE7049801281BD8FFE79DF80800800795
:1043800068B9FFE70498C0F1010203A850F82200C1
:10439000059901EBC201143108F05AF800E007E07A
:1043A000029880080290FFE7049801300490E0E74B
:1043B0000599487A40F00100487200200790FFE715
:1043C000079808B080BD000081B0009040F2B43082
:1043D000C2F2000001B0704780B586B00590059824
:1043E0000290029860B9FFE741F69B30C0F60100E9
:1043F00041F69741C0F601013A2205F011FCFFE7B2
:10440000FFE7029840300AF0DFFB0490029808F0C2
:104410005BF868B1FFE70BF031F802210BF014F9FB
:104420000298403004990AF031FC09F0E7F9E8E716
:10443000029800680390039808F090F80398029996
:1044400008610399088A20F001000882039900207E
:10445000019008640298403004990AF017FC039810
:104460008268C1689047019802990861029800F03B
:1044700001F8C6E780B582B00190FFE701981430DB
:1044800009F030FC00900098753028B9FFE70198DA
:10449000143009F0A7FB09E0009818B9FFE70020E5
:1044A000009004E06FF0FE00009000E0E6E7009866
:1044B00002B080BD80B594B0129011910020109090
:1044C000ADF83E006FF0FE000E9012980228C0F288
:1044D0006681FFE71198406841F67D71C0F60101E1
:1044E000FBF747FF68BBFFE71298032821D1FFE7DE
:1044F0001198806806F056FB014640F25440C2F223
:1045000000000160026841F6AF71C0F6010141F69A
:10451000CA70C0F60100002A08BF08460D90119825
:1045200081680D9A41F63D50C0F6010007F0E6FEA5
:1045300006E041F66650C0F6010007F0DFFEFFE737
:104540002CE140F25440C2F20000006850B9FFE78D
:1045500041F61970C0F6010007F0D0FE6FF0FE00C2
:10456000139041E11198406841F69971C0F601013C
:10457000FBF7FFFEE0BBFFE71298032830D1FFE70F
:1045800040F25440C2F200000B9000680A9011986B
:104590008068FBF75AFF01460A9849B205F086FA8F
:1045A00001460B980E910E9B41F6CA72C0F60102AD
:1045B00041F6AF71C0F60101002B08BF11460D9105
:1045C00000680C9011988068FBF73FFF0C99024639
:1045D0000D9B41F64B50C0F6010007F08FFE06E040
:1045E00041F6F050C0F6010007F088FEFFE7D4E086
:1045F0001198406844F2A901C0F60101FBF7B9FE29
:1046000078BBFFE71298032823D1FFE740F254401C
:10461000C2F2000008900068079011988068FBF7CC
:1046200014FF0146079849B205F06CFA0146089854
:1046300010910068099011988068FBF706FF0999AE
:104640000246109B41F6FC40C0F6010007F056FE02
:1046500006E041F6B360C0F6010007F04FFEFFE749
:104660009AE01198406841F6A771C0F60101FBF786
:1046700080FEE0BBFFE71298032830D1FFE740F24D
:104680005440C2F2000005900068049011988068C0
:10469000FBF7DBFE0146049849B205F0DBF9014661
:1046A00005980E910E9B41F6CA72C0F6010241F6C2
:1046B000AF71C0F60101002B08BF11460D910068D3
:1046C000069011988068FBF7C0FE069902460D9B84
:1046D00041F62250C0F6010007F010FE06E041F658
:1046E0004C60C0F6010007F009FEFFE753E01198A7
:1046F000406841F68A71C0F60101FBF73AFE0028D6
:1047000041D1FFE71298032835D1FFE740F254402A
:10471000C2F2000002900068019011988068FBF7D7
:1047200094FE0146019849B205F00AFA0146029842
:10473000ADF83E100068039011988068FBF785FE85
:1047400003990246BDF93EC044F6D350C1F262005F
:104750005CFB00F3981100EBD3734FF47A7003FB0A
:1047600010C0EC46CCF8000041F6D840C0F601007D
:1047700007F0C4FD06E041F6B840C0F6010007F0BE
:10478000BDFDFFE706E041F6EB60C0F6010007F073
:10479000B5FDFFE7FFE7FFE7FFE7FFE721E041F6B1
:1047A000AF40C0F6010007F0A9FD41F69550C0F6F4
:1047B000010007F0A3FD41F67A60C0F6010007F0A2
:1047C0009DFD41F61D60C0F6010007F097FD41F622
:1047D000C250C0F6010007F091FD6FF0FE000E9090
:1047E000FFE700201390FFE7139814B080BD00008E
:1047F00080B582B00190019840F2A441C2F200015C
:1048000000F002F802B080BD80B58AB00890079130
:10481000089818B1FFE7079830B9FFE7152009F0AD
:104820009BFE00200990F6E0079800211A2207F06D
:10483000FFFF40F2E810C2F2000000680AF0CAFA76
:1048400008998969B0EB810F0DDDFFE740F2F010A8
:10485000C2F2000000680AF0BDFA08990969B0EBDD
:10486000810F67DCFFE7FFE741F2C440C0F60100BB
:1048700007F044FD41F23B50C0F6010007F03EFD59
:1048800041F2BE40C0F6010007F038FDFFE740F2FC
:10489000E810C2F20000006800680799086040F262
:1048A000F010C2F20000006800680799486007989D
:1048B00008300899C96804F0CBFD0798007A3028C1
:1048C00004D1FFE7079920200872FFE7079920200D
:1048D0000590887207980B300899896804F0B8FD34
:1048E00007993A200490487307980E300899496850
:1048F00004F0AEFD049807990874079811300899E0
:10490000096804F0A5FD05980799C8740798143044
:10491000142104F09DFD079816300021069104F043
:1049200097FD0698079A0A21117607994876079805
:10493000099070E040F2E810C2F2000000680899A7
:10494000896950F821000799086040F2F010C2F21E
:10495000000000680899096950F82100079948602B
:10496000079808300899C96804F072FD0798007A22
:10497000302804D1FFE7079920200872FFE7079944
:1049800020200290887207980B300899896804F0FB
:104990005FFD07993A200190487307980E300899F7
:1049A000496804F055FD019807990874079811307B
:1049B0000899096804F04CFD02980799C874079893
:1049C00014300899496901F26C7148F21F52C5F21E
:1049D000EB12039251FB02F2511101EBD27104F080
:1049E00037FD039907981630089A526902F26C73E2
:1049F00053FB01F2511101EBD271642201FB123120
:104A000004F026FD07990A200876079900204876C9
:104A100007980990FFE709980AB080BD83B001901C
:104A200000200090FFE700981F2810DCFFE70099A6
:104A3000012000FA01F10198884203D1FFE70098B4
:104A4000029008E0FFE7009801300090EBE74FF09C
:104A5000FF300290FFE7029803B0704780B582B044
:104A600044F22040C0F6010007F048FC4EF6295001
:104A7000CEF200000190017844F2B550C0F601007A
:104A800007F03CFC01980078C00738B1FFE744F21A
:104A9000A050C0F6010007F031FCFFE74EF62950A8
:104AA000CEF2000000788007002807D5FFE744F227
:104AB0009550C0F6010007F021FCFFE74EF62950A3
:104AC000CEF2000000784007002807D5FFE744F247
:104AD0009350C0F6010007F011FCFFE74EF6295095
:104AE000CEF2000000780007002807D5FFE744F267
:104AF0008950C0F6010007F001FCFFE74EF629508F
:104B0000CEF200000078C006002807D5FFE744F287
:104B10008B50C0F6010007F0F1FBFFE74EF629507D
:104B2000CEF200000078000600280CD5FFE74EF614
:104B30003850CEF20000016844F22C40C0F601006B
:104B400007F0DCFB06E043F25900C0F6010007F075
:104B5000D5FBFFE702B080BD80B543F27C10C0F604
:104B6000010007F0CBFB002080BD000080B586B0BF
:104B7000059004910598022817D0FFE705980128B1
:104B80000CD1FFE70AF07AFC014643F60C00C0F6B0
:104B9000010007F0B3FB05F071F83DE043F6870034
:104BA000C0F6010007F0AAFB36E00498406802A9AD
:104BB0000022FBF711FC039002980499496888428F
:104BC00009D1FFE70498416843F60F10C0F60100D1
:104BD00007F094FB20E00398B0B1FFE7039808F0DA
:104BE000C1F9012810D1FFE7039801900199039AB8
:104BF0000498436843F62210C0F6010007F07EFBDC
:104C0000019805F085F807E0039943F6AF00C0F678
:104C1000010007F073FBFFE706B080BD80B594B0DC
:104C20001290119112980228C0F28F80FFE711981C
:104C3000406805F0B7FF0190019860B9FFE711984F
:104C4000416841F21B60C0F6010007F057FB4FF0CE
:104C5000FF3013908DE01198416841F2A860C0F6D2
:104C6000010007F04BFB0198172102AA05F060FF35
:104C70000299039A41F24870C0F6010007F03EFB2A
:104C800009990A9A41F28F70C0F6010007F036FBCD
:104C90000B990C9A41F20570C0F6010007F02EFB4B
:104CA000049A0D9941F24860C0F6010007F026FB16
:104CB00004980090072836D80099DFE801F0041026
:104CC0001C1C2828282840F24010C2F2000001686D
:104CD00041F28B70C0F6010007F010FB23E040F2B8
:104CE0004010C2F20000416841F28B70C0F6010032
:104CF00007F004FB17E040F24010C2F200008168A8
:104D000041F28B70C0F6010007F0F8FA0BE040F2B8
:104D10004010C2F20000C16841F28B70C0F6010081
:104D200007F0ECFAFFE70599069A41F2C160C0F678
:104D3000010007F0E3FA0798089A811841F28450BD
:104D4000C0F6010007F0DAFA10E01198016841F2AC
:104D50003660C0F6010007F0D1FA1198016841F2FF
:104D6000C950C0F6010007F0C9FAFFE70020139010
:104D7000FFE7139814B080BD80B586B0059004910C
:104D80000020009003900290019003A802A901AABC
:104D900007F03CFD039943F24D40C0F6010007F0D7
:104DA000ADFA029943F23E40C0F6010007F0A6FAC0
:104DB000019943F25C40C0F6010007F09FFA0398A6
:104DC0000299411A43F26B40C0F6010007F096FACF
:104DD000009806B080BD000080B584B002900191BB
:104DE0000298022837D1FFE70298019940F2501249
:104DF000C2F2000202F050FF01380146009109287A
:104E000025D80099DFE801F0050B110E14171A1DC3
:104E1000200802F027FC1BE002F030FD18E002F051
:104E20007BFB15E001F008FF12E002F0B5FA0FE09D
:104E300002F02EF80CE002F009FA09E002F0DAF8CC
:104E400006E002F04FF903E001F064FE00E003E049
:104E50000020039015E0FFE742F6D350C0F60100B2
:104E600007F04CFA42F6C750C0F6010007F046FAC8
:104E700040F25010C2F2000003F06AF900200390E3
:104E8000FFE7039804B080BD80B582B00190009127
:104E900002F0E8FB002002B080BD000080B582B0C7
:104EA0000190019802F08EFDFFF7A2FC02B080BDD8
:104EB00080B590B00E900D9100200C900E980228B5
:104EC000C0F21F81FFE70D98406841F67D71C0F682
:104ED0000101FBF74EFA68BBFFE70E98032821D1CA
:104EE000FFE70D98806805F05DFE014640F2C04086
:104EF000C2F200000160026841F6AF71C0F6010124
:104F000041F6CA70C0F60100002A08BF08460B909F
:104F10000D9881680B9A41F63D50C0F6010007F0EC
:104F2000EDF906E042F22C00C0F6010007F0E6F9C8
:104F3000FFE7E5E040F2C040C2F20000006850B96F
:104F4000FFE742F2CF10C0F6010007F0D7F96FF08B
:104F5000FE000F90FAE00D98406841F69971C0F696
:104F60000101FBF706FAD8BBFFE70E9803282FD103
:104F7000FFE740F2C040C2F20000099000680890CC
:104F80000D988068FBF761FA0146089805F0A0F8D3
:104F9000014609980C910C9B41F6CA72C0F60102B9
:104FA00041F6AF71C0F60101002B08BF11460B910D
:104FB00000680A900D988068FBF747FA0A99024644
:104FC0000B9B41F64B50C0F6010007F097F906E045
:104FD00042F28D00C0F6010007F090F9FFE78EE085
:104FE0000D98406842F28041C0F60101FBF7C1F91B
:104FF000B8BBFFE70E9804282BD1FFE740F2C04072
:10500000C2F200000590006804900D988068FBF7DC
:105010001CFA03900D98C068FBF717FA0399024633
:10502000049805F07DF80598006806900D98806852
:10503000FBF70BFA07900D98C068FBF706FA069984
:10504000079A034641F6D670C0F6010007F056F9FC
:1050500006E042F21E10C0F6010007F04FF9FFE72C
:105060004CE00D98406841F6A771C0F60101FBF7CE
:1050700080F9D8BBFFE70E9803282FD1FFE740F255
:10508000C040C2F200000190006800900D98806856
:10509000FBF7DBF90146009804F0F2FF01460198A6
:1050A0000C910C9B41F6CA72C0F6010241F6AF7139
:1050B000C0F60101002B08BF11460B910068029059
:1050C0000D988068FBF7C1F9029902460B9B41F6E7
:1050D0002250C0F6010007F011F906E042F2F0009C
:1050E000C0F6010007F00AF9FFE706E042F2A1105E
:1050F000C0F6010007F002F9FFE7FFE7FFE7FFE76F
:1051000021E041F6AF40C0F6010007F0F7F841F6A4
:10511000F870C0F6010007F0F1F842F26010C0F636
:10512000010007F0EBF842F2BA00C0F6010007F008
:10513000E5F842F25800C0F6010007F0DFF86FF022
:10514000FE000C90FFE700200F90FFE70F9810B0D3
:1051500080BD000080B59AB019901891002017907A
:105160001998012857D1FFE7002005901690159057
:10517000149013900AF0B0FD0599149015A800F052
:105180007BFE159817901498012803DBFFE714980D
:10519000049003E0149840420490FFE704981390B1
:1051A00017A8FFF77BFE024642F29160C0F60100AD
:1051B000192107F0A3F8159942F2E450C0F6010056
:1051C00007F09CF814982D210028C8BF2B21139BB1
:1051D0004BF2C530C9F2A210A3FB0020C20A4FF463
:1051E000616002FB103048F68903C8F68803A0FB13
:1051F000033E4FEA5E134FEA031CACEB5E1CA0EBD0
:105200008C00EC46CCF8000042F2C550C0F601001C
:1052100007F074F8BCE019980728C0F2AB80FFE7EC
:1052200008A82C21FBF77DF800200790189840680B
:10523000FBF70BF9A0F26C700D9018988068FBF7E3
:1052400004F901380C901898C068FBF7FEF80B9031
:1052500018980069FBF7F9F80A9018984069FBF76D
:10526000F4F8099018988069FBF7EFF808900D980A
:10527000002807DCFFE742F2DB40C0F6010007F040
:105280003DF885E00C980C2807DBFFE742F234502C
:10529000C0F6010007F032F87AE00B9820B1FFE782
:1052A0000B98202807DBFFE742F21850C0F60100F8
:1052B00007F024F86CE00A98182807DBFFE742F2B1
:1052C0005250C0F6010007F019F861E009983C2837
:1052D00007DBFFE742F26F50C0F6010007F00EF85F
:1052E00056E008983D2807DBFFE742F2F940C0F698
:1052F000010007F003F84BE007A800F08FFD0690CF
:10530000069840B1FFE7069942F2A350C0F60100AB
:1053100006F0F4FF3CE008A802F04CFC1790179848
:105320000BF0A8F90690069840B1FFE7069942F203
:105330008E50C0F6010006F0E1FF29E017A80290A8
:1053400000F06CFD07A8FFF7A9FD024642F2876056
:10535000C0F601001921039106F0D0FF0298FFF773
:105360009DFD0399024642F2A260C0F6010006F0DC
:10537000C5FF0CE042F21C60C0F6010006F0BEFF63
:1053800042F2F550C0F6010006F0B8FFFFE7FFE774
:105390001AB080BD83B00290019102980268019911
:1053A000B2FBF1F000FB1120009002990868019A0D
:1053B000B0FBF2F00860009803B0704780B582B08F
:1053C00041F28000C2F20000006890F82900400815
:1053D000C00740B9FFE740F25C50C2F20000002174
:1053E0000170019040E040F2E050C2F2000000681D
:1053F00068B1FFE740F2E050C2F20000016840F2FD
:105400005C50C2F200008022FAF796FF0AE040F2F8
:105410005C50C2F2000043F2E741C0F60101FAF726
:10542000C3FFFFE740F25C50C2F2000009F0D2FC7B
:1054300002307F2812D8FFE740F25C50C2F2000031
:10544000009009F0C7FC024600983E21815409F003
:10545000C1FC0099014400204870FFE740F25C5015
:10546000C2F200000190FFE7019802B080BD000089
:1054700080B584B000208DF80B0041F28000C2F2AC
:105480000000006860B9FFE743F2EC40C0F601009D
:1054900043F23B51C0F60101A82204F0C1FBFFE733
:1054A00041F28000C2F200000068D0F814020190BE
:1054B000019820B9FFE74FF0FF30039032E0FFE79B
:1054C00001984FF0FF310DF10B02012305F056FC5E
:1054D000012823D0FFE741F28000C2F200000090D3
:1054E00000684FF0FF3108F0F1FB00980068D0F839
:1054F00014020199884210D0FFE741F28000C2F205
:1055000000000068D0F814020190019820B9FFE76C
:105510004FF0FF30039005E0FFE7D1E79DF80B0067
:105520000390FFE7039804B080BD000080B582B00F
:105530000190009141F28000C2F20000006860B961
:10554000FFE743F2EC40C0F6010043F20051C0F621
:105550000101C72204F064FBFFE741F28000C2F2C0
:105560000000006808F03EFB002002B080BD000093
:1055700080B586B005900020049041F28000C2F210
:105580000000006860B9FFE743F2EC40C0F601009C
:1055900043F20D51C0F60101DA2204F041FBFFE7AE
:1055A000059805F0FFFA0490049840B9FFE70599C3
:1055B00043F2C140C0F6010006F0A0FE4EE00498A0
:1055C00041F28001C2F200010968D1F81412884248
:1055D00001D1FFE742E0049840F2431105F0ECFAF4
:1055E000E0BBFFE741F28000C2F200000068D0F8A3
:1055F000140290B1FFE741F28000C2F20000039074
:105600000068D0F8140205F03DFA03980068D0F85D
:105610001402002105F028FCFFE741F28000C2F2ED
:1056200000000190006800F5DF7000210291512216
:1056300007F0FEF8019902980A68A2F810020A68B9
:10564000A2F8120204980968C1F81402049845F2FD
:105650002D51C0F6000105F007FCFFE706B080BD44
:1056600080B582B0019041F28000C2F20000006873
:1056700060B9FFE743F2EC40C0F6010043F21E516F
:10568000C0F60101942204F0CBFAFFE79DF8042054
:1056900041F28000C2F20000016891F8290002F096
:1056A000010200F0FD0040EA420081F8290002B04A
:1056B00080BD000082B001900091019840F240410D
:1056C000C2F200010860009840F24441C2F20001B9
:1056D000086002B07047000080B586B000200490DA
:1056E00044F25860C0F6010044F21871C0F601019E
:1056F000FFF7E0FF01204FF4067104F025FB01469F
:1057000041F28000C2F200000160006850B9FFE77A
:1057100043F2AC40C0F6010006F0F0FD4FF0FF3060
:10572000059030E069460A2048601420086043F282
:105730003450C0F6010045F28D71C0F60001002220
:1057400002924FF4805309F00BFD029B039041F24B
:105750008000C2F20000006843F24E51C0F6010121
:105760001A4608F0EFF90120FFF77AFF039838B1E5
:10577000FFE7049820B9FFE7039809F085FEFFE7EB
:1057800000200590FFE7059806B080BD80B590B079
:105790000F90FFE740F2B030C2F20000006838B16D
:1057A000FFE740F2B030C2F2000000688047FFE738
:1057B000FFE741F28000C2F20000026892F829106F
:1057C00041F0010182F829100068D0F8140258B99C
:1057D000FFE704F011FC0D900D9820B1FFE70D9844
:1057E000FFF7C6FEFFE7FFE7FFF7E8FD06F086FDDF
:1057F000FFE7FFF73DFE0E900E98B0F1FF3F01DC92
:10580000FFE7F6E70E981B2809D1FFE741F2800079
:10581000C2F200000168012081F82800E9E741F2A6
:105820008000C2F20000006890F82800012816D11C
:10583000FFE70E985B2809D1FFE741F28000C2F232
:1058400000000168022081F82800D2E741F28000C0
:10585000C2F200000168002081F82800EFE041F268
:105860008000C2F20000006890F82800022840F092
:10587000E580FFE741F28000C2F2000001680020ED
:1058800081F828000E9841283DD1FFE741F28000C1
:10589000C2F200000068408D012809DBFFE741F2F9
:1058A0008000C2F200000168488D0138488507E099
:1058B00041F28000C2F2000001680020488598E7AC
:1058C00041F28000C2F200000990016801F5DF702A
:1058D0004A8D02EB820201EB02112E31502206F0BA
:1058E000E5FE0998006800F5DF70FAF73BFD014618
:1058F00009980268A2F810120268A2F81212006851
:105900000AF002FF75E70E9842284AD1FFE741F2FC
:105910008000C2F200000168488D898D01398842FB
:1059200009DAFFE741F28000C2F200000168488D09
:105930000130488512E041F28000C2F200000068A8
:10594000808D48B1FFE741F28000C2F2000001689B
:10595000888D0138488500E04BE7FFE741F2800081
:10596000C2F200000890016801F5DF704A8D02EB79
:10597000820201EB02112E31502206F097FE0898A8
:10598000006800F5DF70FAF7EDFC01460898026840
:10599000A2F810120268A2F8121200680AF0B4FE0F
:1059A00027E70E9844281BD1FFE741F28000C2F29E
:1059B00000000068B0F8120288B1FFE743F2AA4085
:1059C000C0F6010006F09AFC41F28000C2F200002D
:1059D0000168B1F812020138A1F81202FFE708E7E6
:1059E0000E98432826D1FFE741F28000C2F2000062
:1059F0000168B1F81202B1F81012884219DAFFE713
:105A000041F28000C2F2000007900068B0F8121264
:105A1000084490F8BE1143F2FD40C0F6010006F0C4
:105A20006DFC07980168B1F812020130A1F812026A
:105A3000FFE7DEE6FFE7FFE7FFE7FFE7FFE7FFE758
:105A40000E9820B1FFE70E98FF2801D1FFE7D0E6BE
:105A50000E98092831D1FFE700200C90FFE70C9841
:105A600041F28001C2F200010968B1F812128842C5
:105A70000BDAFFE743F2AA40C0F6010006F03EFC55
:105A8000FFE70C9801300C90E9E741F28000C2F288
:105A900000000690006800F5DF700AF019FE069815
:105AA000006800F5DF70FAF75DFC06990A68A2F855
:105AB00010020968A1F812029BE60E987F2804D014
:105AC000FFE70E98082878D1FFE741F28000C2F284
:105AD00000000068B0F8120208B9FFE789E641F259
