:020000040800F2
:1000000070230020AD010008B5010008B902000806
:10001000B9010008BB010008BD0100080000000094
:10002000000000000000000000000000BF01000808
:10003000C101000800000000FF010008ED100008E9
:10004000C7010008C7010008C7010008C701000870
:10005000C7010008C7010008190600085D0600086E
:10006000710600088506000899060008C701000807
:10007000C7010008C7010008C7010008C701000840
:10008000C7010008C7010008C7010008C701000830
:10009000C7010008C7010008C7010008AD06000835
:1000A000C7010008C7010008C7010008C701000810
:1000B000C7010008C7010008C7010008C701000800
:1000C000C7010008C7010008C7010008C7010008F0
:1000D000C7010008C7010008C7010008D1110008C6
:1000E0002D060008C7010008C7010008C701000865
:1000F000C7010008C7010008C7010008C7010008C0
:10010000C7010008C7010008C7010008C7010008AF
:10011000C7010008C7010008C7010008C70100089F
:10012000C7010008C7010008C7010008C70100088F
:10013000C7010008C7010008C7010008C70100087F
:10014000C7010008C7010008C7010008C70100086F
:10015000C7010008C7010008C7010008C70100085F
:10016000C7010008C7010008C7010008C70100084F
:10017000C7010008C7010008C7010008C70100083F
:10018000C7010008C7010008C7010008C70100082F
:10019000C7010008C7010008DFF80CD000F0EAF939
:1001A000004800470D0600087023002006488047DD
:1001B00006480047FEE7FEE7FEE7FEE7FEE7FEE74C
:1001C000FEE7FEE7FEE7FEE7FD10000899010008E4
:1001D000EFF3108072B6704780F310887047444A7E
:1001E0001368012B04D04FF001031360414A1060E3
:1001F000414A116041484FF0805101607047EFF370
:10020000108272B63A48016851B34FF000010160A4
:100210003848016891B1EFF309811EF0100F08BF53
:1002200021ED108B21E9F00F4FF000041EF0100FAC
:1002300008BF012441F8044D006801602E49096897
:10024000096808C9B1E8F00F002B18BFB1EC108B9A
:1002500081F309884EF0100E002B18BF2EF0100EFF
:1002600082F310884EF0040E704723490860EFF3C4
:10027000148222F0040282F314881E494FF0000019
:1002800008601B494FF0010008601D481D49D0F867
:10029000002041EA0201016018484FF080510160DE
:1002A00019480068006880F3088861B662B6BFF339
:1002B0004F8FBFF36F8F70471EF0040F0CBFEFF32B
:1002C0000880EFF3098020E9F00F40F804ED40F8D2
:1002D00004ED1EF0040F0CBF80F3088880F309883A
:1002E00000B50AF02BFB5DF804EB4EF0040E7047EE
:1002F000E40E0020240D0020300D002004ED00E06D
:1003000020ED00E00000FFFF08ED00E0004870472E
:10031000C4FC0008D2B201E000F8012B491EFBD258
:1003200070470022F6E710B513460A460446194600
:10033000FFF7F0FF204610BD10B5044604E00B782F
:1003400000F8013B03B1491C521EF8D2204610BDF3
:10035000CAB2401E10F8011F8A4202D00029F9D10A
:1003600000207047421C10F8011B0029FBD1801AA5
:10037000704710B5002200E0521C835C8C5CA342E5
:1003800001D1002BF8D1D8B2E1B2401A10BD30B57E
:1003900004460020034600E05B1C934203D2E05C6D
:1003A000CD5C401BF8D030BD034611F8012B00F89E
:1003B000012B002AF9D11846704730B505460020B8
:1003C000034600E05B1C934205D2EC5CC85C201A3B
:1003D00001D1002CF6D130BD2DE9F05F93460F46D8
:1003E0008046044600260FF019FCD0F800908246A3
:1003F00014F8015B2DB1FFF789FF0068405DC0076D
:10040000F6D12B2D02D02D2D1AD0641E0021CAF852
:1004100000105A463946204600F024F8014627B11C
:100420003868A04201D1C7F80080DAF8000002283D
:1004300009D0CAF80090700505D54842BDE8F09F84
:1004400046F48066E2E70846F8E770B506460FF026
:10045000E5FB046805460A220021304600F051F809
:100460002C6070BD2DE9F05F8246007800271546AC
:100470008B460AF10104B946302801D09DB113E042
:1004800014F8010B0127782803D0582801D045B172
:100490000AE00DB1102D07D10027102514F8010B2B
:1004A00002E0082500E00A250026B0460EE005FB24
:1004B000080005FB06F1012701EB10461FFA80F842
:1004C000B6F5803F00D3B94614F8010B294600F079
:1004D00063F80028EBDABBF1000F05D00FB1641E02
:1004E00000E05446CBF80040B9F1000F06D00FF001
:1004F00095FB02210160C81EBDE8F09F48EA064056
:10050000FAE72DE9F04791460F468046044600265B
:1005100014F8015B2DB1FFF7F9FE0068405DC007DC
:10052000F6D12B2D02D02D2D18D0641E4A46394607
:100530002046FFF797FF27B13968A14201D1C7F8DC
:10054000008071054FF002040BD54042002803DD06
:100550000FF064FB0460A007BDE8F08746F48066F6
:10056000E4E70028F8DA0FF059FB04606FF0004070
:10057000F2E70000064C074D06E0E06840F001039A
:1005800094E8070098471034AC42F6D3FFF708FE12
:10059000EC3501080C3601083A2800D2303820F03A
:1005A0002002412A01D3A2F13700884201D34FF043
:1005B000FF30704770B58C1810F8015B15F0070319
:1005C00001D110F8013B2A1106D110F8012B03E0EC
:1005D00010F8016B01F8016B5B1EF9D12B0705D4F4
:1005E0000023521E0DD401F8013BFAE710F8013B3D
:1005F000CB1A921C03E013F8015B01F8015B521E59
:10060000F9D5A142D8D3002070BD000080B50EF00E
:10061000ADFF002080BD000080B50AF0FDFE002087
:1006200000F060FA0AF026FF80BD000080B50AF0F5
:10063000F3FE0A2000F056FA0B2000F053FA0C20CB
:1006400000F050FA0D2000F04DFA0E2000F04AFAAA
:100650000F2000F047FA0AF00DFF80BD80B50AF0C8
:10066000DBFE012000F03EFA0AF004FF80BD00002E
:1006700080B50AF0D1FE022000F034FA0AF0FAFE4A
:1006800080BD000080B50AF0C7FE032000F02AFA02
:100690000AF0F0FE80BD000080B50AF0BDFE042027
:1006A00000F020FA0AF0E6FE80BD000080B50AF0F6
:1006B000B3FE052000F016FA062000F013FA07201A
:1006C00000F010FA082000F00DFA092000F00AFAF4
:1006D0000AF0D0FE80BD000081B00090009840F28A
:1006E0001441C4F20101086001B0704783B0029068
:1006F00000208DF80700009040F20040C4F2010095
:10070000006802990840009040F21440C4F20100D1
:1007100000680299084207D0FFE7009820B1FFE780
:1007200001208DF8070003E000208DF80700FFE7A7
:100730009DF8070003B0704782B001900020009040
:1007400040F20040C4F20100009001988079002836
:1007500059D0FFE70198026840F20041C4F201015C
:100760000868904308600198026840F20441C4F2AE
:1007700001010868904308600198017900980844D5
:100780000090019802680099086810430860019879
:10079000026840F20841C4F2010108689043086011
:1007A0000198026840F20C41C4F2010108689043CC
:1007B000086001984079102813D1FFE7019802687A
:1007C00040F20841C4F20101086810430860019832
:1007D000026840F20C41C4F201010868104308604D
:1007E00010E040F20040C4F201000090019841790D
:1007F0000098084400900198026800990868104326
:100800000860FFE70BE00198017900980844009028
:10081000019802680099086890430860FFE702B0F9
:100820007047000082B08DF807008DF80610002098
:1008300000909DF8060000F0030081000F20884022
:100840000090009B9DF8060000F0FC010822C4F215
:1008500001028858984388509DF807109DF80600BB
:1008600000F003039B0001FA03F300F0FC01885839
:100870001843885002B0704788B007900691002056
:100880000590049003900290019000900698C07823
:1008900000F00F0005900698C078C006002806D525
:1008A000FFE706988178059808430590FFE70698CA
:1008B000007800284BD0FFE70798006801900020DF
:1008C0000390FFE7039807283DD8FFE7039901202D
:1008D0008840029006980088029908400490049885
:1008E000029988422AD1FFE703988000029002997A
:1008F0000F20884000900099019888430190059846
:10090000029900FA01F10198084301900698C07815
:10091000282806D1FFE703990120884007994861FC
:100920000BE00698C078482806D1FFE7039901201C
:10093000884007990861FFE7FFE7FFE7FFE70398B3
:1009400001300390BEE7019807990860FFE7069819
:100950000088B0F5807F50DBFFE707984068019082
:1009600000200390FFE70398072842D8FFE7039889
:1009700000F1080101208840029006980088029941
:10098000084004900498029988422DD1FFE703980B
:100990008000029002990F208840009000990198F1
:1009A000884301900598029900FA01F101980843E3
:1009B00001900698C078282808D1FFE7039800F135
:1009C00008010120884007994861FFE70698C07830
:1009D000482808D1FFE7039800F10801012088406A
:1009E00007990861FFE7FFE7FFE7039801300390ED
:1009F000B9E7019807994860FFE708B07047000021
:100A000081B0009000994FF6FF7008800099012096
:100A1000887000990420C87001B0704782B00190BE
:100A2000ADF8021000208DF8010001988068BDF833
:100A30000210084204D0FFE701208DF8010003E016
:100A400000208DF80100FFE79DF8010002B070471B
:100A500082B00190ADF802108DF801209DF80100E0
:100A600028B1FFE7BDF802000199086104E0BDF874
:100A7000020001994861FFE702B0704781B0ADF80C
:100A80000200BDF8020043F20801C4F20001086050
:100A900001B0704743F20001C4F200014CF6CC40B3
:100AA0000860704743F20001C4F200014AF6AA2030
:100AB0000860704781B08DF803009DF8030043F291
:100AC0000401C4F20001086001B0704781B0ADF8C4
:100AD0000200BDF8020043F20001C4F20001086008
:100AE00001B0704780B582B08DF807009DF90710FE
:100AF00001208840FFF7FAFD58B1FFE79DF9070094
:100B000007F08AFF9DF9071001208840FFF7E4FDF8
:100B1000FFE702B080BD000080B54FF0006000210B
:100B200000F066F880BD000084B0039000200290C1
:100B300001900F2000900398C078C0B3FFE74EF6F5
:100B40000C50CEF200000068C043C0F302200290B7
:100B50000298C0F10400019000980299C8400090EA
:100B60000398407801998840029003988078009912
:100B700001400298084302900298000102900298F6
:100B8000039909784EF20042CEF20002885403988D
:100B9000027802F01F01012088404EF20011CEF2CF
:100BA000000141EAD20121F0030108600FE003983F
:100BB000027802F01F01012088404EF28011CEF22F
:100BC000000141EAD20121F003010860FFE704B00F
:100BD0007047000081B0009000980021C0F2FA51E7
:100BE00008434EF60C51CEF20001086001B0704788
:100BF00082B001900091019800994FF68072C1F681
:100C0000FF72114008434EF60851CEF20001086011
:100C100002B0704782B001908DF803109DF8030078
:100C200048B1FFE7019A41F21C01C4F202010868D1
:100C30001043086008E0019A41F21C01C4F202016D
:100C4000086890430860FFE702B0704782B00190E7
:100C50008DF803109DF8030048B1FFE7019A41F2B7
:100C60001801C4F2020108681043086008E0019A04
:100C700041F21801C4F20201086890430860FFE7DE
:100C800002B0704781B08DF803009DF8030040F278
:100C90008041C4F24221086001B0704787B00690DD
:100CA00000200590049003900290019041F204000E
:100CB000C4F2020001680022C0F63C021140039118
:100CC000006800F4803002909DF80F0000070028B3
:100CD00006D4FFE70399022000EB9140039006E061
:100CE00003996FF4F77000EB91400390FFE70298CF
:100CF00040B9FFE7039840F60011C0F23D014843B8
:100D0000049019E041F20400C4F20200006880037C
:100D1000002808D5FFE7039841F20021C0F27A01CC
:100D20004843049007E0039842F20041C0F2F40106
:100D300048430490FFE7FFE741F20400C4F20200D9
:100D4000006800F00C0005900598009040B1FFE7A6
:100D5000009804280BD0FFE7009808280ED011E077
:100D6000069941F20020C0F27A00086011E006996D
:100D700042F20040C0F2F40008600AE004980699CC
:100D8000086006E0069941F20020C0F27A0008608F
:100D9000FFE741F20401C4F20201086800F0F0002C
:100DA0000590059800090590059A40F2CE30C0F6EE
:100DB0000100825C0192069B1A68DDF804C022FAE9
:100DC0000CF25A600A6802F4E0620592059A120A6F
:100DD0000592059A825C0192069B5A68DDF804C070
:100DE00022FA0CF29A60096801F4605105910599A4
:100DF000C90A05910599405C019006994868019AD5
:100E0000D040C86041F22C00C4F20200016801F039
:100E10000F010591059A40F29E31C0F60101895CEF
:100E20000191069A5168019BB1FBF3F15161006891
:100E300000F4F8700590059800090590059800F0F9
:100E40000F0140F2AE30C0F6010030F81100019001
:100E500004980199B0FBF1F00699086107B070475A
:100E600084B08DF80F000020029001908DF80300EF
:100E70009DF80F00400902900298012807D1FFE772
:100E800041F20000C4F202000068019012E00298F2
:100E9000022807D1FFE741F22000C4F202000068F7
:100EA000019006E041F22400C4F2020000680190C3
:100EB000FFE7FFE79DF80F0000F01F000290019888
:100EC0000299C840C00720B1FFE701208DF8030058
:100ED00003E000208DF80300FFE79DF8030004B055
:100EE0007047000080B584B00290029908688A6853
:100EF000012190470298006908B9FFE71BE00DF057
:100F0000C5FB0190FFE7029908680969884788B91D
:100F1000FFE70DF0BBFB0199401A0299C9698842AD
:100F200004D9FFE76FF0740003900AE0029804F020
:100F30000FFCE8E7FFE7029804F00AFC00200390AA
:100F4000FFE7039804B080BD85B0002004908DF8C1
:100F50000F00029041F20001C4F20201086840F45F
:100F600080300860FFE741F20000C4F20200006830
:100F7000C0F340408DF80F00029801300290FFE767
:100F80009DF80F100020C907019039B9FFE70298BA
:100F9000B0F5004018BF01200190FFE70198C0079D
:100FA0000028E0D1FFE741F20000C4F2020000682F
:100FB000C0F340408DF80F009DF80F00C00750B9F6
:100FC000FFE740F20801C2F2000141F20020C0F246
:100FD0007A0008605EE042F20001C4F20201086893
:100FE00020F007000860086840F00400086041F243
:100FF0000401C4F20201009108680860086840F426
:1010000000500860086840F4A060086008684FF667
:10101000FF72CFF2C0721040086008680490049814
:1010200040F480300490049840F400300490049818
:101030000022C0F60402104304900498086041F2B4
:101040000001C4F20201086840F080700860FFE708
:1010500041F20000C4F2020000688001002801D4BF
:10106000FFE7F5E741F20401C4F20201086820F04D
:1010700003000860086840F002000860FFE741F2E2
:101080000400C4F20200006800F00C00082801D03F
:10109000FFE7F4E705B0704780B582B00090009894
:1010A0000138B0F1807F03D3FFE70120019019E000
:1010B000009801384EF21401CEF2000108604FF0A2
:1010C000FF300F2100F072FA4EF21801CEF200014B
:1010D000002008604EF21002CEF2000207211160DB
:1010E0000190FFE7019802B080BD000080B50AF0D2
:1010F00093F90DF0D3FA0AF0BDF980BD80B54EF634
:101100008851CEF20001086840F47000086041F296
:101110000002C4F20202106840F00100106041F2C7
:101120000401C4F2020108684CF20003CFF6FF0389
:101130001840086010684FF6FF73CFF6F66318404A
:101140001060106820F48020106008684FF6FF726D
:10115000CFF200721040086041F22C01C4F202018B
:101160004FF46050086041F23001C4F202014FF4C4
:101170006150086041F20801C4F202014FF41F00FF
:10118000086041F21C01C4F20201086840F080507E
:10119000086047F20C02C4F20002106840F001003F
:1011A0001060086820F08050086042F20001C4F22C
:1011B0000201086840F090000860FFF7C5FE4EF697
:1011C0000851CEF200014FF00060086080BD0000C1
:1011D00080B50AF021F940F6F860C2F200000EF086
:1011E0005FFC0AF047F980BD86B00590ADF812109B
:1011F0008DF8112000200390029001900090BDF81E
:10120000120040F66A11884201D1FFE7FFE7059816
:1012100000909DF8120040090390BDF8120000F004
:101220001F00029002990120884001900398012834
:1012300004D1FFE700980C3000900CE003980228DE
:1012400004D1FFE700981030009003E000981430BC
:101250000090FFE7FFE79DF8110030B1FFE7019A2A
:10126000009908681043086005E0019A0099086831
:1012700090430860FFE706B07047000082B001901D
:101280008DF803109DF8030030B1FFE701998889BC
:1012900040F40050888105E00199888920F40050CD
:1012A0008881FFE702B0704782B00190ADF802106C
:1012B00000208DF80100BDF80200B0F5007F01D1DB
:1012C000FFE7FFE701980088BDF80210084000041E
:1012D00020B1FFE701208DF8010003E000208DF828
:1012E0000100FFE79DF8010002B0704786B005904D
:1012F000ADF8121000200390029001908DF80300C9
:10130000BDF8120040F66A11884201D1FFE7FFE7FD
:101310009DF8120040090190BDF8120000F01F0076
:10132000029002990120884002900198012806D17C
:10133000FFE70598818902980840029010E0019823
:10134000022806D1FFE70598018A0298084002901A
:1013500005E00598818A029808400290FFE7FFE7C0
:101360009DF813000390039901208840039005988D
:101370000188039808400390029838B1FFE703986A
:1013800020B1FFE701208DF8030003E000208DF875
:101390000300FFE79DF8030006B0704780B58EB0EC
:1013A0000D900C9100200B900A90099008900790E6
:1013B0000C98808908B1FFE7FFE70D9807900D981A
:1013C000008A0B900B984CF6FF7108400B900C981C
:1013D000C1880B9808430B900B980D9908820D98C3
:1013E00080890B900B984EF6F31108400B900C99E6
:1013F00088880A891043498901430B9808430B9058
:101400000B980D9988810D98808A0B900B984FF658
:10141000FF4108400B900C9881890B9808430B9072
:101420000B980D99888201A8FFF738FC079843F6BE
:101430000001C4F20101884210D0FFE7079845F28D
:101440000001C4F20101884208D0FFE7079845F285
:101450000041C4F20101884203D1FFE704980A90D9
:1014600002E003980A90FFE70A98192148430C9973
:1014700009688900B0FBF1F00990099848F21F5102
:10148000C5F2EB11A0FB01026FF00F0000EA520061
:101490000B90099B0B980009642200FB123232204A
:1014A00000EB0210A0FB01104009089008990120F0
:1014B000B0EB111F0ED1FFE7099848F21F51C5F29A
:1014C000EB11A0FB01016FF00F0000EA510010309A
:1014D0000B90FFE7089800F00F010B9808430B9062
:1014E0000B980D9908810EB080BD000081B000906E
:1014F000009880886FF35F2001B0704782B0019040
:10150000ADF80210BDF802006FF35F2001998880EA
:1015100002B0704781B08DF803009DF903000028E8
:1015200012D4FFE79DF9031001F01F020120904043
:101530004A094EF28011CEF2000141F82200BFF3B9
:101540004F8FBFF36F8FFFE701B0704781B08DF809
:1015500003009DF9030000280ED4FFE79DF9031056
:1015600001F01F02012090404A094EF20011CEF214
:10157000000141F82200FFE701B0704781B08DF80B
:1015800003009DF9030000280ED4FFE79DF9031026
:1015900001F01F02012090404A094EF20011CEF2E4
:1015A000000141F82200FFE701B0704782B08DF8DA
:1015B000070000919DF9070000280AD4FFE7009872
:1015C00000019DF907104EF20042CEF2000288544D
:1015D0000BE0009800019DF8071001F00F014EF696
:1015E0001452CEF200028854FFE702B070470000A8
:1015F00082B08DF8070000919DF9070000280AD4F9
:10160000FFE7009800019DF907104EF20042CEF26C
:10161000000288540BE0009800019DF8071001F0CB
:101620000F014EF61452CEF200028854FFE702B0CA
:101630007047000082B08DF8070000919DF9070007
:1016400000280AD4FFE7009800019DF907104EF228
:101650000042CEF2000288540BE0009800019DF891
:10166000071001F00F014EF61452CEF2000288541A
:10167000FFE702B07047000083B002900298C117E4
:1016800000EB917121F00301411A0020019081BB10
:10169000FFE7029901204BF65003C0F21E5345F6B6
:1016A0002942CCF28F2201FB02314FEAB10145F60B
:1016B0002842C0F28F229142009017D8FFE702988B
:1016C0004BF65002C0F21E5245F62941CCF28F2152
:1016D00000FB01204FEA30114DF20B72C0F2A30261
:1016E0000020914238BF01200090FFE70098019050
:1016F000FFE7019800F0010003B0704781B000904F
:101700000098002804D090FAA0F0B0FA80F0401CB5
:101710000090009801B0704780B586B005900491A4
:1017200003926FF00400029005980190049841F62E
:10173000013188420ED1FFE70198406C006848B142
:10174000FFE70198416C0B689DF90C100122984746
:10175000029056E0049841F6023188420ED1FFE72C
:101760000198406C006848B1FFE70198416C0B6834
:101770009DF90C1000229847029041E0049841F630
:10178000033188421AD1FFE70198406C8068A8B104
:10179000FFE7039890B1FFE70198416C896888479B
:1017A0008DF803009DF8030038B1FFE79DF80300B2
:1017B0000399087000200290FFE720E0049841F6AA
:1017C000043188421AD1FFE70198406CC068A8B183
:1017D000FFE7039890B1FFE70198416CC96888471B
:1017E000ADF80000BDF9000038B1FFE7BDF800001A
:1017F0000399088000200290FFE7FFE7FFE7FFE77B
:10180000FFE7029806B080BD80B584B003900291D6
:10181000002001900298007FFF2808D1FFE703987D
:101820000AF0BEFE0299497F884210D1FFE7FF20EF
:101830008DF80300039801F0F7FA8DF80300039880
:101840009DF803100AF05EFE01200190FFE7019869
:1018500004B080BD80B586B00490049860B9FFE7FD
:1018600040F62630C0F6010040F66831C0F60101AE
:101870008E2207F087FCFFE740F26430C2F20000DE
:101880000CF072F9039004980078C00758B1FFE794
:10189000039940F26430C2F200000CF0C7F96FF017
:1018A0001600059021E00498006820F001000190E6
:1018B000019848B1FFE701980CF076FD029002987C
:1018C00008B1FFE7FFE703E06FF043000290FFE796
:1018D000049901200860039940F26430C2F20000CC
:1018E0000CF0A4F902980590FFE7059806B080BDBA
:1018F00080B586B0049003916FF0FE00029040F234
:101900007030C2F20000006860B9FFE740F2985002
:10191000C0F6010008F0F8FB40F27031C2F200019D
:101920000860FFE740F27030C2F200000068E0B1EA
:10193000FFE740F27030C2F200000068002108F0BA
:10194000EDFB88B9FFE740F27030C2F20000019071
:1019500000680499039A08F09DFB014601980291E2
:10196000006808F041FBFFE717E0FFE740F2DC40CA
:10197000C0F6010009F098FD40F23950C0F60100B0
:1019800009F092FD40F2D640C0F6010009F08CFD4E
:10199000FFE76FF02C00059002E002980590FFE74A
:1019A000059806B080BD000080B582B00CF04AFDFD
:1019B00050B1FFE740F2D430C2F200004FF0FF31E7
:1019C0000AF0DAF9019002E000200190FFE70198A7
:1019D00002B080BD80B540F2D430C2F2000042F2C5
:1019E0008111C0F6010101220AF060F880BD0000FB
:1019F00080B582B00190019868B1FFE742F66000BF
:101A0000C0F6010042F6F701C0F601014FF42C7256
:101A100007F0B8FBFFE70CF015FD38B1FFE740F227
:101A2000D430C2F200000AF079F8FFE702B080BDBE
:101A300080B582B001900198143009F06FFD00204C
:101A400002B080BD80B582B00190009140F26C3050
:101A5000C2F20000006820B9FFE7019808F06AFFB1
:101A60000AE040F26C30C2F200000068019A009B6C
:101A7000002108F0D9FCFFE702B080BD80B594B02A
:101A800012901191109200200E90129868B9FFE701
:101A900042F2C330C0F6010042F2B931C0F6010192
:101AA0004FF4897207F06EFBFFE7109868B9FFE703
:101AB00042F2C730C0F6010042F2B931C0F601016E
:101AC00040F2131207F05EFBFFE7FFE70E99119A51
:101AD00000209142029013D2FFE712980E99415CC8
:101AE00000202029019008D0FFE712980E99405C51
:101AF000093818BF01200190FFE701980290FFE725
:101B00000298C00720B1FFE70E9801300E90DDE784
:101B10000E9820B9FFE76FF0FE00139027E01298AF
:101B20000E9905F007FE0D900D9820B9FFE76FF0B4
:101B3000FE0013901BE003A800900021282209F06A
:101B40004DFF009A1298119905F0B4FF0F900F986D
:101B500020B9FFE76FF0FE00139008E00D9A0F9890
:101B600003A990471099086000201390FFE713988D
:101B700014B080BD80B582B001900198143009F096
:101B80008DFD50B9FFE7019840692C38009000980E
:101B90000AF006FD0199487703E00199FF20487794
:101BA000FFE70198407F02B080BD000080B582B0A1
:101BB000019000910198022803DCFFE700F0F8F89B
:101BC00041E00098416841F27940C0F601000CF014
:101BD00087F828B9FFE70198009900F03FF832E054
:101BE0000098416842F2F420C0F601000CF078F849
:101BF00028B9FFE70198009900F05CF822E000980E
:101C0000416842F62270C0F601000CF069F828B96C
:101C1000FFE70198009900F00FF912E00098416881
:101C200041F25D40C0F601000CF05AF828B9FFE718
:101C30000198009900F04AF902E000F0B9F802E0DA
:101C4000FFE7FFE7FFE702B080BD000080B582B08C
:101C5000019001980AF012FB02B080BD80B584B0FB
:101C6000039002910398022803DCFFE700F0A0F83C
:101C70001EE002988068FFF7E9FF01900198B0F13B
:101C8000FF3F0BDCFFE70298816841F21420C0F6A9
:101C9000010009F009FC00F08BF809E00298816866
:101CA000019A41F26820C0F6010009F0FDFBFFE750
:101CB00004B080BD80B584B00390029103980328DE
:101CC00003DCFFE700F074F86FE00298806805F02D
:101CD000D5FDB0B9FFE702988068FFF7B7FF019024
:101CE0000198B0F1FF3F0BDCFFE70298816841F2F9
:101CF0001420C0F6010009F0D7FB00F059F854E0B9
:101D000005E002988068FEF7A0FB0190FFE70298CB
:101D1000C16841F2AD40C0F601000BF0E1FF18B917
:101D2000FFE7002000903AE00298C16841F2A74026
:101D3000C0F601000BF0D4FF18B9FFE701200090B6
:101D40002CE00298C16841F28F40C0F601000BF010
:101D5000C7FF18B9FFE7022000901EE00298C16893
:101D600041F28040C0F601000BF0BAFF18B9FFE75E
:101D70000320009010E00298C16841F24040C0F694
:101D800001000BF0ADFF18B9FFE70420009002E05E
:101D900000F00EF809E0FFE7FFE7FFE7FFE7019833
:101DA0009DF800100AF09AFAFFE704B080BD000029
:101DB00080B541F22D20C0F6010009F075FB41F21B
:101DC0003130C0F6010009F06FFB41F27120C0F61E
:101DD000010009F069FB41F2C530C0F6010009F0CD
:101DE00063FB41F20230C0F6010009F05DFB41F2F5
:101DF0004020C0F6010009F057FB41F26230C0F606
:101E0000010009F051FB41F2D420C0F6010009F0B5
:101E10004BFB41F2A630C0F6010009F045FB41F250
:101E20000340C0F6010009F03FFB41F64770C0F6E1
:101E300001000AF023FA80BD80B584B003900291BE
:101E40000398022803DCFFE7FFF7B2FF3BE00298AC
:101E5000806805F013FDB0B9FFE702988068FFF7CE
:101E6000F5FE01900198B0F1FF3F0BDCFFE702980F
:101E7000816841F21420C0F6010009F015FBFFF75C
:101E800097FF20E005E002988068FEF7DEFA0190F7
:101E9000FFE701980AF046FA8DF803009DF8030069
:101EA000012808D1FFE7019941F2C420C0F60100E2
:101EB00009F0FAFA07E0019941F2F430C0F60100A6
:101EC00009F0F2FAFFE704B080BD000080B584B0ED
:101ED000039002910398032803DCFFE7FFF768FFF4
:101EE0005BE00298806805F0C9FCB0B9FFE7029892
:101EF0008068FFF7ABFE01900198B0F1FF3F0BDC6B
:101F0000FFE70298816841F21420C0F6010009F051
:101F1000CBFAFFF74DFF40E005E002988068FEF73E
:101F200094FA0190FFE70298C16841F26740C0F659
:101F300001000BF0D5FE50B1FFE70298C16841F2F5
:101F40007D40C0F601000BF0CBFE20B9FFE7012079
:101F50008DF803001BE00298C16841F2B440C0F65E
:101F600001000BF0BDFE50B1FFE70298C16841F2DD
:101F70006340C0F601000BF0B3FE20B9FFE700207C
:101F80008DF8030002E0FFF713FF06E0FFE701987A
:101F90009DF803100AF0E6F9FFE704B080BD0000E9
:101FA00080B586B004900391029204980090009846
:101FB00060B9FFE741F20E40C0F6010041F26C410A
:101FC000C0F60101372207F0DDF8FFE70298019023
:101FD000019820B9FFE76FF0FE0005900AE0009835
:101FE000406C03680498019A1168127998470020A0
:101FF0000590FFE7059806B080BD000080B588B069
:10200000069005910492039306980190019860B997
:10201000FFE741F20E40C0F6010041F23641C0F642
:102020000101162207F0AEF8FFE70498029002982B
:1020300020B1FFE70398082803D0FFE700200790AE
:102040000BE00198406C82680698029909689047F5
:102050000299087103980790FFE7079808B080BDC0
:1020600080B588B00690059104920393069801907C
:10207000019860B9FFE741F20E40C0F6010041F25D
:102080005841C0F60101262207F07CF8FFE70498CA
:102090000290029820B1FFE70398082803D0FFE7D9
:1020A000002007900AE00198406C43680698029A65
:1020B00011681279984703980790FFE7079808B0CE
:1020C00080BD000080B592B010900F910E92FFE796
:1020D00007F082FAA8B1FFE740F6C520C0F601007C
:1020E00042F23E51C0F60101079109F0DDF907996E
:1020F00040F2CF40C0F6010040F2335207F042F800
:10210000FFE7FFE70CF09EF9A8B9FFE740F6EF20E4
:10211000C0F6010042F23E51C0F60101069109F0FD
:10212000C3F9069940F2CF40C0F6010040F23352A5
:1021300007F028F8FFE7FFE709F088F9A8B1FFE703
:1021400040F69E20C0F6010042F23E51C0F6010169
:10215000059109F0A9F9059940F2CF40C0F60100B8
:1021600040F2335207F00EF8FFE7FFE7FFE7FFE723
:10217000109868B9FFE742F2E140C0F6010042F270
:102180003E51C0F6010140F2365206F0FBFFFFE778
:10219000109809F0BDFF03280DD0FFE742F204605C
:1021A000C0F6010042F23E51C0F6010140F2375242
:1021B00006F0E8FFFFE70CF045F90D9010982C3081
:1021C0000BF0B2FCFFE740F6C850C2F20000006816
:1021D00040B1FFE740F6C850C2F200000168109815
:1021E0008847FFE7FFE70D99002088621098006A92
:1021F0000D99884213D1FFE71098807FFE2805DCF7
:10220000FFE71099887F0130887707E010982C301D
:102210000BF004FD6FF02200119041E128E11098CD
:10222000006A40BBFFE70D98109908621099FF20E3
:1022300048771099012088771098007FFF2813D0E5
:10224000FFE71098017F0491006A0AF0A9F901469E
:102250000498884207DAFFE71099086A097F0E9A06
:1022600000F0D4FFFFE7FFE70D9878301099243194
:1022700009F088F9FBE00F9858B9FFE70D99752030
:10228000886210982C300BF0C9FC6FF0740011902C
:1022900006E10D98109A02F11401527A0E9B0CF08F
:1022A00019F90C900C9838B1FFE710982C300BF00E
:1022B000B5FC0C981190F3E010980D99C1F88000CE
:1022C0000BA80AF0D3F80D980AF06AF98DF82B00E4
:1022D0009DF82B001099497F884218DAFFE79DF896
:1022E0002B00109948771098417F0391006A0AF0FB
:1022F00057F901460398884208DAFFE71098006A08
:102300009DF82B10022200F081FFFFE7FFE70B98FA
:102310000AF03EFA0F9801280BDBFFE70D984830D2
:1023200000210FAA0CF0AAFA0D9848300CF0ECFB33
:10233000FFE710982C300BF071FC0AF043FA10986C
:102340002C300BF0F1FB0D98806AA0B9FFE71098D4
:10235000006A0D9988420DD0FFE742F21A50C0F68C
:10236000010042F23E51C0F6010140F2B15206F0C6
:1023700009FFFFE779E0002009901098006A0D99A5
:1023800088420DD1FFE742F20350C0F6010042F24D
:102390003E51C0F601014FF4B76206F0F3FEFFE7CD
:1023A0000D98806A0C900BA80AF060F81098006AEB
:1023B00080B1FFE71098006A0AF0F2F802900D98D9
:1023C0000AF0EEF801460298884203D1FFE70120A7
:1023D0000990FFE71098143009F060F950B9FFE751
:1023E000109840692C38089008980AF0D9F810998C
:1023F000487703E01099FF204877FFE70998D8B1A4
:10240000FFE71098006A00F00FFD8DF82B009DF893
:102410002B0001901098006A0AF0C2F8014601985A
:10242000884208D0FFE71098006A9DF82B1002221E
:1024300000F0ECFEFFE7FFE70B980AF0A9F910980F
:102440002C300BF0EBFB0D990020C1F880000C98AC
:10245000012804DBFFE70C984042009002E00C9852
:102460000090FFE7009811901AE0FFE7FFE7FFE711
:1024700010982C300BF0D2FBFFE740F6C450C2F2AC
:102480000000006840B1FFE740F6C450C2F200000F
:10249000016810988847FFE7FFE700201190FFE7E9
:1024A000119812B080BD000080B58CB00A900991DF
:1024B00008920A9868B9FFE742F2BD40C0F60100F1
:1024C00042F23151C0F6010140F2352206F05AFEC7
:1024D000FFE70A9809F01CFE02280DD0FFE742F240
:1024E0004D50C0F6010042F23151C0F6010140F2F8
:1024F000362206F047FEFFE7FFE740F6C850C2F27B
:102500000000006840B1FFE740F6C850C2F200008A
:1025100001680A988847FFE7FFE7FFE707F05CF8E4
:10252000A8B1FFE740F6C520C0F6010042F23151E4
:10253000C0F60101049108F0B7FF049940F2CF40C2
:10254000C0F6010040F23B2206F01CFEFFE7FFE769
:102550000BF078FFA8B9FFE740F6EF20C0F60100C6
:1025600042F23151C0F60101039108F09DFF039939
:1025700040F2CF40C0F6010040F23B2206F002FEDE
:10258000FFE7FFE708F062FFA8B1FFE740F69E20F3
:10259000C0F6010042F23151C0F60101029108F08B
:1025A00083FF029940F2CF40C0F6010040F23B2287
:1025B00006F0E8FDFFE7FFE7FFE7FFE70A982030B6
:1025C0000BF00EFB07900A98808B01280ADBFFE7CF
:1025D0000A99888B013888830A98203007990BF074
:1025E00061FB52E0099848B9FFE70A982030079943
:1025F0000BF058FB6FF074000B905AE00BF022FFC9
:10260000069006990B20886206980A9A02F1140136
:10261000527A089B0BF05EFF0590059840B1FFE7EA
:102620000A98203007990BF03DFB05980B9040E08D
:10263000099801280BDBFFE706984830002109AA1A
:102640000CF01CF9069848300CF05EFAFFE70A9887
:10265000203007990BF026FB0AF0B4F80698806A40
:1026600088B1FFE70698806A012805DBFFE7069836
:10267000806A4042019003E00698806A0190FFE77B
:1026800001980B9015E0FFE7FFE7FFE740F6C45025
:10269000C2F20000006840B1FFE740F6C450C2F249
:1026A000000001680A988847FFE7FFE700200B90C9
:1026B000FFE70B980CB080BD80B584B00390029109
:1026C0000398073020F007000190029820F00700DF
:1026D00000900098019988420DD8FFE742F6041057
:1026E000C0F6010042F63611C0F6010140F20D328B
:1026F00006F048FDFFE701990098421A42F2811066
:10270000C0F601000BF078F940F66871C2F20001E2
:102710000860FFF75FF904B080BD000080B584B0A9
:10272000039040F6D860C2F200000068FEF7E6FFB2
:1027300001380190019940F6D850C2F2000050F8DB
:1027400031002C380290019803990860029804B077
:1027500080BD000080B584B00390ADF80A108DF8FC
:102760000920ADF806300398FFF762F9BDF80600BE
:102770000399C883BDF80A00039988839DF809006E
:1027800003994872039820300BF0E2F904B080BD41
:1027900080B540F20C40C2F200000068D8B9FFE7F3
:1027A000FFE741F25860C0F6010008F07DFE41F2FB
:1027B000B660C0F6010008F077FE40F2D640C0F6E1
:1027C000010008F071FEFFE740F20C41C2F2000187
:1027D00001200860FFE780BD80B58AB008900791AE
:1027E0000692089818B1FFE7079868B9FFE741F229
:1027F0006760C0F6010041F6AB01C0F6010140F28E
:10280000FB1206F0BFFCFFE7089858300BF0CAF93E
:102810000590089890F84F10B0F84D0040EA01403C
:102820008008000400284DD1FFE70020049008989C
:10283000006D0390039868B9FFE741F21970C0F684
:10284000010041F6AB01C0F6010140F2052206F09D
:1028500099FCFFE70398006801281ED0FFE7039961
:10286000012008600898406C006968B9FFE741F2F0
:102870009B70C0F6010041F6AB01C0F6010140F2C9
:102880000A2206F07FFCFFE70898416CD1F810C0DF
:102890000799069A0123E04703E06FF016000490C1
:1028A000FFE70898583005990BF0DEF9049818B93D
:1028B000FFE70698099078E004980AF031FE0020BE
:1028C000099072E00898006D02900020019008982D
:1028D00007F0F6FD0090029868B9FFE741F27570C5
:1028E000C0F6010041F6AB01C0F6010140F21A2228
:1028F00006F048FCFFE706980099884203DAFFE7F4
:102900000698019002E000980190FFE70298C088C5
:1029100001990844089991F84F20B1F84D1041EA07
:102920000241C1F38F01884209D2FFE70798029A5A
:102930001168D2881144019A08F08EFF29E00798A7
:10294000029A1168D3881944089A92F84FC0B2F8D5
:102950004D2042EA0C42C2F38F02D21A08F07CFFEB
:102960000798089991F84F20B1F84D1041EA0242BA
:102970009108C2F38F0310FA81F00299B1F806C0F2
:10298000A0EB0C000968019A6244D21A08F064FFB7
:10299000FFE70898019907F09BFD089858300599C2
:1029A0000BF062F901980990FFE709980AB080BD21
:1029B00080B588B00690059104920698406D01900C
:1029C000019804300599049A4FF0FF3307F050F94D
:1029D0000290029820BBFFE7069858300BF0E2F80F
:1029E000039001980068012811D0FFE701990120A8
:1029F00008600698583003990BF036F90698416C38
:102A0000D1F810C00599049A0223E04705E0069822
:102A1000583003990BF028F9FFE70498079005E078
:102A200002980AF07DFD00200790FFE7079808B0A4
:102A300080BD000080B584B002900298006D0190C6
:102A4000019868B9FFE741F27570C0F6010041F6E0
:102A50000F01C0F6010140F28D1206F093FBFFE773
:102A600001998888C988884215D1FFE70198806854
:102A700018B9FFE7002000900AE0029890F84F1084
:102A8000B0F84D0040EA0140C0F38F000090FFE72E
:102A9000009803901BE001998888C988884206DD68
:102AA000FFE701998888C988401A03900FE00298CF
:102AB00090F84F10B0F84D0040EA014081080198AD
:102AC000C2888088801A10FA81F00390FFE703988B
:102AD00004B080BD80B588B0079006910592079834
:102AE00068B9FFE741F26370C0F6010041F6CA0120
:102AF000C0F601014FF4957206F044FBFFE705981C
:102B000004900798006D0390039868B9FFE741F2BD
:102B10007570C0F6010041F6CA01C0F601014FF41C
:102B2000977206F02FFBFFE7FFE70598002848D0D3
:102B3000FFE7079858300BF035F801900399C888E3
:102B4000898888420AD1FFE70398806830B9FFE797
:102B50000798583001990BF087F832E0039908681C
:102B6000C988405C02900399C8880130C8800398E6
:102B7000C088079991F84F20B1F84D1041EA024101
:102B8000C1F38F01884204DBFFE703990020C8806E
:102B9000FFE703988068012804D1FFE7039900202C
:102BA0008860FFE70798583001990BF05DF80298AC
:102BB000069908700698013006900598013805902E
:102BC000B3E704980599401A08B080BD80B586B077
:102BD000059004910392059868B9FFE741F263708C
:102BE000C0F6010041F6E901C0F601014FF4AD72F3
:102BF00006F0C8FAFFE7039802900598406D01902F
:102C0000019868B9FFE741F2C070C0F6010041F6D3
:102C1000E901C0F601014FF4AF7206F0B3FAFFE725
:102C2000FFE7039888B3FFE7049800780A2815D1D6
:102C3000FFE70598008B400600280FD5FFE70598B1
:102C4000416C8A680D219047013030B9FFE7019847
:102C50004FF0FF3106F062FBE3E7FFE7FFE705987F
:102C6000416C8A68049909789047013030B9FFE7D0
:102C700001984FF0FF3106F051FBF0E70498013066
:102C80000490039801380390CBE702980399401A07
:102C900006B080BD80B586B005900491039205987A
:102CA00060B9FFE741F26370C0F6010041F6BA0176
:102CB000C0F60101F42206F065FAFFE703980190DF
:102CC000FFE7039800B3FFE70598416CC9688847A0
:102CD00002900298013008B9FFE715E002980499C4
:102CE0000870049801300490039801380390059807
:102CF000008B4006002806D5FFE702980A2801D17C
:102D0000FFE701E0FFE7DCE701980399401A06B00E
:102D100080BD000080B584B00390029101920398B9
:102D200068B9FFE741F26370C0F6010041F6D901CE
:102D3000C0F6010140F20B1206F024FAFFE70198F9
:102D40000090FFE70198F0B1FFE7029800780A28A9
:102D50000CD1FFE70398008B4006002806D5FFE75B
:102D60000398416C8A680D219047FFE70398416CF6
:102D70008A68029909789047029801300290019878
:102D800001380190DEE700980199401A04B080BD37
:102D900083B0029001910092029848B1FFE740F69B
:102DA0006870C2F200000068C06902990860FFE71D
:102DB000019848B1FFE740F66870C2F20000006871
:102DC000006A01990860FFE7009848B1FFE740F604
:102DD0006870C2F200000068406A00990860FFE76E
:102DE00003B0704780B584B00BF02CFB039007F064
:102DF00059FC019002A809F039FB039809F04CFB3B
:102E0000039848300BF0DCFD039809F0BFFB0298F3
:102E100009F0BEFC03980BF0F7F9019807F084FC69
:102E200009F0D0FC04B080BD80B586B005900020CC
:102E300004900390059809F0BBFB8DF80B000598F2
:102E4000806F0490FFE704980599783188422AD072
:102E5000FFE70498243803900398407F8DF80A0018
:102E60009DF80A000399097F884204DAFFE79DF87C
:102E70000A00019003E00398007F0190FFE70198AA
:102E80008DF80A009DF80B009DF80A10884205DDB8
:102E9000FFE79DF80A008DF80B00FFE7FFE70498B5
:102EA00000680490CFE79DF80B0006B080BD0000DD
:102EB00080B588B084460D980C98DDF82CE0DDF8DC
:102EC00028E0CDF81CC00691059204938DF80F0000
:102ED00007980D999DF80F2009F07CFB059807993C
:102EE000886104980799C8610A98079908620B9845
:102EF000079948620799086A4A6A232108F06EFD1B
:102F0000079B9869D9691A6A5B6A1A44043A42F6BF
:102F1000E553C0F6000308F00FF8079948610798D9
:102F2000783008F00BFB079800210291C0F8801060
:102F30000798C0F88410079880F888100798816275
:102F4000079841670798C0F89410079B03F1480061
:102F50006A464FF0100CC2F804C0116043F27912B7
:102F6000C0F6000219460BF07DFD07988C300AF080
:102F7000F3FD029808B080BD80B584B00390029143
:102F800007208DF80700039868B9FFE742F6536001
:102F9000C0F6010043F26001C0F6010140F2463282
:102FA00006F0F0F8FFE70298009040B1FFE70098C4
:102FB000012808D0FFE70098022808D00BE0042081
:102FC0008DF8070014E006208DF8070010E00720B8
:102FD0008DF807000CE040F2CF40C0F6010043F24C
:102FE0006001C0F6010140F2533206F0CBF8FFE772
:102FF0009DF80700039991F8342002F0F80210437D
:1030000081F8340004B080BD80B58AB0089008987B
:1030100020B9FFE76FF004000990A9E00BF012FA65
:103020000790079868B9FFE742F65360C0F60100C1
:1030300043F27A01C0F6010140F2652206F0A2F8DF
:10304000FFE7079809F064F801280DD0FFE742F682
:10305000FC70C0F6010043F27A01C0F6010140F2B3
:10306000662206F08FF8FFE7FFE706F0B5FAA8B191
:10307000FFE740F6C520C0F6010043F27A01C0F632
:103080000101049108F010FA049940F2CF40C0F613
:10309000010040F2692206F075F8FFE7FFE70BF048
:1030A000D1F9A8B9FFE740F6EF20C0F6010043F2DE
:1030B0007A01C0F60101039108F0F6F9039940F294
:1030C000CF40C0F6010040F2692206F05BF8FFE74E
:1030D000FFE708F0BBF9A8B1FFE740F69E20C0F675
:1030E000010043F27A01C0F60101029108F0DCF917
:1030F000029940F2CF40C0F6010040F2692206F08A
:1031000041F8FFE7FFE7FFE7FFE70799002001909D
:10311000886207F0C7FA0199069007980BF078FAD1
:1031200005900598E8B9FFE707984830002108AAFC
:103130000BF0A4FB079848300BF0E6FC07996FF002
:103140000A00886209F03EFB069807F0EDFA07983E
:10315000806A753020B9FFE7079900208862FFE791
:1031600003E0069807F0E0FAFFE705980990FFE70B
:1031700009980AB080BD000080B584B00390039820
:103180000290029860B9FFE742F65360C0F6010072
:1031900043F2C301C0F601017D2205F0F3FFFFE712
:1031A000029808F0B5FF01280CD0FFE742F6FC704A
:1031B000C0F6010043F2C301C0F601017E2205F012
:1031C000E1FFFFE701A809F051F9029809F046FA7A
:1031D00060B9FFE742F67270C0F6010043F2C30126
:1031E000C0F60101862205F0CDFFFFE702996FF0DE
:1031F0007400886202982C3008F0E6FA029809F010
:10320000D5F8019809F0CEFA04B080BD80B58AB037
:1032100009908DF8231007926FF0FE0006900020B1
:10322000059009989DF8231009F06CF90690FFE7C6
:1032300006990020029041B9FFE7099809F00EFABB
:10324000002818BF01200290FFE70298C00700285D
:103250004CD0FFE70998D0F8800005900598002829
:103260003FD0FFE7059808F053FF032839D1FFE767
:10327000FF208DF813000598039009982C3008F072
:1032800063FA039A02F114000999527A0AF02CFEAB
:103290000690069820BBFFE70398FEF76BFC0398A7
:1032A000006AFFF7C1FD8DF813009DF8130001902F
:1032B0000398006A09F074F90146019888420AD01F
:1032C000FFE70398006A099009989DF8131009F028
:1032D00019F9069003E06FF0FE000690FFE7FFE7A4
:1032E00003E06FF0FE000690FFE7A1E70AB080BDA3
:1032F00080B586B084460898CDF814C00491039236
:1033000002938DF807009DF807000599487205990A
:10331000487A00F0FE00487204980599C861039845
:10332000059908620599002088620299059A516200
:103330000090FFE7009800280CDCFFE70598009953
:1033400000EBC100143008F001F9FFE700980130EC
:103350000090EFE706B080BD80B582B001900020FC
:103360000090FFE7009800280CDCFFE70198009927
:1033700000EBC100143008F037FAFFE70098013085
:103380000090EFE702B080BD80B588B0069005914F
:103390000598407A8007002804D5FFE76FF0FE000B
:1033A0000790A7E00598FFF7D7FF0599487A00F046
:1033B000FE004872FFE740F6C450C2F20000006809
:1033C00040B1FFE740F6C450C2F200000168059822
:1033D0008847FFE7FFE70BF059F905994A6A10445F
:1033E00088620698039000200490FFE70498002864
:1033F00048D1FFE7FFE7049A03A850F82200069996
:1034000001EBC201496888422BD0FFE7049903A869
:1034100050F821000068009000980499A0EBC100CA
:10342000143801900198806A0599896A401A08B990
:10343000FFE70EE00198806A0599896A401A4FF605
:10344000FE71C7F6FF71884201D8FFE709E0FFE788
:10345000FFE7049A03A951F82200006841F822000E
:10346000C9E7049848B1FFE7049A03A800EB82017A
:1034700050F8220008304860FFE7FFE70498013069
:103480000490B3E740F22040C2F20000016801312D
:1034900001600068029003980599143108F0AEF8B5
:1034A00002200490FFE7049801281BD8FFE79DF84D
:1034B0000800800768B9FFE70498C0F1010203A87B
:1034C00050F82200059901EBC201143108F096F87A
:1034D00000E007E0029880080290FFE704980130BE
:1034E0000490E0E70599487A40F001004872002016
:1034F0000790FFE7079808B080BD000081B00090FA
:1035000040F28430C2F2000001B0704780B586B04E
:10351000059005980290029860B9FFE740F6C83020
:10352000C0F6010040F6C441C0F601013A2205F0A0
:1035300029FEFFE7FFE7029840300AF029FB0490DC
:10354000029808F097F868B1FFE70AF07BFF0221C4
:103550000BF05EF80298403004990AF07BFB09F00A
:1035600031F9E8E7029800680390039808F0CCF876
:103570000398029908610399088A20F001000882E3
:1035800003990020019008640298403004990AF0E1
:1035900061FB03988268C1689047019802990861AD
:1035A000029800F001F8C6E780B582B00190FFE70D
:1035B0000198143009F07AFB00900098753028B912
:1035C000FFE70198143009F0F1FA09E0009818B902
:1035D000FFE70020009004E06FF0FE00009000E0A4
:1035E000E6E7009802B080BD80B594B012901191CA
:1035F00000201090ADF83E006FF0FE000E90129883
:103600000228C0F26681FFE71198406840F6807199
:10361000C0F60101FCF7ADFE68BBFFE71298032876
:1036200021D1FFE71198806806F06EFD014640F257
:103630002440C2F200000160026840F6B271C0F698
:10364000010140F6BA70C0F60100002A08BF084622
:103650000D90119881680D9A40F66A50C0F60100ED
:1036600007F022FF06E040F69350C0F6010007F095
:103670001BFFFFE72CE140F22440C2F2000000688B
:1036800050B9FFE740F64670C0F6010007F00CFFA6
:103690006FF0FE00139041E11198406840F69C7174
:1036A000C0F60101FCF765FEE0BBFFE712980328B6
:1036B00030D1FFE740F22440C2F200000B900068D6
:1036C0000A9011988068FCF7C0FE01460A9849B23A
:1036D00005F09EFC01460B980E910E9B40F6BA72C7
:1036E000C0F6010240F6B271C0F60101002B08BF1E
:1036F00011460D9100680C9011988068FCF7A5FEAA
:103700000C9902460D9B40F67850C0F6010007F078
:10371000CBFE06E040F61D60C0F6010007F0C4FED7
:10372000FFE7D4E01198406842F62271C0F601012B
:10373000FCF71FFE78BBFFE71298032823D1FFE7B1
:1037400040F22440C2F200000890006807901198EF
:103750008068FCF77AFE0146079849B205F084FCC0
:103760000146089810910068099011988068FCF74C
:103770006CFE09990246109B40F62950C0F60100E4
:1037800007F092FE06E040F6E060C0F6010007F0A8
:103790008BFEFFE79AE01198406840F6AA71C0F6E8
:1037A0000101FCF7E6FDE0BBFFE71298032830D1EA
:1037B000FFE740F22440C2F2000005900068049048
:1037C00011988068FCF741FE0146049849B205F063
:1037D000F3FB014605980E910E9B40F6BA72C0F6B7
:1037E000010240F6B271C0F60101002B08BF11467C
:1037F0000D910068069011988068FCF726FE0699E6
:1038000002460D9B40F64F50C0F6010007F04CFEFB
:1038100006E040F67960C0F6010007F045FEFFE7DC
:1038200053E01198406840F68D71C0F60101FCF735
:10383000A0FD002841D1FFE71298032835D1FFE70A
:1038400040F22440C2F200000290006801901198FA
:103850008068FCF7FAFD0146019849B205F022FCA8
:1038600001460298ADF83E100068039011988068F8
:10387000FCF7EBFD03990246BDF93EC044F6D35078
:10388000C1F262005CFB00F3981100EBD3734FF4BC
:103890007A7003FB10C0EC46CCF8000040F60550EF
:1038A000C0F6010007F000FE06E040F6E540C0F675
:1038B000010007F0F9FDFFE706E040F61870C0F6DA
:1038C000010007F0F1FDFFE7FFE7FFE7FFE7FFE794
:1038D00021E040F6DC40C0F6010007F0E5FD40F6CF
:1038E000C250C0F6010007F0DFFD40F6A760C0F649
:1038F000010007F0D9FD40F64A60C0F6010007F06C
:10390000D3FD40F6EF50C0F6010007F0CDFD6FF09B
:10391000FE000E90FFE700201390FFE7139814B00D
:1039200080BD000080B582B00190019840F228412E
:10393000C2F2000100F002F802B080BD80B58AB08A
:1039400008900791089818B1FFE7079830B9FFE78A
:10395000152009F0E5FD00200990F6E00798002108
:103960001A2208F03BF840F2D010C2F200000068C2
:103970000AF014FA08998969B0EB810F0DDDFFE7B1
:1039800040F2D810C2F2000000680AF007FA089965
:103990000969B0EB810F67DCFFE7FFE740F2DC402D
:1039A000C0F6010007F080FD40F25350C0F6010060
:1039B00007F07AFD40F2D640C0F6010007F074FD32
:1039C000FFE740F2D010C2F20000006800680799DB
:1039D000086040F2D810C2F2000000680068079941
:1039E0004860079808300899C96804F0E3FF079811
:1039F000007A302804D1FFE7079920200872FFE7FA
:103A0000079920200590887207980B3008998968DB
:103A100004F0D0FF07993A200490487307980E30BD
:103A20000899496804F0C6FF049807990874079834
:103A300011300899096804F0BDFF05980799C8740A
:103A400007981430142104F0B5FF079816300021B0
:103A5000069104F0AFFF0698079A0A21117607999C
:103A600048760798099070E040F2D010C2F200004A
:103A700000680899896950F821000799086040F2A8
:103A8000D810C2F2000000680899096950F82100B6
:103A900007994860079808300899C96804F08AFFB8
:103AA0000798007A302804D1FFE707992020087290
:103AB000FFE7079920200290887207980B30089939
:103AC000896804F077FF07993A20019048730798B6
:103AD0000E300899496804F06DFF01980799087441
:103AE000079811300899096804F064FF0298079953
:103AF000C874079814300899496901F26C7148F24A
:103B00001F52C5F2EB12039251FB02F2511101EB6D
:103B1000D27104F04FFF039907981630089A526942
:103B200002F26C7353FB01F2511101EBD27164226A
:103B300001FB123104F03EFF07990A20087607992D
:103B40000020487607980990FFE709980AB080BDE1
:103B500083B0019000200090FFE700981F2810DC40
:103B6000FFE70099012000FA01F10198884203D192
:103B7000FFE70098029008E0FFE70098013000900E
:103B8000EBE74FF0FF300290FFE7029803B0704779
:103B900080B582B043F29920C0F6010007F084FCA2
:103BA0004EF62950CEF200000190017843F22E40EB
:103BB000C0F6010007F078FC01980078C00738B122
:103BC000FFE743F21940C0F6010007F06DFCFFE784
:103BD0004EF62950CEF2000000788007002807D565
:103BE000FFE743F20E40C0F6010007F05DFCFFE77F
:103BF0004EF62950CEF2000000784007002807D585
:103C0000FFE743F20C40C0F6010007F04DFCFFE770
:103C10004EF62950CEF2000000780007002807D5A4
:103C2000FFE743F20240C0F6010007F03DFCFFE76A
:103C30004EF62950CEF200000078C006002807D5C5
:103C4000FFE743F20440C0F6010007F02DFCFFE758
:103C50004EF62950CEF200000078000600280CD560
:103C6000FFE74EF63850CEF20000016843F2A5207F
:103C7000C0F6010007F018FC06E041F6D260C0F67D
:103C8000010007F011FCFFE702B080BD80B541F6EE
:103C9000F570C0F6010007F007FC002080BD0000B1
:103CA00080B586B0059004910598022817D0FFE7EB
:103CB000059801280CD1FFE70AF0C4FB014642F247
:103CC0008560C0F6010007F0EFFB05F089FA3DE0E2
:103CD00042F20070C0F6010007F0E6FB36E00498FF
:103CE000406802A90022FCF777FB03900298049930
:103CF0004968884209D1FFE70498416842F2887018
:103D0000C0F6010007F0D0FB20E00398B0B1FFE758
:103D1000039808F0FDF9012810D1FFE703980190FE
:103D20000199039A0498436842F29B70C0F601001F
:103D300007F0BAFB019805F09DFA07E0039942F2FB
:103D40002870C0F6010007F0AFFBFFE706B080BDAA
:103D500080B594B01290119112980228C0F28F8011
:103D6000FFE71198406806F0CFF90190019860B91B
:103D7000FFE71198416840F23360C0F6010007F098
:103D800093FB4FF0FF3013908DE01198416840F2A3
:103D9000C060C0F6010007F087FB0198172102AA56
:103DA00006F078F90299039A40F26070C0F60100BB
:103DB00007F07AFB09990A9A40F2A770C0F6010051
:103DC00007F072FB0B990C9A40F21D70C0F60100CF
:103DD00007F06AFB049A0D9940F26060C0F601009A
:103DE00007F062FB04980090072836D80099DFE8B6
:103DF00001F004101C1C2828282840F23810C2F2B8
:103E00000000016840F2A370C0F6010007F04CFB0F
:103E100023E040F23810C2F20000416840F2A37083
:103E2000C0F6010007F040FB17E040F23810C2F284
:103E30000000816840F2A370C0F6010007F034FB77
:103E40000BE040F23810C2F20000C16840F2A370EB
:103E5000C0F6010007F028FBFFE70599069A40F23B
:103E6000D960C0F6010007F01FFB0798089A811877
:103E700040F29C50C0F6010007F016FB10E01198CC
:103E8000016840F24E60C0F6010007F00DFB11988A
:103E9000016840F2E150C0F6010007F005FBFFE7C2
:103EA00000201390FFE7139814B080BD80B586B052
:103EB000059004910020009003900290019003A8C7
:103EC00002A901AA07F078FD039942F27830C0F602
:103ED000010007F0E9FA029942F26930C0F60100E8
:103EE00007F0E2FA019942F28730C0F6010007F0CC
:103EF000DBFA03980299411A42F29630C0F60100AB
:103F000007F0D2FA009806B080BD000080B584B0FA
:103F1000029001910298022837D1FFE70298019997
:103F200040F24812C2F2000203F042FB013801469F
:103F30000091092825D80099DFE801F0050B110E42
:103F400014171A1D200803F013F81BE003F01CF9E6
:103F500018E002F067FF15E002F0F4FA12E002F058
:103F6000A1FE0FE002F01AFC0CE002F0F5FD09E002
:103F700002F0C6FC06E002F03BFD03E002F050FA5E
:103F800000E003E00020039015E0FFE741F64C401D
:103F9000C0F6010007F088FA41F64040C0F6010083
:103FA00007F082FA40F24810C2F2000003F05CFD14
:103FB00000200390FFE7039804B080BD80B582B075
:103FC0000190009102F0D4FF002002B080BD0000FB
:103FD00080B582B00190019803F07AF9FFF7A2FC56
:103FE00002B080BD80B590B00E900D9100200C9075
:103FF0000E980228C0F21F81FFE70D98406840F636
:104000008071C0F60101FCF7B4F968BBFFE70E98B8
:10401000032821D1FFE70D98806806F075F8014666
:1040200040F24440C2F200000160026840F6B27102
:10403000C0F6010140F6BA70C0F60100002A08BFC0
:1040400008460B900D9881680B9A40F66A50C0F6AE
:10405000010007F029FA06E041F21C00C0F6010059
:1040600007F022FAFFE7E5E040F24440C2F2000028
:10407000006850B9FFE741F2BF10C0F6010007F039
:1040800013FA6FF0FE000F90FAE00D98406840F6CA
:104090009C71C0F60101FCF76CF9D8BBFFE70E98E4
:1040A00003282FD1FFE740F24440C2F200000990FC
:1040B000006808900D988068FCF7C7F901460898D9
:1040C00005F0B8FA014609980C910C9B40F6BA72BB
:1040D000C0F6010240F6B271C0F60101002B08BF24
:1040E00011460B9100680A900D988068FCF7ADF9B5
:1040F0000A9902460B9B40F67850C0F6010007F083
:10410000D3F906E041F27D00C0F6010007F0CCF9DA
:10411000FFE78EE00D98406841F25D41C0F6010175
:10412000FCF727F9B8BBFFE70E9804282BD1FFE76F
:1041300040F24440C2F200000590006804900D98DF
:104140008068FCF782F903900D98C068FCF77DF950
:1041500003990246049805F095FA059800680690C0
:104160000D988068FCF771F907900D98C068FCF70E
:104170006CF90699079A034640F6C670C0F601002E
:1041800007F092F906E041F20E10C0F6010007F0C8
:104190008BF9FFE74CE00D98406840F6AA71C0F635
:1041A0000101FCF7E6F8D8BBFFE70E9803282FD1F2
:1041B000FFE740F24440C2F2000001900068009026
:1041C0000D988068FCF741F90146009805F00AFA5D
:1041D000014601980C910C9B40F6BA72C0F60102A0
:1041E00040F6B271C0F60101002B08BF11460B91D9
:1041F000006802900D988068FCF727F90299024642
:104200000B9B40F64F50C0F6010007F04DF906E059
:1042100041F2E000C0F6010007F046F9FFE706E0D2
:1042200041F29110C0F6010007F03EF9FFE7FFE709
:10423000FFE7FFE721E040F6DC40C0F6010007F0B1
:1042400033F940F6E870C0F6010007F02DF941F2AD
:104250005010C0F6010007F027F941F2AA00C0F69D
:10426000010007F021F941F24800C0F6010007F013
:104270001BF96FF0FE000C90FFE700200F90FFE7A6
:104280000F9810B080BD000080B59AB019901891B9
:10429000002017901998012857D1FFE700200590BA
:1042A00016901590149013900AF0FAFC059914904A
:1042B00015A800F07BFE159817901498012803DBD1
:1042C000FFE71498049003E0149840420490FFE73D
:1042D0000498139017A8FFF77BFE024641F23D6059
:1042E000C0F60100192107F0DFF8159941F2C1501D
:1042F000C0F6010007F0D8F814982D210028C8BF97
:104300002B21139B4BF2C530C9F2A210A3FB002056
:10431000C20A4FF4616002FB103048F68903C8F608
:104320008803A0FB033E4FEA5E134FEA031CACEB8D
:104330005E1CA0EB8C00EC46CCF8000041F2A250D1
:10434000C0F6010007F0B0F8BCE019980728C0F2E9
:10435000AB80FFE708A82C21FBF7E3FF00200790C4
:1043600018984068FCF771F8A0F26C700D901898DE
:104370008068FCF76AF801380C901898C068FCF760
:1043800064F80B9018980069FCF75FF80A90189889
:104390004069FCF75AF8099018988069FCF755F8BD
:1043A00008900D98002807DCFFE741F2B840C0F6FE
:1043B000010007F079F885E00C980C2807DBFFE78F
:1043C00041F21150C0F6010007F06EF87AE00B9848
:1043D00020B1FFE70B98202807DBFFE741F2F5400B
:1043E000C0F6010007F060F86CE00A98182807DBB7
:1043F000FFE741F22F50C0F6010007F055F861E0E9
:1044000009983C2807DBFFE741F24C50C0F6010059
:1044100007F04AF856E008983D2807DBFFE741F22D
:10442000D640C0F6010007F03FF84BE007A800F0C7
:104430008FFD0690069840B1FFE7069941F2805043
:10444000C0F6010007F030F83CE008A803F03EF8A1
:10445000179017980BF0A0F80690069840B1FFE768
:10446000069941F26B50C0F6010007F01DF829E0F3
:1044700017A8029000F06CFD07A8FFF7A9FD0246FF
:1044800041F23360C0F601001921039107F00CF8E6
:104490000298FFF79DFD0399024641F24E60C0F677
:1044A000010007F001F80CE041F2F950C0F60100FC
:1044B00006F0FAFF41F2D250C0F6010006F0F4FF18
:1044C000FFE7FFE71AB080BD83B002900191029828
:1044D00002680199B2FBF1F000FB112000900299F3
:1044E0000868019AB0FBF2F00860009803B07047CA
:1044F00080B582B040F66070C2F20000006890F8AB
:1045000029004008C00740B9FFE740F24840C2F226
:10451000000000210170019040E040F2CC40C2F266
:104520000000006868B1FFE740F2CC40C2F2000032
:10453000016840F24840C2F200008022FBF7FCFE16
:104540000AE040F24840C2F2000042F2AC21C0F65C
:104550000101FBF729FFFFE740F24840C2F20000EB
:1045600009F01CFC02307F2812D8FFE740F24840D7
:10457000C2F20000009009F011FC024600983E21B2
:10458000815409F00BFC0099014400204870FFE7BA
:1045900040F24840C2F200000190FFE7019802B0EB
:1045A00080BD000080B584B000208DF80B0040F67F
:1045B0006070C2F20000006860B9FFE742F2B1200B
:1045C000C0F6010042F20031C0F60101A82204F059
:1045D000D9FDFFE740F66070C2F200000068D0F835
:1045E00014020190019820B9FFE74FF0FF300390CB
:1045F00032E0FFE701984FF0FF310DF10B0201238C
:1046000005F06EFE012823D0FFE740F66070C2F28D
:104610000000009000684FF0FF3108F03BFB00986D
:104620000068D0F814020199884210D0FFE740F6E4
:104630006070C2F200000068D0F814020190019886
:1046400020B9FFE74FF0FF30039005E0FFE7D1E727
:104650009DF80B000390FFE7039804B080BD0000B5
:1046600080B582B00190009140F66070C2F2000007
:10467000006860B9FFE742F2B120C0F6010042F2E3
:10468000C521C0F60101C72204F07CFDFFE740F61A
:104690006070C2F20000006808F088FA002002B0E2
:1046A00080BD000080B586B005900020049040F6E3
:1046B0006070C2F20000006860B9FFE742F2B1200A
:1046C000C0F6010042F2D221C0F60101DA2204F064
:1046D00059FDFFE7059805F017FD0490049840B9CF
:1046E000FFE7059942F28620C0F6010006F0DCFEE5
:1046F0004EE0049840F66071C2F200010968D1F8FA
:104700001412884201D1FFE742E0049840F24311BD
:1047100005F004FDE0BBFFE740F66070C2F2000068
:104720000068D0F8140290B1FFE740F66070C2F262
:10473000000003900068D0F8140205F055FC0398BF
:104740000068D0F81402002105F040FEFFE740F6B3
:104750006070C2F200000190006800F5DF70002177
:104760000291512207F03AF9019902980A68A2F8D9
:1047700010020A68A2F8120204980968C1F814022B
:10478000049844F26161C0F6000105F01FFEFFE7E6
:1047900006B080BD80B582B0019040F66070C2F274
:1047A0000000006860B9FFE742F2B120C0F60100E6
:1047B00042F2E321C0F60101942204F0E3FCFFE79A
:1047C0009DF8042040F66070C2F20000016891F884
:1047D000290002F0010200F0FD0040EA420081F8E9
:1047E000290002B080BD000082B0019000910198C4
:1047F00040F21041C2F200010860009840F21441FA
:10480000C2F20001086002B07047000080B586B0B7
:104810000020049043F21C50C0F6010043F2EC511A
:10482000C0F60101FFF7E0FF01204FF4067104F02C
:104830003DFD014640F66070C2F200000160006874
:1048400050B9FFE742F27120C0F6010006F02CFEDD
:104850004FF0FF30059030E069460A204860142090
:10486000086042F2F920C0F6010044F6C101C0F62A
:104870000001002202924FF4805309F055FC029B84
:10488000039040F66070C2F20000006842F21331FB
:10489000C0F601011A4608F039F90120FFF77AFF46
:1048A000039838B1FFE7049820B9FFE7039809F0AF
:1048B000CFFDFFE700200590FFE7059806B080BD1B
:1048C00080B590B00F90FFE740F28030C2F2000058
:1048D000006838B1FFE740F28030C2F200000068A3
:1048E0008047FFE7FFE740F66070C2F20000026811
:1048F00092F8291041F0010182F829100068D0F8DF
:10490000140258B9FFE704F029FE0D900D9820B16C
:10491000FFE70D98FFF7C6FEFFE7FFE7FFF7E8FDAB
:1049200006F0C2FDFFE7FFF73DFE0E900E98B0F1D6
:10493000FF3F01DCFFE7F6E70E981B2809D1FFE7F0
:1049400040F66070C2F200000168012081F8280082
:10495000E9E740F66070C2F20000006890F82800B5
:10496000012816D1FFE70E985B2809D1FFE740F632
:104970006070C2F200000168022081F82800D2E7CE
:1049800040F66070C2F200000168002081F8280043
:10499000EFE040F66070C2F20000006890F8280076
:1049A000022840F0E580FFE740F66070C2F20000A8
:1049B0000168002081F828000E9841283DD1FFE7CA
:1049C00040F66070C2F200000068408D012809DBEB
:1049D000FFE740F66070C2F200000168488D0138C0
:1049E000488507E040F66070C2F2000001680020D0
:1049F000488598E740F66070C2F2000009900168AF
:104A000001F5DF704A8D02EB820201EB02112E31BB
:104A1000502206F021FF0998006800F5DF70FBF7CF
:104A2000A1FC014609980268A2F810120268A2F8D7
:104A3000121200680AF0FAFD75E70E9842284AD172
:104A4000FFE740F66070C2F200000168488D898D72
:104A50000139884209DAFFE740F66070C2F20000CF
:104A60000168488D0130488512E040F66070C2F25E
:104A700000000068808D48B1FFE740F66070C2F228
:104A800000000168888D0138488500E04BE7FFE7AA
:104A900040F66070C2F200000890016801F5DF7016
:104AA0004A8D02EB820201EB02112E31502206F0F8
:104AB000D3FE0898006800F5DF70FBF753FC014651
:104AC00008980268A2F810120268A2F81212006890
:104AD0000AF0ACFD27E70E9844281BD1FFE740F60B
:104AE0006070C2F200000068B0F8120288B1FFE7FF
:104AF00042F26F20C0F6010006F0D6FC40F660706E
:104B0000C2F200000168B1F812020138A1F81202E5
:104B1000FFE708E70E98432826D1FFE740F66070CC
:104B2000C2F200000168B1F81202B1F81012884216
:104B300019DAFFE740F66070C2F2000007900068E3
:104B4000B0F81212084490F8BE1142F2C220C0F62A
:104B5000010006F0A9FC07980168B1F812020130C3
:104B6000A1F81202FFE7DEE6FFE7FFE7FFE7FFE756
:104B7000FFE7FFE70E9820B1FFE70E98FF2801D16D
:104B8000FFE7D0E60E98092831D1FFE700200C900E
:104B9000FFE70C9840F66071C2F200010968B1F8B5
:104BA000121288420BDAFFE742F26F20C0F60100D2
:104BB00006F07AFCFFE70C9801300C90E9E740F62C
:104BC0006070C2F200000690006800F5DF700AF025
:104BD00011FD0698006800F5DF70FBF7C3FB06992E
:104BE0000A68A2F810020968A1F812029BE60E9862
:104BF0007F2804D0FFE70E98082878D1FFE740F619
:104C00006070C2F200000068B0F8120208B9FFE755
:104C100089E640F66070C2F200000268B2F8101235
:104C20000139A2F810120268B2F812120139A2F882
:104C300012120168B1F81002B1F81212884243DD75
:104C4000FFE740F66070C2F2000005900268B2F81B
:104C50001232D11801F5DF7001F2BF11B2F8102243
:104C6000D21A06F067FE05980168B1F810220A44CE
:104C7000002182F8BE110068B0F81212084400F555
:104C8000DF7142F26A20C0F6010006F00DFC0598C3
:104C90000068B0F812020B90FFE70B9840F66071C5
:104CA000C2F200010968B1F8101288420BDCFFE77C
:104CB00042F26F20C0F6010006F0F6FBFFE70B980A
:104CC00001300B90E9E711E042F26620C0F60100E6
:104CD00006F0EAFB40F66070C2F200000068B0F82F
:104CE00010120144002081F8BE01FFE71BE6FFE738
:104CF000FFE70E980D2804D0FFE70E980A2838D158
:104D0000FFE740F66070C2F20000049000680AF00D
:104D1000A5FC0498006890F82900C00738B1FFE7A7
:104D200041F6D260C0F6010006F0BEFBFFE740F698
:104D30006070C2F200000290016801F5DF70B1F806
:104D4000101202F069FCFFF7D3FB06F0ADFB0298EE
:104D5000006800F5DF7000210391512206F03EFE4D
:104D6000029903980A68A2F810020968A1F81202D1
:104D7000D9E540F66070C2F200000068B0F8100299
:104D8000502809DBFFE740F66070C2F200000168BE
:104D90000020A1F81002FFE740F66070C2F20000A8
:104DA0000168B1F81202B1F81012884251DAFFE737
:104DB00040F66070C2F2000001900268B2F8123250
:104DC000D11801F2BF1001F5DF71B2F81022D21A2A
:104DD00006F0B0FD01980E990268B2F812321A443A
:104DE00082F8BE11006890F82900C00788B1FFE77B
:104DF00040F66070C2F200000068B0F81212084479
:104E000000F5DF7142F21030C0F6010006F04CFBF5
:104E1000FFE740F66070C2F200000068B0F81202CE
:104E20000A90FFE70A9840F66071C2F20001096833
:104E3000B1F8101288420BDAFFE742F26F20C0F699
:104E4000010006F031FBFFE70A9801300A90E9E71C
:104E500019E00E9940F66070C2F200000268B2F8E4
:104E600010321A4482F8BE11006890F82900C00779
:104E700040B1FFE70E9942F2C220C0F6010006F0F1
:104E800013FBFFE7FFE700200E9040F66070C2F2D0
:104E900000000268B2F810120131A2F81012026884
:104EA000B2F812120131A2F812120068B0F8100222
:104EB00050280CDBFFE740F66071C2F200010A687F
:104EC0000020A2F810020968A1F81202FFE72AE503
:104ED00082B08DF807009DF807004F2814D8FFE72F
:104EE0009DF8070000EB40014FF6BC70C0F60000D3
:104EF00000EB8100009000980068013018B9FFE7CE
:104F000000200090FFE702E000200090FFE70098FB
:104F100002B0704780B584B002900298FEF718FE88
:104F200001900198002804D4FFE70198102803D3CA
:104F3000FFE70020039008E001994FF67A70C0F671
:104F4000000000EB81000390FFE7039804B080BDF0
:104F500080B582B0009040F20840C2F200000068C4
:104F6000A0B9FFE740F29850C0F6010005F0CCF878
:104F7000014640F20840C2F200000160006820B91A
:104F8000FFE76FF0FE0001900CE0FFE740F2084001
:104F9000C2F200000068009A40F2016105F07AF860
:104FA0000190FFE7019802B080BD000080B584B099
:104FB00002900191019898B1FFE7019900204860A3
:104FC00009F06EFE014648F68900C8F6880050FBDD
:104FD0000111481100EBD170404201990860FFE7D0
:104FE0000298D8B1FFE70299002008600299486052
:104FF000029940F20360FCF77BFC18B9FFE7002040
:10500000039012E0029940F20160FCF771FC18B9BC
:10501000FFE70020039008E0FFE7FFE7052008F026
:105020007FFA4FF0FF300390FFE7039804B080BD94
:1050300080B588B006900591069818B1FFE70598ED
:1050400030B9FFE7152008F06BFA00200790CBE09D
:10505000059800212C2206F0C1FC0698006844F255
:105060000751CCF22E21A0FB0132120C40F2A323F7
:105070005A43A0EBC2100390039A48F68900C8F681
:10508000880050FB022C4FEA6C1303EBDC73C3EB7C
:105090000313A2EB8302059B1A60039A50FB0223C1
:1050A0005A1102EBD3720392039A50FB022C4FEA7F
:1050B0006C1303EBDC73C3EB0313A2EB8302059BBE
:1050C0005A60039A50FB0222501100EBD270059AED
:1050D000906006980068A0FB0110000C03900398F4
:1050E000043042F29341C9F2492151FB0002911070
:1050F00001EBD271C1EBC101401A0599886140F200
:10510000B2700490FFE70498FCF7B6FA014640F24B
:105110006D10002918BF4FF4B770029003980299E0
:10512000884205DBFFE702990398401A039000E0EC
:1051300004E0FFE7049801300490E4E70498A0F24B
:105140006C700599486103980599C861059901201B
:10515000C8600498FCF790FA80B1FFE703983B28F9
:105160000CDBFFE703983B2804D1FFE705990220F9
:10517000C860FFE7039801380390FFE70B20049015
:10518000FFE704990020019071B1FFE704994FF601
:10519000C840C0F6000030F91110039A0020914277
:1051A000C8BF01200190FFE70198C00728B1FFE7C1
:1051B000FFE7049801380490E3E704980599086133
:1051C0000398049A4FF6C841C0F6000131F9121055
:1051D000421A0599C8681044C86009F067FD05992E
:1051E000086205980790FFE7079808B080BD0000A7
:1051F00080B582B001900198406920B1FFE7019825
:1052000040698047FFE702B080BD000080B582B0F2
:1052100001900198806920B1FFE70198806980477B
:10522000FFE702B080BD000080B54EF62C50CEF2F4
:10523000000000688007002807D5FFE743F2C5207B
:10524000C0F6010006F030F9FFE74EF62C50CEF222
:1052500000000068400000281FD5FFE74EF62950E7
:10526000CEF20000007818B1FFE7FEF791FCFFE7EF
:105270004EF62850CEF20000007818B1FFE702F099
:10528000B7F8FFE74EF62A50CEF20000008818B1BA
:10529000FFE70AF045FCFFE7FFE74EF62C50CEF2A1
:1052A00000000068C00F38B1FFE743F2DA20C0F613
:1052B000010006F0F9F8FFE780BD000080B58AB074
:1052C0000890079107984088ADF81A000798408821
:1052D00000F02000ADF818000898D0F8880005907C
:1052E000BDF8180018B1FFE70020019004E008980D
:1052F000D0F884000190FFE701980390BDF81A00F0
:105300004007002840F19180FFE7079801880620B8
:1053100000EAD110F0308DF81300079800888DF85E
:10532000120008989DF81310039A00F0A7FB029052
:10533000029801281CD0FFE7BDF81800C0B9FFE7AC
:10534000FFE740F60C10C0F6010006F0ADF840F69D
:105350007A10C0F6010006F0A7F840F2D640C0F679
:10536000010006F0A1F8FFE76FF00B00099084E060
:1053700008989DF8121000F07BFC0290029801281A
:105380001CD0FFE7BDF81800C0B9FFE7FFE740F603
:105390000C10C0F6010006F087F840F66010C0F669
:1053A000010006F081F840F2D640C0F6010006F098
:1053B0007BF8FFE76FF00B0009905EE0BDF81A0084
:1053C000C00788B3FFE7059800F06EFA9DF8130058
:1053D00040F001008DF8130008989DF81310039A0F
:1053E00000F04CFB0290029801281CD0FFE7BDF8AA
:1053F0001800C0B9FFE7FFE740F6FE00C0F6010065
:1054000006F052F840F64410C0F6010006F04CF8E1
:1054100040F2D640C0F6010006F046F8FFE76FF014
:105420000B00099029E0FFE724E00798008840007E
:105430008DF813009DF81A00C00738B1FFE79DF8FA
:10544000130040F001008DF81300FFE708989DF865
:105450001310039A00F012FB02900298012808D062
:10546000FFE7BDF8180020B9FFE76FF00B000990C7
:1054700003E0FFE700200990FFE709980AB080BD2C
:1054800080B58AB00890079106920898D0F88800F5
:105490000490069818B9FFE70020099081E00020E9
:1054A0000290FFE70298069988426AD2FFE70798C0
:1054B000029901EB410100EB8100059005984088BD
:1054C00000F02000ADF8060005988078C00600289E
:1054D00019D4FFE7029820B1FFE7049800F0E4F93F
:1054E00003E0049800F056FBFFE708980599FFF7E2
:1054F000E5FE0390039828B1FFE7BDF8060008B960
:10550000FFE741E0FFE705984088C007D0B1FFE71B
:105510000898059900F082F903900398012801DBAF
:10552000FFE7FFE7039805998988884209DAFFE7D2
:105530000398002804D4FFE76FF00B000390FFE707
:1055400022E019E00898059900F0CCFA039003983E
:10555000012801DBFFE7FFE7039805998988884266
:1055600009DAFFE70398002804D4FFE76FF0FE0094
:105570000390FFE708E0FFE7FFE7029801300290A1
:1055800090E702980390FFE70598408800060028FE
:1055900004D4FFE7049800F011FBFFE7039809909B
:1055A000FFE709980AB080BD80B588B006900591E4
:1055B00004920698006C0190019860B9FFE740F6EC
:1055C000B210C0F6010040F66921C0F60101472281
:1055D00003F0D8FDFFE70598009040F601118842DE
:1055E0000CD0FFE7009840F6031188420ED0FFE789
:1055F000009840F6041188420ED020E00199B1F8DD
:10560000480040F00400A1F848001FE0049800683A
:105610000199C1F8800019E0049802900198029A5B
:105620001168526805F0B0FE03900398B0F1FF3F97
:1056300004DCFFE76FF00B0007900AE006E001983A
:105640000599049A05F00AFE079002E000200790F1
:10565000FFE7079808B080BD80B588B00790069135
:10566000059204930798006C0290029860B9FFE7D6
:1056700040F6B210C0F6010040F64021C0F601012C
:10568000202203F07FFDFFE7059860B9FFE740F6B1
:105690002E20C0F6010040F64021C0F60101212273
:1056A00003F070FDFFE70698ADF80E00BDF81A0094
:1056B000ADF80C000298BDF80E10BDF80C20059B4B
:1056C000DDF810C0EE46CEF800C005F0F7FD08B0DA
:1056D00080BD000080B588B00790069105920493C4
:1056E0000798006C0290029860B9FFE740F6B2108C
:1056F000C0F6010040F65421C0F60101342203F047
:1057000041FDFFE7059860B9FFE740F62E20C0F69F
:10571000010040F65421C0F60101352203F032FDAC
:10572000FFE70698ADF80E00BDF81A00ADF80C00C2
:105730000298BDF80E10BDF80C20059BDDF810C0D6
:10574000EE46CEF800C005F0F5FD08B080BD0000C3
:1057500080B582B0019001984169806901304008AC
:10576000884702B080BD000080B582B001900198EA
:1057700041698069884702B080BD000080B586B06D
:105780000490002001908DF80E000498D0F8880055
:105790000290029908684A68012190470298FFF731
:1057A000D7FF01988DF80F00FFE79DF80F0007283D
:1057B0002CDCFFE79DF80E0040008DF80E000298EB
:1057C000FBF790FBB0F1FF3F04DCFFE76FF07400E4
:1057D00005901FE002990868C968884738B1FFE75B
:1057E0009DF80E0040F001008DF80E00FFE70299D1
:1057F00008688A68002190470298FFF7B5FFFFE725
:105800009DF80F0001308DF80F00CEE79DF80E00D7
:105810000590FFE7059806B080BD000080B588B010
:1058200006900591002003900598806802900598E5
:1058300080880190059840880090FFE70198012832
:105840002BDBFFE70698FFF799FF049004980028E8
:1058500007D4FFE704980299087003980130039079
:1058600000E01AE00298013002900198013801909E
:105870009DF80000400600280ED4FFE70698019925
:1058800000F0BCF804900498B0F1FF3F03DCFFE7A0
:105890000498079004E0FFE7D0E703980790FFE73C
:1058A000079808B080BD000080B582B001900199D2
:1058B00008684A68012190470198FBF713FB01989B
:1058C000FFF746FF019908684A6800210091904758
:1058D0000198FFF73DFF0099019A10689268904780
:1058E00002B080BD80B58CB00B900A910B98022855
:1058F00004D1FFE70A984068089005E040F2C740ED
:10590000C0F601000890FFE7089940F2B140C0F6E8
:10591000010005F0C9FD089804F0F6FB099009980C
:1059200040B9FFE7089940F2E830C0F6010005F001
:10593000BBFD60E00998007D08280AD0FFE70899C0
:105940000998027D40F28140C0F6010005F0ACFDEF
:1059500051E040F22D40C0F6010005F0A5FD002009
:10596000079001208DF81B00FFE79DF81B007C28A5
:1059700039DCFFE79DF81B00ADF80C000122ADF803
:105980000E200DF10B000590ADF81020099803A929
:1059900005F0FAFC0190019801280CD1FFE79DF871
:1059A0001B1040F26940C0F6010005F07DFD07982C
:1059B000013007900DE00198753048B9FFE79DF878
:1059C0001B1040F24E40C0F6010005F06DFDFFE7F0
:1059D000FFE7012008F0DCFCFFE79DF81B00013029
:1059E0008DF81B00C1E7079940F20840C0F601009E
:1059F00005F05AFDFFE70CB080BD000080B586B011
:105A0000049003910498D0F888000290039830B174
:105A1000FFE7029908684A6800219047FFE702986B
:105A2000FFF796FE0298FBF75DFAB0F1FF3F18DC36
:105A3000FFE7FFE740F6FE00C0F6010005F034FD89
:105A400040F61A10C0F6010005F02EFD40F2D640D7
:105A5000C0F6010005F028FDFFE76FF07400059027
:105A600008E0029908688A6800210191904701982E
:105A70000590FFE7059806B080BD000080B586B0B0
:105A800005908DF8131003920598D0F888000290C5
:105A9000002000900190FFE70198039988421EDCE6
:105AA000FFE705989DF8131000F0E2F800900098C9
:105AB000012805D0FFE701980399884201D1FFE74B
:105AC0000DE0029800F07AF80298FFF74DFE029878
:105AD00000F060F8FFE7019801300190DCE70098E2
